:100000000C9464000C948C000C948C000C94B4053B
:100010000C94B4050C94B4050C948C000C948C00D6
:100020000C948C000C948C000C948C000C948C0020
:100030000C948C000C948C000C948C000C948C0010
:100040000C9445070C948C000C94D0090C94020A73
:100050000C948C000C948C000C948C000C948C00F0
:100060000C948C000C948C0000000008000201002D
:100070000003040700000000000000000102040863
:100080001020408001020408102001020408102002
:10009000040404040404040402020202020203032E
:1000A00003030303000000002300260029000000D2
:1000B0000000250028002B0000000000240027007D
:1000C0002A00A901320AB40111241FBECFEFD8E0E3
:1000D000DEBFCDBF12E0A0E0B1E0E8EEF9E102C082
:1000E00005900D92A831B107D9F723E0A8E1B2E05D
:1000F00001C01D92AB34B207E1F710E0C6ECD0E0CE
:1001000004C02297FE010E94B30BC23CD107C9F77D
:100110000E94760A0C94E70C0C94000026E040E460
:1001200052E46FE070E08AEA92E00E946E092AEAE7
:1001300032E040E16CE172E08BE492E00E94DE028A
:1001400040E052EC61E070E08CE292E00E94B70681
:1001500010921C0210921D0260E171E08CE292E0AC
:100160000C94C90AFC01DB0112968D919C911397A6
:100170009383828314964D915D916D917C91179735
:10018000448355836683778318964D915D916D9175
:100190007C911B9740875187628773878BEE91E034
:1001A000918380831C968C911C9784871D968C91DB
:1001B0001D9785871E968D919C911F97978786879F
:1001C00050968C915097808B51968D919C9152971F
:1001D000928B818B53968D919C915497948B838BAA
:1001E00055968C915597858B56968D919C915797E6
:1001F000978B868B58968D919C915997918F808F74
:100200005A968D919C915B97938F828F5C968D917E
:100210009C915D97958F848F5E969C915E97868D5D
:1002200090FB80F9868F5E969C919695917090FBDD
:1002300081F9868F0895EF92FF920F931F93CF93CA
:10024000DF93CDB7DEB76F970FB6F894DEBF0FBE62
:10025000CDBF80911D028E3011F410921D0280914D
:100260001D028F5F80931D028FE00E94D60797FDCD
:100270000196E0911D02F0E0E45EFD4F95958795B3
:100280008F3F910519F010F08FEF90E081836CE2C1
:1002900072E0CE0101960E94B200BE016F5F7F4FF7
:1002A0008BE492E00E944503CE0101960E942E0647
:1002B0006CE171E08CE292E00E94C30A6FE171E0B0
:1002C0008CE292E00E94C30A4AE050E060911C0276
:1002D0008CE292E00E94410B63E271E08CE292E0DA
:1002E0000E94C30A4AE050E060911D028CE292E055
:1002F0000E94410B8EE1E82E82E0F82E00E010E033
:1003000080911D0290E00817190794F465E271E0EE
:100310008CE292E00E94C30AF70161917F014AE0FA
:1003200050E08CE292E00E94410B0F5F1F4FE8CF3C
:100330008CE292E00E94C50A6F960FB6F894DEBF79
:100340000FBECDBFDF91CF911F910F91FF90EF9026
:1003500008958BE492E00E94F70220E043E062E01F
:100360008CE292E00C9487068CE292E00E942E06CA
:100370008BE492E00C94FB02EF92FF920F931F9399
:10038000CF93DF93CDB7DEB76F970FB6F894DEBF8C
:100390000FBECDBF80910E01882309F497C00E9443
:1003A0008F07009118021091190220911A023091C2
:1003B0001B020617170728073907A8F06CE272E03E
:1003C000CE0101960E94B200BE016F5F7F4F8BE4A9
:1003D00092E00E94FB03182FCE0101960E942E0688
:1003E000112351F00EC067E271E08CE292E00E94AE
:1003F000C90A10921C024FC080914B028823F1F26F
:10040000D0C06AE371E08CE292E00E94C90A6CE419
:1004100071E08CE292E00E94C30A6FE171E08CE22D
:1004200092E00E94C30A4AE050E060911C028CE214
:1004300092E00E94410B63E271E08CE292E00E9444
:10044000C30A4AE050E060911D028CE292E00E94F3
:10045000410B3EE1E32E32E0F32E00E010E080910C
:100460001D0290E00817190794F465E271E08CE230
:1004700092E00E94C30AF70161917F014AE050E0D7
:100480008CE292E00E94410B0F5F1F4FE8CF8CE29D
:1004900092E00E94C50A0E941B010E948F070091F2
:1004A0000A0110910B0120910C0130910D01600F98
:1004B000711F821F931F609318027093190280931B
:1004C0001A0290931B0210920E016BC06FE471E050
:1004D0008CE292E00E94C90A6DE571E08CE292E044
:1004E0000E94C90A0E948F070091180210911902F8
:1004F00020911A0230911B020617170728073907A7
:1005000028F56AE771E08CE292E00E94C90A8091C6
:100510001C028F5F80931C0210921D020E941B011F
:100520000E948F0700910A0110910B0120910C018C
:1005300030910D01600F711F821F931F609318028D
:100540007093190280931A0290931B028AEA92E038
:100550000E948B08892B29F161EB71E08CE292E01B
:100560000E94C90A81E080930E010E948F070091CA
:100570000601109107012091080130910901600FD7
:10058000711F821F931F609318027093190280934A
:100590001A0290931B026AED71E08CE292E00E94D5
:1005A000C90A6F960FB6F894DEBF0FBECDBFDF91BC
:1005B000CF911F910F91FF90EF900895CF93DF930C
:1005C000EC017C836B834D833A832983842F90E0F5
:1005D0000E94B70B9F838E831B861C861D861F86F9
:1005E0001E86188A198A1882DF91CF910895FC011E
:1005F000178216820895CF93DF93EC018E819F813D
:10060000009711F00E944F0C1F821E82DF91CF9144
:10061000089524E030E080E090E0959587959595E9
:10062000879560FF02C0806401C080686695215094
:10063000310991F70895BF92CF92DF92EF92FF9226
:100640000F931F93CF93DF938C01B62E7A01C22FA5
:10065000D0E06A01CC0EDD1E6F700E940903F60126
:1006600080832196CE0DDF1D6B2D62956F70C801C2
:100670000E9409038883DF91CF911F910F91FF9012
:10068000EF90DF90CF90BF900895CF92DF92EF92DE
:10069000FF920F931F93CF93DF93EC01CD8024E063
:1006A000C29EC00111240E960E94B70B8C0180EFF0
:1006B000D8018C9311968C93119712968C93129764
:1006C00013968C9324E0A80162E0CE010E941B03E4
:1006D0008D81823011F0803149F426E0A80160E17B
:1006E000CE010E941B0368E0D62E02C056E0D52E34
:1006F0002D2DA8016D81CE010E941B03D394D394AC
:10070000E12CF12C8D8190E0E816F90614F5EB81CF
:10071000FC81EE0DFF1D8081C826823011F08031F2
:1007200041F42D2DA80160E1CE010E941B03D3945A
:10073000D394EB81FC81EE0DFF1D2D2DA80160816E
:10074000CE010E941B03D394D394BFEFEB1AFB0A94
:10075000D9CFE2E0CE1619F0F0E1CF1208C02D2D6E
:10076000A80160E1CE010E941B03D394D3942D2DE8
:10077000A8016C2DCE010E941B0378018D81B4E08D
:100780008B9FC00111240D969701201B310B8217FE
:1007900093076CF089819A81D7016D917D01DC010D
:1007A000ED91FC910190F081E02D0995E7CFC80112
:1007B000DF91CF911F910F91FF90EF90DF90CF903D
:1007C0000C944F0C603FA9F024E080E090E09595F8
:1007D0008795362F3370313011F4886003C0323082
:1007E00031F4877F66956695215081F708958FEFE4
:1007F000089580EF08951F93CF93DF93EC0129892B
:10080000211101C018828D8134E0839FC001112421
:100810000D9630E0821793070CF4A4C08AEA92E0A8
:100820000E948B08181619060CF09CC01B85898144
:100830009A81DC01ED91FC910680F781E02D111188
:100840001BC00995682FCE010E94E2038C87803F70
:1008500051F41B868E859F85892B51F01F861E863D
:1008600081E088837BC08F3FA1F381E08B8784C0C8
:1008700089898F5F898B80C00995682FCE010E947E
:10088000E2038D872E853F851B86803F11F08F3FC9
:1008900021F4232B09F066C06BC0B0E18B9FA0014F
:1008A00011245C855F70542B88892115310539F43A
:1008B000811105C0523019F481E090E03CC0503104
:1008C00029F4811103C081E0888B55C08111188AF9
:1008D00022303105A1F02330310581F1213031057D
:1008E00009F046C059878D81581307C082E090E017
:1008F0009F878E8718865A8739C0198633C08885A6
:100900009985891788F4EE81FF81E80FF11D5083E6
:100910009885EE81FF81E90FF11D8A85208182276C
:100920008A879F5F9887198A98858985981323C03D
:10093000188683E090E09F878E8718C08A8585138C
:100940000FC04D8150E06E817F818B819C810E9420
:10095000DE0C198618861F861E861882198A0CC01E
:10096000198618861F861E8681E08883198A03C02F
:1009700089898F5F898B10E0812FDF91CF911F9143
:10098000089520919F023091A00228173907B9F4E9
:1009900090915D0280915E02981789F0E0915D026E
:1009A000F0E0E15AFD4F808120915D0230E02F5F41
:1009B0003F4F2F73332720935D0290E008958FEF10
:1009C0009FEF08951F93CF93DF93DC015C968D9189
:1009D0009C915D97009749F481E090E013969C9379
:1009E0008E93129780E090E03BC05196ED91FC9180
:1009F000529750962C915097322F30951FB75E9694
:100A00004C915E9741FB772770F941FD6095F89412
:100A10004081772311F0422B01C043234083EC0136
:100A20002197F1F748E0508160FF02C0522B01C0CE
:100A300053235083EC012197F1F76695415099F7C4
:100A40008081772311F0832301C0822B80831FBF15
:100A50005C968D919C915D970197F1F781E090E014
:100A6000DF91CF911F91089520919F023091A002B4
:100A70002817390781F490915D0280915E029817E2
:100A800051F0E0915D02F0E0E15AFD4F808199273D
:100A900087FD909508958FEF9FEF089520919F0215
:100AA0003091A0022817390771F480915E022091DD
:100AB0005D0290E0805C9F4F821B910960E470E0D2
:100AC0000E94480B089580E090E0089520919F02D5
:100AD0003091A0022817390739F48FB7F894109293
:100AE0005E0210925D028FBF0895E0919F02F09127
:100AF000A002E817F90769F4A389B4899C91858954
:100B0000809589238C931092A00210929F0281E01D
:100B1000089580E00895CF93DF93EC018A8D9B8D3B
:100B2000892BF1F080919F029091A0028C179D0774
:100B3000B9F0009711F00E9475058E8D8E7F8E8F13
:100B400010925E0210925D02D093A002C0939F02A9
:100B5000EB89FC8980819D89892B808381E001C09C
:100B600080E0DF91CF9108951F920F920FB60F9200
:100B700011242F933F934F935F936F937F938F93A2
:100B80009F93AF93BF93EF93FF93E0919F02F091F8
:100B9000A002309709F451C0868DA685B78595854A
:100BA00081FF04C08C91892329F447C08C9189234B
:100BB00009F043C0A389B4899C91858980958923D4
:100BC0008C93868997890197F1F7208D318DA685C1
:100BD000B785758558E040E0C9010197F1F7842F8A
:100BE00090E095958795482F6C91672309F04068B0
:100BF000515091F7868D81FD409580915E0290E085
:100C000001968F73992720915D02281749F0A091D2
:100C10005E02B0E0A15ABD4F4C9380935E0203C0C8
:100C2000868D8160868F828D938D0197F1F7A389E0
:100C3000B4898C919589892B8C93FF91EF91BF9109
:100C4000AF919F918F917F916F915F914F913F9164
:100C50002F910F900FBE0F901F9018952BEE31E043
:100C6000FC01318320830C9475051F93CF93DF9390
:100C7000EC01162F6E8D6695617081E06827812FDB
:100C80000E94550861E0812F0E941C08812F90E08E
:100C9000FC01E458FF4FE491E88BFC01E057FF4F63
:100CA000E491F0E0EE0FFF1FE255FF4F8591949124
:100CB0009A8B898BDF91CF911F9108951F93CF93CA
:100CC000DF93EC01162F60E0812F0E941C088E8DAF
:100CD00081FD04C061E0812F0E9455081C87812F8F
:100CE00090E0FC01E458FF4FE491ED87FC01E057F0
:100CF000FF4FE491F0E0EE0FFF1FEC55FF4F8591A1
:100D000094919F878E87DF91CF911F910895FF92D5
:100D10000F931F93CF93DF93EC01F62E522F1B827C
:100D20001A8208EE13E020E030E00C831D832E834E
:100D30003F838BEE91E0998388831F8A1E8A198EE8
:100D4000188E1B8E1A8E1D8E1C8E8E8D8E7F50FBE4
:100D500081F98E8F642FCE010E9435066F2DCE0152
:100D6000DF91CF911F910F91FF900C945E06CF936E
:100D7000DF93EC019A01AB011B8E1A8E198E188E2F
:100D80001F8A1E8A60E079E08DE390E00E947E0B6E
:100D9000C9012430310520F0B9016350710902C046
:100DA00061E070E07D8F6C8FEC85E63108F068C003
:100DB000B901769567956431710518F06351710931
:100DC00002C061E070E07F8B6E8B069718F0C9015E
:100DD000059702C081E090E0998F888FC901880F44
:100DE000991F820F931F96958795969587958D30BD
:100DF000910510F00C9702C081E090E09B8F8A8FE4
:100E000020916800E83050F091E0EE3008F490E076
:100E100081E001C0880F9A95EAF701C084E0822B37
:100E2000809368002C85283038F02E3040F0263131
:100E300048F48CE690E008C08DE690E005C08BE6B3
:100E400090E002C080E090E09C8B8B8B283030F4E7
:100E500081E001C0880F2A95EAF70DC0822F90E04B
:100E60002E3010F4089701C00E9791E001C0990F41
:100E70008A95EAF7892F8D8B8C8D9D8D0197F1F7DF
:100E8000CE01DF91CF910C948B051F920F920FB67C
:100E90000F9211242F933F938F939F93AF93BF9300
:100EA0008091A2029091A302A091A402B091A50208
:100EB0003091A10223E0230F2D3720F40196A11DCC
:100EC000B11D05C026E8230F0296A11DB11D209378
:100ED000A1028093A2029093A302A093A402B093D4
:100EE000A5028091A6029091A702A091A802B091BC
:100EF000A9020196A11DB11D8093A6029093A7029D
:100F0000A093A802B093A902BF91AF919F918F9136
:100F10003F912F910F900FBE0F901F9018952FB7F4
:100F2000F8946091A2027091A3028091A402909122
:100F3000A5022FBF0895789484B5826084BD84B5DE
:100F4000816084BD85B5826085BD85B5816085BDC4
:100F5000EEE6F0E0808181608083E1E8F0E01082DD
:100F6000808182608083808181608083E0E8F0E01E
:100F7000808181608083E1EBF0E080818460808308
:100F8000E0EBF0E0808181608083EAE7F0E080813F
:100F9000846080838081826080838081816080839F
:100FA0008081806880831092C10008958E3008F09F
:100FB0008E50877020910F0190E4299F9001112499
:100FC000822B80937C0080917A00806480937A00E9
:100FD00080917A0086FDFCCF809178002091790085
:100FE00090E0922B0895833081F028F4813099F0BD
:100FF0008230A1F008958730A9F08830B9F08430AC
:10100000D1F4809180008F7D03C0809180008F7724
:1010100080938000089584B58F7702C084B58F7D5A
:1010200084BD08958091B0008F7703C08091B00097
:101030008F7D8093B0000895CF93DF9390E0FC0103
:10104000E458FF4F2491FC01E057FF4F849188231F
:1010500049F190E0880F991FFC01E854FF4FA591DA
:10106000B49182559F4FFC01C591D4919FB76111F6
:1010700008C0F8948C91209582238C9388818223D8
:101080000AC0623051F4F8948C91322F309583234A
:101090008C938881822B888304C0F8948C91822B56
:1010A0008C939FBFDF91CF9108950F931F93CF93A0
:1010B000DF931F92CDB7DEB7282F30E0F901E85952
:1010C000FF4F8491F901E458FF4F1491F901E05763
:1010D000FF4F04910023C9F0882321F069830E9407
:1010E000F3076981E02FF0E0EE0FFF1FE255FF4F9D
:1010F000A591B4919FB7F8948C91611103C010959C
:10110000812301C0812B8C939FBF0F90DF91CF91E2
:101110001F910F910895FC01818D228D90E0805CDC
:101120009F4F821B91098F7399270895FC01918D20
:10113000828D981731F0828DE80FF11D858D90E03A
:1011400008958FEF9FEF0895FC01918D828D981780
:1011500061F0828DDF01A80FB11D5D968C91928D9B
:101160009F5F9F73928F90E008958FEF9FEF089598
:1011700088E29AE0892B49F080E090E0892B29F001
:101180000E94280A81110C9400000895FC01848DAE
:10119000DF01A80FB11DA35ABF4F2C91848D90E0A1
:1011A00001968F739927848FA689B7892C93A0897C
:1011B000B1898C9180648C93938D848D981306C033
:1011C0000288F389E02D80818F7D80830895CF93FD
:1011D000DF93EC01888D8823C9F0EA89FB8980813F
:1011E00085FD05C0A889B9898C9186FD0FC00FB611
:1011F00007FCF5CF808185FFF2CFA889B9898C9152
:1012000085FFEDCFCE010E94C608E7CFDF91CF91D9
:101210000895CF92DF92FF920F931F93CF93DF93A6
:101220001F92CDB7DEB76C0181E0D60158968C9342
:1012300058975B969C915B975C968C915C97981302
:1012400007C05096ED91FC915197808185FD2EC08D
:10125000F601038D10E00F5F1F4F0F731127F02E63
:10126000F601848DF81211C00FB607FCF9CFD60134
:101270005096ED91FC915197808185FFF1CFC60189
:1012800069830E94C6086981EBCF838DE80FF11D49
:10129000E35AFF4F6083D6015B960C935B9752969F
:1012A000ED91FC915397808180620CC0D6015696D7
:1012B000ED91FC91579760835096ED91FC91519779
:1012C00080818064808381E090E00F90DF91CF91F6
:1012D0001F910F91FF90DF90CF900895BF92CF9212
:1012E000DF92EF92FF92CF93DF93EC016A017B01D3
:1012F000B22EE889F98982E08083411581EE580792
:1013000061057105A1F060E079E08DE390E0A7014F
:1013100096010E945C0B21503109410951095695F3
:10132000479537952795211580E1380798F0E8898A
:10133000F989108260E874E88EE190E0A7019601D7
:101340000E945C0B2150310941095109569547957E
:1013500037952795EC85FD853083EE85FF852083C5
:10136000188EEC89FD89B082EA89FB8980818061D1
:101370008083EA89FB89808188608083EA89FB8990
:10138000808180688083EA89FB8980818F7D80836A
:10139000DF91CF91FF90EF90DF90CF90BF900895B5
:1013A0001F920F920FB60F9211242F938F939F933A
:1013B000EF93FF93E091BA02F091BB028081E0913C
:1013C000C002F091C10282FD12C090818091C302DF
:1013D0008F5F8F732091C402821751F0E091C30296
:1013E000F0E0E655FD4F958F8093C30201C08081E8
:1013F000FF91EF919F918F912F910F900FBE0F90C2
:101400001F9018951F920F920FB60F9211242F93D1
:101410003F934F935F936F937F938F939F93AF937C
:10142000BF93EF93FF938AEA92E00E94C608FF9170
:10143000EF91BF91AF919F918F917F916F915F914C
:101440004F913F912F910F900FBE0F901F901895C5
:101450008AEA92E00E948B0821E0892B09F420E0BF
:10146000822F08951092AD021092AC0288EE93E0A4
:10147000A0E0B0E08093AE029093AF02A093B002E0
:10148000B093B1028BEF91E09093AB028093AA02EC
:1014900085EC90E09093B7028093B60284EC90E0E4
:1014A0009093B9028093B80280EC90E09093BB02D5
:1014B0008093BA0281EC90E09093BD028093BC02CD
:1014C00082EC90E09093BF028093BE0286EC90E0A5
:1014D0009093C1028093C0021092C3021092C40282
:1014E0001092C5021092C602089508950E949B07AB
:1014F0000E94750A0E948E00C8EBD8E00E94BC01D1
:101500002097E1F30E94B808F9CFCF92DF92EF92D3
:10151000FF920F931F93CF93DF936C017A01EB013E
:10152000E60EF71E00E010E0CE15DF0561F06991D0
:10153000D601ED91FC910190F081E02DC601099555
:10154000080F191FF1CFC801DF91CF911F910F91A3
:10155000FF90EF90DF90CF9008956115710581F0B5
:10156000DB010D900020E9F7AD0141505109461B08
:10157000570BDC01ED91FC910280F381E02D099481
:1015800080E090E008950C94AD0A67E072E00C945E
:10159000AD0A0F931F93CF93DF93EC010E94AD0A26
:1015A0008C01CE010E94C50A800F911FDF91CF915F
:1015B0001F910F9108958F929F92AF92BF92CF92F9
:1015C000DF92EF92FF920F931F93CF93DF93CDB7EC
:1015D000DEB7A1970FB6F894DEBF0FBECDBF7C017A
:1015E000C42EE52FCB01D22E19A221E02D1510F02B
:1015F0002AE0D22E8E010F5D1F4F8D2C912CA12C35
:10160000B12C6C2D7E2FA50194010E945C0B8C2DBA
:10161000D29E80191124015011098A3014F4805D82
:1016200001C0895CF8018083211531054105510510
:1016300021F0C22EE32FCA01E4CFB801C7010E94F6
:10164000AD0AA1960FB6F894DEBF0FBECDBFDF91F5
:10165000CF911F910F91FF90EF90DF90CF90BF90AF
:10166000AF909F908F9008952115310541F4DC01D2
:10167000ED91FC910190F081E02D642F09940C9480
:10168000DB0A9A01462F50E060E070E00C94340BC6
:1016900097FB072E16F4009407D077FD09D00E941F
:1016A0009D0B07FC05D03EF4909581959F4F0895C2
:1016B000709561957F4F0895A1E21A2EAA1BBB1B5E
:1016C000FD010DC0AA1FBB1FEE1FFF1FA217B3070E
:1016D000E407F50720F0A21BB30BE40BF50B661F24
:1016E000771F881F991F1A9469F7609570958095E8
:1016F00090959B01AC01BD01CF010895052E97FB8C
:101700001EF400940E94950B57FD07D00E945C0BBD
:1017100007FC03D04EF40C94950B509540953095F2
:1017200021953F4F4F4F5F4F08959095809570954D
:1017300061957F4F8F4F9F4F0895AA1BBB1B51E1AF
:1017400007C0AA1FBB1FA617B70710F0A61BB70B31
:10175000881F991F5A95A9F780959095BC01CD01D6
:101760000895EE0FFF1F0590F491E02D0994CF939B
:10177000DF938230910510F482E090E0E09149031C
:10178000F0914A0320E030E0A0E0B0E0309739F17A
:101790004081518148175907B8F04817590771F42B
:1017A00082819381109729F013969C938E931297C0
:1017B0002CC090934A038093490327C0211531051B
:1017C00031F04217530718F0A901DB0101C0EF0106
:1017D0009A01BD01DF010280F381E02DD7CF2115F1
:1017E0003105F9F0281B390B2430310580F48A814A
:1017F0009B816115710521F0FB019383828304C0F5
:1018000090934A0380934903FE01329644C0FE013F
:10181000E20FF31F8193919322503109398328837A
:101820003AC02091470330914803232B41F4209183
:101830000201309103013093480320934703209124
:101840000001309101012115310541F42DB73EB75A
:101850004091040150910501241B350BE091470391
:10186000F0914803E217F307A0F42E1B3F0B281753
:10187000390778F0AC014E5F5F4F2417350748F009
:101880004E0F5F1F509348034093470381939193FA
:1018900002C0E0E0F0E0CF01DF91CF910895CF9357
:1018A000DF93009709F487C0FC01329713821282FC
:1018B000C0914903D0914A03209781F4208131815E
:1018C000280F391F8091470390914803821793078F
:1018D00079F5F0934803E09347036DC0DE0120E003
:1018E00030E0AE17BF0750F412964D915C911397FC
:1018F0009D014115510509F1DA01F3CFB383A283AC
:1019000040815181840F951F8A179B0771F48D9137
:101910009C911197840F951F029691838083129654
:101920008D919C911397938382832115310529F41E
:10193000F0934A03E09349033EC0D9011396FC9308
:10194000EE9312974D915D91A40FB51FEA17FB0717
:1019500079F480819181840F951F0296D9011196A7
:101960009C938E938281938113969C938E9312976E
:10197000E0E0F0E08A819B81009719F0FE01EC0124
:10198000F9CFCE01029628813981820F931F2091D1
:101990004703309148032817390769F4309729F431
:1019A00010924A031092490302C013821282D0930C
:1019B0004803C0934703DF91CF910895FB01DC01F9
:1019C00002C001900D9241505040D8F7089510E0A8
:1019D000C6ECD0E004C0FE010E94B30B2296C83CC6
:0819E000D107C9F7F894FFCF0D
:1019E80000004B038000E8030000C800000001016C
:1019F800696E697469616C697A656400747800203D
:101A0800732000206E200072656365697665722018
:101A180074696D6564206F757400746573744461CE
:101A28007461207265636569766564007278007315
:101A3800746174653A206D617374657200776169C9
:101A480074696E6720666F72207061636B657420BD
:101A5800746F20617272697665006E6F20706163C1
:101A68006B65742072656365697665642074696D59
:101A7800656F7574206F6363757265642C20736578
:101A88006E64696E67206E6577207061636B65743C
:101A9800007061636B657420617272697665642C8D
:101AA8002072657475726E696E6720746F20736C2E
:101AB8006176652073746174650073746174653A46
:101AC80020736C6176650000000000E204850A4E10
:101AD80005C10434056605000000000909850A8B64
:101AE80008A4089608E7080D0A006E616E00696E82
:081AF80066006F7666002E0007
:00000001FF
