:100000000C9464000C948C000C948C000C94800371
:100010000C9480030C9480030C948C000C948C0042
:100020000C948C000C948C000C948C000C948C0020
:100030000C948C000C948C000C948C000C948C0010
:100040000C9411050C948C000C94BE070C94F007D2
:100050000C948C000C948C000C948C000C948C00F0
:100060000C948C000C948C0000000008000201002D
:100070000003040700000000000000000102040863
:100080001020408001020408102001020408102002
:10009000040404040404040402020202020203032E
:1000A00003030303000000002300260029000000D2
:1000B0000000250028002B0000000000240027007D
:1000C0002A00700120087B0111241FBECFEFD8E069
:1000D000DEBFCDBF11E0A0E0B1E0E4EFF5E102C08A
:1000E00005900D92A235B107D9F722E0A2E5B1E063
:1000F00001C01D92AB37B207E1F710E0C6ECD0E0CB
:1001000004C02297FE010E94B909C23CD107C9F779
:100110000E9464080C94ED0A0C94000026E040E470
:1001200052E46FE070E08AED91E00E945C072AEDF6
:1001300031E04AE062E571E08BE791E00E948301E3
:1001400040E855E260E070E08CE591E00C948304B7
:10015000EF92FF920F931F93CF93DF93CDB7DEB74C
:100160006F970FB6F894DEBF0FBECDBF64E670E0A8
:1001700080E090E00E947E0504E211E080915E0143
:1001800090915F019C838B838091600190916101CC
:10019000A0916201B09163018D839E83AF83B88784
:1001A0008091640190916501A0916601B091670111
:1001B00089879A87AB87BC871A83098380916801F6
:1001C0008D87809169018E8780916A0190916B0182
:1001D000988B8F8780916C01898B80916D019091B4
:1001E0006E019B8B8A8B80916F01909170019D8B2A
:1001F0008C8B809171018E8B809172019091730133
:10020000988F8F8B80917401909175019A8F898F4F
:1002100080917601909177019C8F8B8F80917801EE
:10022000909179019E8F8D8F90917A018F8D90FBA7
:1002300080F99695917090FB81F98F8FBE016F5F69
:100240007F4F8BE791E00E94C701F82ECE01019607
:100250000E94FA03F11010C080917B01882309F4F9
:100260008DCF66E071E08CE591E00E94BE088CE5E0
:1002700091E00E94BA0827C002E511E0F1E00C35D8
:100280001F0709F18CE591E00E94BA0865E171E071
:100290008CE591E00E94B1087801F80161918F012D
:1002A0008CE591E00E94B3086EE171E08CE591E08D
:1002B0000E94B1084AE050E0F70160818CE591E0CE
:1002C0000E943609DBCF6F960FB6F894DEBF0FBEE3
:1002D000CDBFDF91CF911F910F91FF90EF900895C7
:1002E0008BE791E00E949C0120E043E062E08CE516
:1002F00091E00C9453048CE591E00E94FA038BE7A3
:1003000091E00C94A001CF93DF93EC017C836B838D
:100310004D833A832983842F90E00E94BD099F83F7
:100320008E831B861C861D861F861E86188A198A48
:100330001882DF91CF910895FC01178216820895EB
:10034000CF93DF93EC018E819F81009711F00E9483
:10035000550A1F821E82DF91CF910895603FA9F058
:1003600024E080E090E095958795362F337031300A
:1003700011F4886003C0323031F4877F669566954A
:10038000215081F708958FEF089580EF08951F930E
:10039000CF93DF93EC012989211101C018828D814F
:1003A00034E0839FC00111240D9630E0821793073B
:1003B0000CF4A4C08AED91E00E9479061816190683
:1003C0000CF09CC01B8589819A81DC01ED91FC9128
:1003D0000680F781E02D11111BC00995682FCE0111
:1003E0000E94AE018C87803F51F41B868E859F85CD
:1003F000892B51F01F861E8681E088837BC08F3F4A
:10040000A1F381E08B8784C089898F5F898B80C04D
:100410000995682FCE010E94AE018D872E853F85FC
:100420001B86803F11F08F3F21F4232B09F066C01B
:100430006BC0B0E18B9FA00111245C855F70542BD1
:1004400088892115310539F4811105C0523019F41C
:1004500081E090E03CC0503129F4811103C081E07B
:10046000888B55C08111188A22303105A1F02330C4
:10047000310581F12130310509F046C059878D8160
:10048000581307C082E090E09F878E8718865A87AE
:1004900039C0198633C088859985891788F4EE811B
:1004A000FF81E80FF11D50839885EE81FF81E90FF0
:1004B000F11D8A85208182278A879F5F9887198A04
:1004C00098858985981323C0188683E090E09F87DC
:1004D0008E8718C08A8585130FC04D8150E06E81CC
:1004E0007F818B819C810E94E40A198618861F8671
:1004F0001E861882198A0CC0198618861F861E86C9
:1005000081E08883198A03C089898F5F898B10E015
:10051000812FDF91CF911F9108952091CF013091CC
:10052000D00128173907B9F490918D0180918E017F
:10053000981789F0E0918D01F0E0E157FE4F80813E
:1005400020918D0130E02F5F3F4F2F733327209391
:100550008D0190E008958FEF9FEF08951F93CF9343
:10056000DF93DC015C968D919C915D97009749F437
:1005700081E090E013969C938E93129780E090E038
:100580003BC05196ED91FC91529750962C9150970B
:10059000322F30951FB75E964C915E9741FB7727BF
:1005A00070F941FD6095F8944081772311F0422B5A
:1005B00001C043234083EC012197F1F748E05081CB
:1005C00060FF02C0522B01C053235083EC012197DE
:1005D000F1F76695415099F78081772311F08323D5
:1005E00001C0822B80831FBF5C968D919C915D978B
:1005F0000197F1F781E090E0DF91CF911F9108958D
:100600002091CF013091D0012817390781F49091C2
:100610008D0180918E01981751F0E0918D01F0E0ED
:10062000E157FE4F8081992787FD909508958FEFC0
:100630009FEF08952091CF013091D00128173907FD
:1006400071F480918E0120918D0190E0805C9F4F2C
:10065000821B910960E470E00E944E09089580E0D9
:1006600090E008952091CF013091D00128173907EB
:1006700039F48FB7F89410928E0110928D018FBFCC
:100680000895E091CF01F091D001E817F90769F4DE
:10069000A389B4899C918589809589238C93109234
:1006A000D0011092CF0181E0089580E00895CF93AA
:1006B000DF93EC018A8D9B8D892BF1F08091CF0126
:1006C0009091D0018C179D07B9F0009711F00E940E
:1006D00041038E8D8E7F8E8F10928E0110928D0130
:1006E000D093D001C093CF01EB89FC8980819D8993
:1006F000892B808381E001C080E0DF91CF91089554
:100700001F920F920FB60F9211242F933F934F9386
:100710005F936F937F938F939F93AF93BF93EF9369
:10072000FF93E091CF01F091D001309709F451C0CF
:10073000868DA685B785958581FF04C08C91892318
:1007400029F447C08C91892309F043C0A389B48957
:100750009C918589809589238C93868997890197B7
:10076000F1F7208D318DA685B785758558E040E07D
:10077000C9010197F1F7842F90E095958795482F4F
:100780006C91672309F04068515091F7868D81FD87
:10079000409580918E0190E001968F73992720916A
:1007A0008D01281749F0A0918E01B0E0A157BE4FEE
:1007B0004C9380938E0103C0868D8160868F828DDD
:1007C000938D0197F1F7A389B4898C919589892B31
:1007D0008C93FF91EF91BF91AF919F918F917F91FA
:1007E0006F915F914F913F912F910F900FBE0F909E
:1007F0001F90189524E231E0FC01318320830C9492
:1008000041031F93CF93DF93EC01162F6E8D6695F6
:10081000617081E06827812F0E94430661E0812F8B
:100820000E940A06812F90E0FC01E458FF4FE491FA
:10083000E88BFC01E057FF4FE491F0E0EE0FFF1F63
:10084000E255FF4F859194919A8B898BDF91CF91DF
:100850001F9108951F93CF93DF93EC01162F60E053
:10086000812F0E940A068E8D81FD04C061E0812FD8
:100870000E9443061C87812F90E0FC01E458FF4F43
:10088000E491ED87FC01E057FF4FE491F0E0EE0FBB
:10089000FF1FEC55FF4F859194919F878E87DF91C5
:1008A000CF911F910895FF920F931F93CF93DF93E2
:1008B000EC01F62E522F1B821A8208EE13E020E084
:1008C00030E00C831D832E833F8384E291E0998383
:1008D00088831F8A1E8A198E188E1B8E1A8E1D8E73
:1008E0001C8E8E8D8E7F50FB81F98E8F642FCE01F2
:1008F0000E9401046F2DCE01DF91CF911F910F91C6
:10090000FF900C942A04CF93DF93EC019A01AB0182
:100910001B8E1A8E198E188E1F8A1E8A60E079E04F
:100920008DE390E00E948409C9012430310520F054
:10093000B9016350710902C061E070E07D8F6C8F76
:10094000EC85E63108F068C0B901769567956431A9
:10095000710518F06351710902C061E070E07F8B8E
:100960006E8B069718F0C901059702C081E090E0F0
:10097000998F888FC901880F991F820F931F9695B1
:100980008795969587958D30910510F00C9702C04C
:1009900081E090E09B8F8A8F20916800E83050F0D2
:1009A00091E0EE3008F490E081E001C0880F9A9564
:1009B000EAF701C084E0822B809368002C85283000
:1009C00038F02E3040F0263148F48CE690E008C034
:1009D0008DE690E005C08BE690E002C080E090E0FC
:1009E0009C8B8B8B283030F481E001C0880F2A95D6
:1009F000EAF70DC0822F90E02E3010F4089701C066
:100A00000E9791E001C0990F8A95EAF7892F8D8B97
:100A10008C8D9D8D0197F1F7CE01DF91CF910C94D4
:100A200057031F920F920FB60F9211242F933F93EB
:100A30008F939F93AF93BF938091D2019091D301F5
:100A4000A091D401B091D5013091D10123E0230FC1
:100A50002D3720F40196A11DB11D05C026E8230FF6
:100A60000296A11DB11D2093D1018093D2019093D4
:100A7000D301A093D401B093D5018091D601909178
:100A8000D701A091D801B091D9010196A11DB11D46
:100A90008093D6019093D701A093D801B093D90148
:100AA000BF91AF919F918F913F912F910F900FBE6A
:100AB0000F901F9018953FB7F8948091D6019091B0
:100AC000D701A091D801B091D90126B5A89B05C046
:100AD0002F3F19F00196A11DB11D3FBF6627782F4A
:100AE000892F9A2F620F711D811D911D42E0660FA3
:100AF000771F881F991F4A95D1F70895CF92DF92EB
:100B0000EF92FF92CF93DF936B017C010E945B0514
:100B1000EB01C114D104E104F10489F00E944D09F4
:100B20000E945B056C1B7D0B683E734090F381E077
:100B3000C81AD108E108F108C851DC4FEACFDF91AB
:100B4000CF91FF90EF90DF90CF900895789484B587
:100B5000826084BD84B5816084BD85B5826085BDB9
:100B600085B5816085BDEEE6F0E08081816080839F
:100B7000E1E8F0E010828081826080838081816082
:100B80008083E0E8F0E0808181608083E1EBF0E049
:100B9000808184608083E0EBF0E0808181608083ED
:100BA000EAE7F0E0808184608083808182608083D6
:100BB0008081816080838081806880831092C10001
:100BC0000895833081F028F4813099F08230A1F0CB
:100BD00008958730A9F08830B9F08430D1F480913D
:100BE00080008F7D03C0809180008F77809380008C
:100BF000089584B58F7702C084B58F7D84BD089534
:100C00008091B0008F7703C08091B0008F7D80937A
:100C1000B0000895CF93DF9390E0FC01E458FF4FBC
:100C20002491FC01E057FF4F8491882349F190E023
:100C3000880F991FFC01E854FF4FA591B49182558C
:100C40009F4FFC01C591D4919FB7611108C0F894E2
:100C50008C91209582238C93888182230AC06230F4
:100C600051F4F8948C91322F309583238C938881A2
:100C7000822B888304C0F8948C91822B8C939FBF25
:100C8000DF91CF9108950F931F93CF93DF931F921E
:100C9000CDB7DEB7282F30E0F901E859FF4F849136
:100CA000F901E458FF4F1491F901E057FF4F049107
:100CB0000023C9F0882321F069830E94E10569813E
:100CC000E02FF0E0EE0FFF1FE255FF4FA591B4912A
:100CD0009FB7F8948C91611103C01095812301C0D6
:100CE000812B8C939FBF0F90DF91CF911F910F911C
:100CF0000895FC01818D228D90E0805C9F4F821BC6
:100D000091098F7399270895FC01918D828D981711
:100D100031F0828DE80FF11D858D90E008958FEF01
:100D20009FEF0895FC01918D828D981761F0828D5F
:100D3000DF01A80FB11D5D968C91928D9F5F9F730F
:100D4000928F90E008958FEF9FEF089586E198E0ED
:100D5000892B49F080E090E0892B29F00E94160849
:100D600081110C9400000895FC01848DDF01A80F0F
:100D7000B11DA35ABF4F2C91848D90E001968F73C3
:100D80009927848FA689B7892C93A089B1898C91E2
:100D900080648C93938D848D981306C00288F389A8
:100DA000E02D80818F7D80830895CF93DF93EC01C8
:100DB000888D8823C9F0EA89FB89808185FD05C07B
:100DC000A889B9898C9186FD0FC00FB607FCF5CFB5
:100DD000808185FFF2CFA889B9898C9185FFEDCFFD
:100DE000CE010E94B406E7CFDF91CF910895CF9254
:100DF000DF92FF920F931F93CF93DF931F92CDB794
:100E0000DEB76C0181E0D60158968C9358975B96BB
:100E10009C915B975C968C915C97981307C0509659
:100E2000ED91FC915197808185FD2EC0F601038DD7
:100E300010E00F5F1F4F0F731127F02EF601848D06
:100E4000F81211C00FB607FCF9CFD6015096ED91FC
:100E5000FC915197808185FFF1CFC60169830E9483
:100E6000B4066981EBCF838DE80FF11DE35AFF4F84
:100E70006083D6015B960C935B975296ED91FC9143
:100E80005397808180620CC0D6015696ED91FC91FB
:100E9000579760835096ED91FC91519780818064C3
:100EA000808381E090E00F90DF91CF911F910F91AF
:100EB000FF90DF90CF900895BF92CF92DF92EF9294
:100EC000FF92CF93DF93EC016A017B01B22EE88998
:100ED000F98982E08083411581EE5807610571052B
:100EE000A1F060E079E08DE390E0A70196010E9417
:100EF00062092150310941095109569547953795A5
:100F00002795211580E1380798F0E889F989108242
:100F100060E874E88EE190E0A70196010E94620902
:100F20002150310941095109569547953795279523
:100F3000EC85FD853083EE85FF852083188EEC8956
:100F4000FD89B082EA89FB89808180618083EA899A
:100F5000FB89808188608083EA89FB898081806841
:100F60008083EA89FB8980818F7D8083DF91CF91A7
:100F7000FF90EF90DF90CF90BF9008951F920F9257
:100F80000FB60F9211242F938F939F93EF93FF939C
:100F9000E091EA01F091EB018081E091F001F091A4
:100FA000F10182FD12C090818091F3018F5F8F73F8
:100FB0002091F401821751F0E091F301F0E0E65244
:100FC000FE4F958F8093F30101C08081FF91EF91D7
:100FD0009F918F912F910F900FBE0F901F9018959A
:100FE0001F920F920FB60F9211242F933F934F939E
:100FF0005F936F937F938F939F93AF93BF93EF9381
:10100000FF938AED91E00E94B406FF91EF91BF91AA
:10101000AF919F918F917F916F915F914F913F9190
:101020002F910F900FBE0F901F9018958AED91E0B1
:101030000E94790621E0892B09F420E0822F08958F
:101040001092DD011092DC0188EE93E0A0E0B0E0A8
:101050008093DE019093DF01A093E001B093E10162
:1010600084E391E09093DB018093DA0185EC90E0DA
:101070009093E7018093E60184EC90E09093E9017E
:101080008093E80180EC90E09093EB018093EA017B
:1010900081EC90E09093ED018093EC0182EC90E084
:1010A0009093EF018093EE0186EC90E09093F10134
:1010B0008093F0011092F3011092F4011092F50167
:1010C0001092F601089508950E94A6050E946308F3
:1010D0000E948E00C6EAD6E00E94A8002097E1F3A5
:1010E0000E94A606F9CFCF92DF92EF92FF920F9364
:1010F0001F93CF93DF936C017A01EB01E60EF71E8D
:1011000000E010E0CE15DF0561F06991D601ED91A8
:10111000FC910190F081E02DC6010995080F191F7F
:10112000F1CFC801DF91CF911F910F91FF90EF9008
:10113000DF90CF9008956115710581F0DB010D906E
:101140000020E9F7AD0141505109461B570BDC0166
:10115000ED91FC910280F381E02D099480E090E014
:1011600008950C949B08DC01ED91FC910190F081B5
:10117000E02D099460E471E00C949B080F931F9399
:10118000CF93DF93EC010E949B088C01CE010E945B
:10119000BA08800F911FDF91CF911F910F91089591
:1011A0008F929F92AF92BF92CF92DF92EF92FF9277
:1011B0000F931F93CF93DF93CDB7DEB7A1970FB6F1
:1011C000F894DEBF0FBECDBF7C01C42EE52FCB014E
:1011D000D22E19A221E02D1510F02AE0D22E8E0178
:1011E0000F5D1F4F8D2C912CA12CB12C6C2D7E2FBF
:1011F000A50194010E9462098C2DD29E80191124B0
:10120000015011098A3014F4805D01C0895CF80135
:101210008083211531054105510521F0C22EE32FB0
:10122000CA01E4CFB801C7010E949B08A1960FB67E
:10123000F894DEBF0FBECDBFDF91CF911F910F910C
:10124000FF90EF90DF90CF90BF90AF909F908F90E6
:1012500008952115310541F4DC01ED91FC910190D7
:10126000F081E02D642F09940C94D0080F931F9304
:10127000CF93DF93EC019A01462F50E060E070E0DD
:101280000E9429098C01CE010E94BA08800F911F8B
:10129000DF91CF911F910F910895089597FB072E2D
:1012A00016F4009407D077FD09D00E94A30907FC2B
:1012B00005D03EF4909581959F4F08957095619566
:1012C0007F4F0895A1E21A2EAA1BBB1BFD010DC082
:1012D000AA1FBB1FEE1FFF1FA217B307E407F507E6
:1012E00020F0A21BB30BE40BF50B661F771F881FC2
:1012F000991F1A9469F760957095809590959B0158
:10130000AC01BD01CF010895052E97FB1EF400949A
:101310000E949B0957FD07D00E94620907FC03D079
:101320004EF40C949B0950954095309521953F4F74
:101330004F4F5F4F089590958095709561957F4FC1
:101340008F4F9F4F0895AA1BBB1B51E107C0AA1FD7
:10135000BB1FA617B70710F0A61BB70B881F991F56
:101360005A95A9F780959095BC01CD010895EE0F8F
:10137000FF1F0590F491E02D0994CF93DF93823005
:10138000910510F482E090E0E0917902F0917A0208
:1013900020E030E0A0E0B0E0309739F140815181A9
:1013A00048175907B8F04817590771F4828193819B
:1013B000109729F013969C938E9312972CC09093BC
:1013C0007A028093790227C02115310531F0421746
:1013D000530718F0A901DB0101C0EF019A01BD011B
:1013E000DF010280F381E02DD7CF21153105F9F01F
:1013F000281B390B2430310580F48A819B816115CB
:10140000710521F0FB019383828304C090937A02DB
:1014100080937902FE01329644C0FE01E20FF31F71
:101420008193919322503109398328833AC02091C6
:10143000770230917802232B41F420910201309100
:1014400003013093780220937702209100013091BC
:1014500001012115310541F42DB73EB7409104013A
:1014600050910501241B350BE0917702F091780231
:10147000E217F307A0F42E1B3F0B2817390778F06B
:10148000AC014E5F5F4F2417350748F04E0F5F1FCA
:1014900050937802409377028193919302C0E0E0E9
:1014A000F0E0CF01DF91CF910895CF93DF930097C4
:1014B00009F487C0FC01329713821282C09179022D
:1014C000D0917A02209781F420813181280F391F31
:1014D00080917702909178028217930779F5F093C3
:1014E0007802E09377026DC0DE0120E030E0AE17B5
:1014F000BF0750F412964D915C9113979D014115D1
:10150000510509F1DA01F3CFB383A2834081518100
:10151000840F951F8A179B0771F48D919C911197E9
:10152000840F951F02969183808312968D919C91D2
:101530001397938382832115310529F4F0937A025E
:10154000E09379023EC0D9011396FC93EE93129773
:101550004D915D91A40FB51FEA17FB0779F48081C7
:101560009181840F951F0296D90111969C938E93B9
:101570008281938113969C938E931297E0E0F0E022
:101580008A819B81009719F0FE01EC01F9CFCE0111
:10159000029628813981820F931F20917702309122
:1015A00078022817390769F4309729F410927A02E3
:1015B0001092790202C013821282D0937802C093F3
:1015C0007702DF91CF910895FB01DC0102C0019009
:1015D0000D9241505040D8F7089510E0C6ECD0E08D
:1015E00004C0FE010E94B9092296C83CD107C9F780
:0415F000F894FFCF9D
:1015F40000007B0280007265636569766520666120
:10160400696C65640072656365697665643A200097
:1016140000000000AE0273081A038D0200033203B7
:1016240000000000F7067308790692068406D506C2
:101634000D0A006E616E00696E66006F7666002E9C
:021644000000A4
:00000001FF
