:100000000C9464000C948C000C948C000C945003A1
:100010000C9450030C9450030C948C000C948C00A2
:100020000C948C000C948C000C948C000C948C0020
:100030000C948C000C948C000C948C000C948C0010
:100040000C94E1040C948C000C948E070C94C00763
:100050000C948C000C948C000C948C000C948C00F0
:100060000C948C000C948C0000000008000201002D
:100070000003040700000000000000000102040863
:100080001020408001020408102001020408102002
:10009000040404040404040402020202020203032E
:1000A00003030303000000002300260029000000D2
:1000B0000000250028002B0000000000240027007D
:1000C0002A004601F007510111241FBECFEFD8E0EE
:1000D000DEBFCDBF11E0A0E0B1E0E6E7F4E102C091
:1000E00005900D92A234B107D9F722E0A2E4B1E065
:1000F00001C01D92AB36B207E1F710E0C6ECD0E0CC
:1001000004C02297FE010E940309C23CD107C9F72F
:100110000E9434080C942E0A0C94000026E040E45F
:1001200052E46FE070E08AEC91E00E942C072AEC28
:1001300031E04AE062E471E08BE691E00E9459010F
:1001400040E855E260E070E08CE491E00C945304E8
:10015000CF93DF93CDB7DEB76F970FB6F894DEBFBE
:100160000FBECDBF90910601E2E4F1E080E0282FC0
:10017000290F21938F5F8A30D1F7965F9093060104
:1001800080914E0190914F019C838B83809150010F
:1001900090915101A0915201B09153018D839E83A2
:1001A000AF83B8878091540190915501A091560179
:1001B000B091570189879A87AB87BC8785E191E029
:1001C0009A838983809158018D87809159018E8708
:1001D00080915A0190915B01988B8F8780915C018F
:1001E000898B80915D0190915E019B8B8A8B8091C0
:1001F0005F01909160019D8B8C8B809161018E8B52
:100200008091620190916301988F8F8B809164013E
:10021000909165019A8F898F809166019091670115
:100220009C8F8B8F80916801909169019E8F8D8F3B
:1002300090916A018F8D90FB80F99695917090FB5B
:1002400081F98F8FBE016F5F7F4F8BE691E00E9437
:10025000C001CE0101960E94CA0367E071E08CE400
:1002600091E00E9485088CE491E00E94810864EF8F
:1002700071E080E090E00E944E056F960FB6F89412
:10028000DEBF0FBECDBFDF91CF9108958BE691E029
:100290000E94720120E043E062E08CE491E00C9463
:1002A00023048CE491E00E94CA038BE691E00C9455
:1002B0007601CF93DF93EC017C836B834D833A838C
:1002C0002983842F90E00E9407099F838E831B86D9
:1002D0001C861D861F861E86188A198A1882DF9141
:1002E000CF910895FC01178216820895CF93DF9372
:1002F000EC018E819F81009711F00E949F091F825F
:100300001E82DF91CF91089524E030E080E090E0FC
:10031000959587959595879560FF02C0806401C08B
:10032000806866952150310991F70895BF92CF9268
:10033000DF92EF92FF920F931F93CF93DF938C0185
:10034000B62E7A01C22FD0E06A01CC0EDD1E6F708E
:100350000E948401F60180832196CE0DDF1D6B2D56
:1003600062956F70C8010E9484018883DF91CF91EC
:100370001F910F91FF90EF90DF90CF90BF90089565
:10038000CF92DF92EF92FF920F931F93CF93DF9361
:10039000EC01CD8024E0C29EC00111240E960E9483
:1003A00007098C0180EFD8018C9311968C931197DB
:1003B00012968C93129713968C9324E0A80162E016
:1003C000CE010E9496018D81823011F0803149F476
:1003D00026E0A80160E1CE010E94960168E0D62ED9
:1003E00002C056E0D52E2D2DA8016D81CE010E94B0
:1003F0009601D394D394E12CF12C8D8190E0E816F2
:10040000F90614F5EB81FC81EE0DFF1D8081C826F5
:10041000823011F0803141F42D2DA80160E1CE0130
:100420000E949601D394D394EB81FC81EE0DFF1DC5
:100430002D2DA8016081CE010E949601D394D39402
:10044000BFEFEB1AFB0AD9CFE2E0CE1619F0F0E1CC
:10045000CF1208C02D2DA80160E1CE010E949601A7
:10046000D394D3942D2DA8016C2DCE010E9496011A
:1004700078018D81B4E08B9FC00111240D96970106
:10048000201B310B821793076CF089819A81D70169
:100490006D917D01DC01ED91FC910190F081E02DE9
:1004A0000995E7CFC801DF91CF911F910F91FF9080
:1004B000EF90DF90CF900C949F092091BF01309175
:1004C000C00128173907B9F490917D0180917E0110
:1004D000981789F0E0917D01F0E0E158FE4F8081AE
:1004E00020917D0130E02F5F3F4F2F733327209302
:1004F0007D0190E008958FEF9FEF08951F93CF93B4
:10050000DF93DC015C968D919C915D97009749F497
:1005100081E090E013969C938E93129780E090E098
:100520003BC05196ED91FC91529750962C9150976B
:10053000322F30951FB75E964C915E9741FB77271F
:1005400070F941FD6095F8944081772311F0422BBA
:1005500001C043234083EC012197F1F748E050812B
:1005600060FF02C0522B01C053235083EC0121973E
:10057000F1F76695415099F78081772311F0832335
:1005800001C0822B80831FBF5C968D919C915D97EB
:100590000197F1F781E090E0DF91CF911F910895ED
:1005A0002091BF013091C0012817390781F4909143
:1005B0007D0180917E01981751F0E0917D01F0E07E
:1005C000E158FE4F8081992787FD909508958FEF20
:1005D0009FEF08952091BF013091C001281739077E
:1005E00071F480917E0120917D0190E0805C9F4FAD
:1005F000821B910960E470E00E949808089580E0F1
:1006000090E008952091BF013091C001281739076B
:1006100039F48FB7F89410927E0110927D018FBF4C
:100620000895E091BF01F091C001E817F90769F45E
:10063000A389B4899C918589809589238C93109294
:10064000C0011092BF0181E0089580E00895CF932A
:10065000DF93EC018A8D9B8D892BF1F08091BF0196
:100660009091C0018C179D07B9F0009711F00E947E
:1006700011038E8D8E7F8E8F10927E0110927D01E0
:10068000D093C001C093BF01EB89FC8980819D8913
:10069000892B808381E001C080E0DF91CF910895B4
:1006A0001F920F920FB60F9211242F933F934F93E7
:1006B0005F936F937F938F939F93AF93BF93EF93CA
:1006C000FF93E091BF01F091C001309709F451C050
:1006D000868DA685B785958581FF04C08C91892379
:1006E00029F447C08C91892309F043C0A389B489B8
:1006F0009C918589809589238C9386899789019718
:10070000F1F7208D318DA685B785758558E040E0DD
:10071000C9010197F1F7842F90E095958795482FAF
:100720006C91672309F04068515091F7868D81FDE7
:10073000409580917E0190E001968F7399272091DA
:100740007D01281749F0A0917E01B0E0A158BE4F6D
:100750004C9380937E0103C0868D8160868F828D4D
:10076000938D0197F1F7A389B4898C919589892B91
:100770008C93FF91EF91BF91AF919F918F917F915A
:100780006F915F914F913F912F910F900FBE0F90FE
:100790001F90189525E131E0FC01318320830C94F2
:1007A00011031F93CF93DF93EC01162F6E8D669587
:1007B000617081E06827812F0E94130661E0812F1C
:1007C0000E94DA05812F90E0FC01E458FF4FE4918C
:1007D000E88BFC01E057FF4FE491F0E0EE0FFF1FC4
:1007E000E255FF4F859194919A8B898BDF91CF9140
:1007F0001F9108951F93CF93DF93EC01162F60E0B4
:10080000812F0E94DA058E8D81FD04C061E0812F69
:100810000E9413061C87812F90E0FC01E458FF4FD3
:10082000E491ED87FC01E057FF4FE491F0E0EE0F1B
:10083000FF1FEC55FF4F859194919F878E87DF9125
:10084000CF911F910895FF920F931F93CF93DF9342
:10085000EC01F62E522F1B821A8208EE13E020E0E4
:1008600030E00C831D832E833F8385E191E09983E3
:1008700088831F8A1E8A198E188E1B8E1A8E1D8ED3
:100880001C8E8E8D8E7F50FB81F98E8F642FCE0152
:100890000E94D1036F2DCE01DF91CF911F910F9157
:1008A000FF900C94FA03CF93DF93EC019A01AB0114
:1008B0001B8E1A8E198E188E1F8A1E8A60E079E0B0
:1008C0008DE390E00E94CE08C9012430310520F06C
:1008D000B9016350710902C061E070E07D8F6C8FD7
:1008E000EC85E63108F068C0B9017695679564310A
:1008F000710518F06351710902C061E070E07F8BEF
:100900006E8B069718F0C901059702C081E090E050
:10091000998F888FC901880F991F820F931F969511
:100920008795969587958D30910510F00C9702C0AC
:1009300081E090E09B8F8A8F20916800E83050F032
:1009400091E0EE3008F490E081E001C0880F9A95C4
:10095000EAF701C084E0822B809368002C85283060
:1009600038F02E3040F0263148F48CE690E008C094
:100970008DE690E005C08BE690E002C080E090E05C
:100980009C8B8B8B283030F481E001C0880F2A9536
:10099000EAF70DC0822F90E02E3010F4089701C0C6
:1009A0000E9791E001C0990F8A95EAF7892F8D8BF8
:1009B0008C8D9D8D0197F1F7CE01DF91CF910C9435
:1009C00027031F920F920FB60F9211242F933F937C
:1009D0008F939F93AF93BF938091C2019091C30176
:1009E000A091C401B091C5013091C10123E0230F52
:1009F0002D3720F40196A11DB11D05C026E8230F57
:100A00000296A11DB11D2093C1018093C201909354
:100A1000C301A093C401B093C5018091C601909118
:100A2000C701A091C801B091C9010196A11DB11DD6
:100A30008093C6019093C701A093C801B093C901E8
:100A4000BF91AF919F918F913F912F910F900FBECA
:100A50000F901F9018953FB7F8948091C601909120
:100A6000C701A091C801B091C90126B5A89B05C0D6
:100A70002F3F19F00196A11DB11D3FBF6627782FAA
:100A8000892F9A2F620F711D811D911D42E0660F03
:100A9000771F881F991F4A95D1F70895CF92DF924B
:100AA000EF92FF92CF93DF936B017C010E942B05A5
:100AB000EB01C114D104E104F10489F00E9497080C
:100AC0000E942B056C1B7D0B683E734090F381E008
:100AD000C81AD108E108F108C851DC4FEACFDF910C
:100AE000CF91FF90EF90DF90CF900895789484B5E8
:100AF000826084BD84B5816084BD85B5826085BD1A
:100B000085B5816085BDEEE6F0E0808181608083FF
:100B1000E1E8F0E0108280818260808380818160E2
:100B20008083E0E8F0E0808181608083E1EBF0E0A9
:100B3000808184608083E0EBF0E08081816080834D
:100B4000EAE7F0E080818460808380818260808336
:100B50008081816080838081806880831092C10061
:100B60000895833081F028F4813099F08230A1F02B
:100B700008958730A9F08830B9F08430D1F480919D
:100B800080008F7D03C0809180008F7780938000EC
:100B9000089584B58F7702C084B58F7D84BD089594
:100BA0008091B0008F7703C08091B0008F7D8093DB
:100BB000B0000895CF93DF9390E0FC01E458FF4F1D
:100BC0002491FC01E057FF4F8491882349F190E084
:100BD000880F991FFC01E854FF4FA591B4918255ED
:100BE0009F4FFC01C591D4919FB7611108C0F89443
:100BF0008C91209582238C93888182230AC0623055
:100C000051F4F8948C91322F309583238C93888102
:100C1000822B888304C0F8948C91822B8C939FBF85
:100C2000DF91CF9108950F931F93CF93DF931F927E
:100C3000CDB7DEB7282F30E0F901E859FF4F849196
:100C4000F901E458FF4F1491F901E057FF4F049167
:100C50000023C9F0882321F069830E94B1056981CE
:100C6000E02FF0E0EE0FFF1FE255FF4FA591B4918A
:100C70009FB7F8948C91611103C01095812301C036
:100C8000812B8C939FBF0F90DF91CF911F910F917C
:100C90000895FC01818D228D90E0805C9F4F821B26
:100CA00091098F7399270895FC01918D828D981772
:100CB00031F0828DE80FF11D858D90E008958FEF62
:100CC0009FEF0895FC01918D828D981761F0828DC0
:100CD000DF01A80FB11D5D968C91928D9F5F9F7370
:100CE000928F90E008958FEF9FEF089586EE97E042
:100CF000892B49F080E090E0892B29F00E94E607DB
:100D000081110C9400000895FC01848DDF01A80F6F
:100D1000B11DA35ABF4F2C91848D90E001968F7323
:100D20009927848FA689B7892C93A089B1898C9142
:100D300080648C93938D848D981306C00288F38908
:100D4000E02D80818F7D80830895CF93DF93EC0128
:100D5000888D8823C9F0EA89FB89808185FD05C0DB
:100D6000A889B9898C9186FD0FC00FB607FCF5CF15
:100D7000808185FFF2CFA889B9898C9185FFEDCF5D
:100D8000CE010E948406E7CFDF91CF910895CF92E4
:100D9000DF92FF920F931F93CF93DF931F92CDB7F4
:100DA000DEB76C0181E0D60158968C9358975B961C
:100DB0009C915B975C968C915C97981307C05096BA
:100DC000ED91FC915197808185FD2EC0F601038D38
:100DD00010E00F5F1F4F0F731127F02EF601848D67
:100DE000F81211C00FB607FCF9CFD6015096ED915D
:100DF000FC915197808185FFF1CFC60169830E94E4
:100E000084066981EBCF838DE80FF11DE35AFF4F14
:100E10006083D6015B960C935B975296ED91FC91A3
:100E20005397808180620CC0D6015696ED91FC915B
:100E3000579760835096ED91FC9151978081806423
:100E4000808381E090E00F90DF91CF911F910F910F
:100E5000FF90DF90CF900895BF92CF92DF92EF92F4
:100E6000FF92CF93DF93EC016A017B01B22EE889F8
:100E7000F98982E08083411581EE5807610571058B
:100E8000A1F060E079E08DE390E0A70196010E9477
:100E9000AC082150310941095109569547953795BC
:100EA0002795211580E1380798F0E889F9891082A3
:100EB00060E874E88EE190E0A70196010E94AC081A
:100EC0002150310941095109569547953795279584
:100ED000EC85FD853083EE85FF852083188EEC89B7
:100EE000FD89B082EA89FB89808180618083EA89FB
:100EF000FB89808188608083EA89FB8980818068A2
:100F00008083EA89FB8980818F7D8083DF91CF9107
:100F1000FF90EF90DF90CF90BF9008951F920F92B7
:100F20000FB60F9211242F938F939F93EF93FF93FC
:100F3000E091DA01F091DB018081E091E001F09134
:100F4000E10182FD12C090818091E3018F5F8F7378
:100F50002091E401821751F0E091E301F0E0E653C3
:100F6000FE4F958F8093E30101C08081FF91EF9147
:100F70009F918F912F910F900FBE0F901F901895FA
:100F80001F920F920FB60F9211242F933F934F93FE
:100F90005F936F937F938F939F93AF93BF93EF93E1
:100FA000FF938AEC91E00E948406FF91EF91BF913C
:100FB000AF919F918F917F916F915F914F913F91F1
:100FC0002F910F900FBE0F901F9018958AEC91E013
:100FD0000E94490621E0892B09F420E0822F089520
:100FE0001092CD011092CC0188EE93E0A0E0B0E029
:100FF0008093CE019093CF01A093D001B093D10103
:1010000085E291E09093CB018093CA0185EC90E05A
:101010009093D7018093D60184EC90E09093D9010E
:101020008093D80180EC90E09093DB018093DA010B
:1010300081EC90E09093DD018093DC0182EC90E004
:101040009093DF018093DE0186EC90E09093E101C4
:101050008093E0011092E3011092E4011092E50107
:101060001092E601089508950E9476050E943308C3
:101070000E948E00C6E7D6E00E94A8002097E1F308
:101080000E947606F9CFCF92DF92EF92FF920F93F4
:101090001F93CF93DF936C017A01EB01E60EF71EED
:1010A00000E010E0CE15DF0561F06991D601ED9109
:1010B000FC910190F081E02DC6010995080F191FE0
:1010C000F1CFC801DF91CF911F910F91FF90EF9069
:1010D000DF90CF9008956115710581F0DB010D90CF
:1010E0000020E9F7AD0141505109461B570BDC01C7
:1010F000ED91FC910280F381E02D099480E090E075
:10110000089561E371E00C946B080F931F93CF93E4
:10111000DF93EC010E946B088C01CE010E948108D4
:10112000800F911FDF91CF911F910F910895089526
:1011300097FB072E16F4009407D077FD09D00E9484
:10114000ED0807FC05D03EF4909581959F4F0895DA
:10115000709561957F4F0895A1E21A2EAA1BBB1BC3
:10116000FD010DC0AA1FBB1FEE1FFF1FA217B30773
:10117000E407F50720F0A21BB30BE40BF50B661F89
:10118000771F881F991F1A9469F76095709580954D
:1011900090959B01AC01BD01CF010895052E97FBF1
:1011A0001EF400940E94E50857FD07D00E94AC0889
:1011B00007FC03D04EF40C94E5085095409530950B
:1011C00021953F4F4F4F5F4F0895909580957095B3
:1011D00061957F4F8F4F9F4F0895AA1BBB1B51E115
:1011E00007C0AA1FBB1FA617B70710F0A61BB70B97
:1011F000881F991F5A95A9F780959095BC01CD013C
:101200000895EE0FFF1F0590F491E02D0994CF9300
:10121000DF938230910510F482E090E0E091690262
:10122000F0916A0220E030E0A0E0B0E0309739F1C0
:101230004081518148175907B8F04817590771F490
:1012400082819381109729F013969C938E93129725
:101250002CC090936A028093690227C02115310542
:1012600031F04217530718F0A901DB0101C0EF016B
:101270009A01BD01DF010280F381E02DD7CF211556
:101280003105F9F0281B390B2430310580F48A81AF
:101290009B816115710521F0FB019383828304C05A
:1012A00090936A0280936902FE01329644C0FE0167
:1012B000E20FF31F819391932250310939832883E0
:1012C0003AC02091670230916802232B41F42091AB
:1012D000020130910301309368022093670220914C
:1012E0000001309101012115310541F42DB73EB7C0
:1012F0004091040150910501241B350BE0916702D8
:10130000F0916802E217F307A0F42E1B3F0B281799
:10131000390778F0AC014E5F5F4F2417350748F06E
:101320004E0F5F1F50936802409367028193919321
:1013300002C0E0E0F0E0CF01DF91CF910895CF93BC
:10134000DF93009709F487C0FC0132971382128261
:10135000C0916902D0916A02209781F42081318185
:10136000280F391F809167029091680282179307B6
:1013700079F5F0936802E09367026DC0DE0120E02A
:1013800030E0AE17BF0750F412964D915C91139761
:101390009D014115510509F1DA01F3CFB383A28311
:1013A00040815181840F951F8A179B0771F48D919D
:1013B0009C911197840F951F0296918380831296BA
:1013C0008D919C911397938382832115310529F484
:1013D000F0936A02E09369023EC0D9011396FC9330
:1013E000EE9312974D915D91A40FB51FEA17FB077D
:1013F00079F480819181840F951F0296D90111960D
:101400009C938E938281938113969C938E931297D3
:10141000E0E0F0E08A819B81009719F0FE01EC0189
:10142000F9CFCE01029628813981820F931F209136
:101430006702309168022817390769F4309729F458
:1014400010926A021092690202C013821282D09333
:101450006802C0936702DF91CF91089510E0C6EC57
:10146000D0E004C0FE010E9403092296C83CD107C7
:06147000C9F7F894FFCF5C
:1014760000006B02800061646174612073656E74A4
:1014860000000000007E024308EA025D02D002026C
:101496000300000000C7064308490662065406A575
:1014A600060D0A006E616E00696E66006F76660054
:0214B6002E0006
:00000001FF
