:100000000C9464000C948C000C948C000C94A3054C
:100010000C94A3050C94A3050C948C000C948C00F8
:100020000C948C000C948C000C948C000C948C0020
:100030000C948C000C948C000C948C000C948C0010
:100040000C9434070C948C000C94E1090C94130A62
:100050000C948C000C948C000C948C000C948C00F0
:100060000C948C000C948C0000000008000201002D
:100070000003040700000000000000000102040863
:100080001020408001020408102001020408102002
:10009000040404040404040402020202020203032E
:1000A00003030303000000002300260029000000D2
:1000B0000000250028002B0000000000240027007D
:1000C0002A008F01430A9A0111241FBECFEFD8E006
:1000D000DEBFCDBF13E0A0E0B1E0E0E4FBE102C091
:1000E00005900D92A03AB107D9F724E0A0EAB3E059
:1000F00001C01D92A93CB207E1F710E0C6ECD0E0C8
:1001000004C02297FE010E945F0CC23CD107C9F7D0
:100110000E94870A0C94930D0C94000026E040E4A2
:1001200052E46FE070E088E294E00E947F0928E2E8
:1001300034E04AE060EA73E089EC93E00E94A201B7
:1001400040E855E260E070E08AEA93E00C94A6068D
:10015000FC01DB0112968D919C911397938382830E
:1001600014964D915D916D917C91179744835583C1
:100170006683778318964D915D916D917C911B9765
:10018000408751876287738783E793E091838083F9
:100190001C968C911C9784871D968C911D97858742
:1001A0001E968D919C911F979787868750968C916C
:1001B0005097808B51968D919C915297928B818B09
:1001C00053968D919C915497948B838B55968C91DB
:1001D0005597858B56968D919C915797978B868BCB
:1001E00058968D919C915997918F808F5A968D91A9
:1001F0009C915B97938F828F5C968D919C915D977C
:10020000958F848F5E969C915E97868D90FB80F98A
:10021000868F5E969C919695917090FB81F9868F62
:1002200008950F931F93CF93DF93CDB7DEB76F97EA
:100230000FB6F894DEBF0FBECDBFE0EAF3E081E673
:1002400081938F5F8B36E1F76AEA73E0CE01019606
:100250000E94A800BE016F5F7F4F89EC93E00E946F
:100260000902CE0101960E941D0666E071E08AEA4D
:1002700093E00E94E10A8AEA93E00E94DD0A68EEB8
:1002800073E080E090E00E94A1076AEA73E0CE018B
:1002900001960E94A800BE016F5F7F4F89EC93E03A
:1002A0000E940A03182FCE0101960E941D0611110B
:1002B00013C08AEA93E00E94DD0A8091C903882373
:1002C00021F360E171E08AEA93E00E94E10A8AEAA0
:1002D00093E00E94DD0A18C000EA13E0F3E00A3A56
:1002E0001F0791F08AEA93E00E94DD0A6DE272E056
:1002F0008AEA93E00E94D40AF80161918F018AEAA8
:1003000093E00E94F30AEACF6F960FB6F894DEBF2F
:100310000FBECDBFDF91CF911F910F91089589EC52
:1003200093E00E94BB0120E043E062E08AEA93E0B0
:100330000C9476068AEA93E00E941D0689EC93E00D
:100340000C94BF01CF93DF93EC017C836B834D83CF
:100350003A832983842F90E00E94630C9F838E83CD
:100360001B861C861D861F861E86188A198A18827F
:10037000DF91CF910895FC01178216820895CF93E3
:10038000DF93EC018E819F81009711F00E94FB0C9E
:100390001F821E82DF91CF91089524E030E080E03B
:1003A00090E0959587959595879560FF02C080644C
:1003B00001C0806866952150310991F70895BF9278
:1003C000CF92DF92EF92FF920F931F93CF93DF9321
:1003D0008C01B62E7A01C22FD0E06A01CC0EDD1E50
:1003E0006F700E94CD01F60180832196CE0DDF1D36
:1003F0006B2D62956F70C8010E94CD018883DF91DB
:10040000CF911F910F91FF90EF90DF90CF90BF9011
:100410000895AF92BF92CF92DF92EF92FF920F9327
:100420001F93CF93DF93EC017B01BD8024E0B29E4C
:10043000C00111240E960E94630C8C016FE171E0E3
:10044000C7010E94E10A80EFD8018C9311968C932A
:10045000119712968C93129713968C936EE371E01A
:10046000C7010E94E10A24E0A80162E0CE010E94D7
:10047000DF016DE471E0C7010E94E10A8D818230E5
:1004800011F0803149F426E0A80160E1CE010E941C
:10049000DF0168E0A62E02C056E0A52E2A2DA80195
:1004A0006D81CE010E94DF01A394A3946EE571E0FB
:1004B000C7010E94E10AC12CD12C8D8190E0C816A1
:1004C000D906E4F5EB81FC81EC0DFD1D8081B82699
:1004D000823011F0803141F42A2DA80160E1CE0173
:1004E0000E94DF01A394A394EB81FC81EC0DFD1D20
:1004F0002A2DA8016081CE010E94DF01A394A3945C
:1005000060E771E0C7010E94D40A4AE050E0B601FA
:10051000C7010E94A80B6DE771E0C7010E94D40AD1
:10052000EB81FC81EC0DFD1D4AE050E06081C701CC
:100530000E94DC0BBFEFCB1ADB0ABFCFE2E0BE1696
:1005400019F0F0E1BF1208C02A2DA80160E1CE0128
:100550000E94DF01A394A3942A2DA8016B2DCE0144
:100560000E94DF016AE771E0C7010E94D40A4AE0F5
:1005700050E06B2DC7010E94DC0B68018D81B4E057
:100580008B9FC00111240D969601201B310B821701
:1005900093076CF089819A81D6016D916D01DC0120
:1005A000ED91FC910190F081E02D0995E7CF66E88F
:1005B00071E0C7010E94E10AC8010E94FB0C6AE9D0
:1005C00071E0C7010E94E10AC701DF91CF911F913D
:1005D0000F91FF90EF90DF90CF90BF90AF900C9471
:1005E000DD0A603FA9F024E080E090E095958795D2
:1005F000362F3370313011F4886003C0323031F45B
:10060000877F66956695215081F708958FEF08954D
:1006100080EF0895EF92FF920F931F93CF93DF9394
:10062000EC018B018989811101C0188264EB71E0B2
:10063000C8010E94D40A4AE050E06989C8010E94BA
:10064000DC0B8D8124E0829FC00111240D96298945
:1006500030E0821793071CF466EC71E024C066ED6D
:1006600071E0C8010E94D40A6E857F854AE050E09F
:10067000C8010E94B00B6EED71E0C8010E94D40A5F
:1006800088E294E00E949C084AE050E0BC01C80166
:100690000E94B00B88E294E00E949C08181619068C
:1006A0005CF060EF71E0C8010E94E10A1F861E86BF
:1006B00081E08883198A4BC1FB8489819A81DC019E
:1006C000ED91FC910680F781E02DF1102EC0099587
:1006D000682FCE010E94F1028C87803F19F465E0FB
:1006E00072E004C08F3FC9F46EE172E0C8010E945D
:1006F000D40A40E150E06C85C8010E94DC0B1B86E7
:100700008E859F85892B29F01F861E8681E0888330
:1007100002C189898F5F898B1BC181E08B8768E368
:1007200072E0C8010E94E10A13C10995682FCE0149
:100730000E94F1028D87803F19F465E072E004C0E9
:100740008F3F91F46EE172E0C8010E94D40A40E14B
:1007500050E06D85C8010E94DC0B1B868E859F854D
:10076000892B09F4F1C0A2CF6EE472E0C8010E94A7
:10077000E10A1B868D85B0E18B9FC0011124EC84BA
:100780002E2D2F70E22EE82A8E859F852889892BB1
:1007900069F421110BC082E0E81208C064E672E03F
:1007A000C8010E94E10A81E090E08DC0A0E1EA1258
:1007B0000AC0211108C068E772E0C8010E94E10A7E
:1007C00081E0888BC4C0222331F06BE872E0C8015D
:1007D0000E94E10A188A2E853F852230310589F171
:1007E0002330310509F472C02130310509F0A7C06A
:1007F00068EB72E0C8010E94E10AE98660ED72E0F0
:10080000C8010E94D40A4AE050E06985C8010E94EC
:10081000DC0B99858D8198130DC069ED72E0C801DC
:100820000E94E10A82E090E09F878E871886898582
:100830008A8740CF6AEE72E0C8010E94E10A1986F9
:1008400073C06EEF72E0C8010E94E10A9885898545
:10085000981768F560E173E0C8010E94D40A4AE085
:1008600050E06885C8010E94D50B6CE272E0C801B7
:100870000E94D40A8885EE81FF81E80FF11DE08295
:100880008885EE81FF81E80FF11D4AE050E060812C
:10089000C8010E94DC0B9885EE81FF81E90FF11DF4
:1008A0008A85208182278A879F5F9887198A988501
:1008B000898598134CC06DE173E0C8010E94E10A7C
:1008C000188683E090E09F878E87F4CE65E373E01F
:1008D000C8010E94E10A63E473E0C8010E94D40ADF
:1008E0004AE050E06E2DC8010E94DC0B8A858E1113
:1008F00014C069E473E0C8010E94E10A4D8150E030
:100900006E817F818B819C810E948A0D1986188659
:100910001F861E861882198A1BC060E573E0C80115
:100920000E94E10A198618861F861E8681E0888348
:10093000198A60E171E0C8010E94E10A08C06AE515
:1009400073E0C8010E94E10A89898F5F898BF12CCD
:100950008F2DDF91CF911F910F91FF90EF90089510
:1009600020911D0430911E0428173907B9F4909185
:10097000DB038091DC03981789F0E091DB03F0E062
:10098000E352FC4F80812091DB0330E02F5F3F4F2B
:100990002F7333272093DB0390E008958FEF9FEFB1
:1009A00008951F93CF93DF93DC015C968D919C910A
:1009B0005D97009749F481E090E013969C938E93A5
:1009C000129780E090E03BC05196ED91FC915297D8
:1009D00050962C915097322F30951FB75E964C91C0
:1009E0005E9741FB772770F941FD6095F89440814F
:1009F000772311F0422B01C043234083EC01219760
:100A0000F1F748E0508160FF02C0522B01C0532330
:100A10005083EC012197F1F76695415099F7808159
:100A2000772311F0832301C0822B80831FBF5C9644
:100A30008D919C915D970197F1F781E090E0DF91B6
:100A4000CF911F91089520911D0430911E04281705
:100A5000390781F49091DB038091DC03981751F002
:100A6000E091DB03F0E0E352FC4F8081992787FDA2
:100A7000909508958FEF9FEF089520911D04309178
:100A80001E042817390771F48091DC032091DB03E1
:100A900090E0805C9F4F821B910960E470E00E94AF
:100AA000F40B089580E090E0089520911D043091AA
:100AB0001E042817390739F48FB7F8941092DC0315
:100AC0001092DB038FBF0895E0911D04F0911E0486
:100AD000E817F90769F4A389B4899C918589809501
:100AE00089238C9310921E0410921D0481E00895B6
:100AF00080E00895CF93DF93EC018A8D9B8D892B45
:100B0000F1F080911D0490911E048C179D07B9F09F
:100B1000009711F00E9464058E8D8E7F8E8F10924B
:100B2000DC031092DB03D0931E04C0931D04EB89F9
:100B3000FC8980819D89892B808381E001C080E0D0
:100B4000DF91CF9108951F920F920FB60F9211244B
:100B50002F933F934F935F936F937F938F939F93C5
:100B6000AF93BF93EF93FF93E0911D04F0911E04A8
:100B7000309709F451C0868DA685B785958581FF8C
:100B800004C08C91892329F447C08C91892309F0F2
:100B900043C0A389B4899C918589809589238C93CE
:100BA000868997890197F1F7208D318DA685B785C4
:100BB000758558E040E0C9010197F1F7842F90E076
:100BC00095958795482F6C91672309F0406851509F
:100BD00091F7868D81FD40958091DC0390E0019630
:100BE0008F7399272091DB03281749F0A091DC032C
:100BF000B0E0A352BC4F4C938093DC0303C0868DBE
:100C00008160868F828D938D0197F1F7A389B489D6
:100C10008C919589892B8C93FF91EF91BF91AF9126
:100C20009F918F917F916F915F914F913F912F9104
:100C30000F900FBE0F901F90189523E733E0FC0133
:100C4000318320830C9464051F93CF93DF93EC01D1
:100C5000162F6E8D6695617081E06827812F0E9446
:100C6000660861E0812F0E942D08812F90E0FC0131
:100C7000E458FF4FE491E88BFC01E057FF4FE4910B
:100C8000F0E0EE0FFF1FE255FF4F859194919A8B94
:100C9000898BDF91CF911F9108951F93CF93DF939D
:100CA000EC01162F60E0812F0E942D088E8D81FDB2
:100CB00004C061E0812F0E9466081C87812F90E0AC
:100CC000FC01E458FF4FE491ED87FC01E057FF4F32
:100CD000E491F0E0EE0FFF1FEC55FF4F85919491EA
:100CE0009F878E87DF91CF911F910895FF920F9379
:100CF0001F93CF93DF93EC01F62E522F1B821A82A3
:100D000008EE13E020E030E00C831D832E833F8348
:100D100083E793E0998388831F8A1E8A198E188E31
:100D20001B8E1A8E1D8E1C8E8E8D8E7F50FB81F930
:100D30008E8F642FCE010E9424066F2DCE01DF918D
:100D4000CF911F910F91FF900C944D06CF93DF939D
:100D5000EC019A01AB011B8E1A8E198E188E1F8A18
:100D60001E8A60E079E08DE390E00E942A0CC901C0
:100D70002430310520F0B9016350710902C061E0EF
:100D800070E07D8F6C8FEC85E63108F068C0B901AA
:100D9000769567956431710518F06351710902C049
:100DA00061E070E07F8B6E8B069718F0C9010597A4
:100DB00002C081E090E0998F888FC901880F991F48
:100DC000820F931F96958795969587958D309105FF
:100DD00010F00C9702C081E090E09B8F8A8F2091E9
:100DE0006800E83050F091E0EE3008F490E081E0E7
:100DF00001C0880F9A95EAF701C084E0822B8093A6
:100E000068002C85283038F02E3040F0263148F428
:100E10008CE690E008C08DE690E005C08BE690E09F
:100E200002C080E090E09C8B8B8B283030F481E016
:100E300001C0880F2A95EAF70DC0822F90E02E306E
:100E400010F4089701C00E9791E001C0990F8A95A0
:100E5000EAF7892F8D8B8C8D9D8D0197F1F7CE014F
:100E6000DF91CF910C947A051F920F920FB60F92DB
:100E700011242F933F938F939F93AF93BF938091B0
:100E8000200490912104A0912204B0912304309178
:100E90001F0423E0230F2D3720F40196A11DB11D5F
:100EA00005C026E8230F0296A11DB11D20931F0443
:100EB0008093200490932104A0932204B0932304F0
:100EC0008091240490912504A0912604B0912704D8
:100ED0000196A11DB11D8093240490932504A09335
:100EE0002604B0932704BF91AF919F918F913F91BA
:100EF0002F910F900FBE0F901F9018953FB7F89449
:100F00008091240490912504A0912604B091270497
:100F100026B5A89B05C02F3F19F00196A11DB11D54
:100F20003FBF6627782F892F9A2F620F711D811D71
:100F3000911D42E0660F771F881F991F4A95D1F7D0
:100F40000895CF92DF92EF92FF92CF93DF936B01E0
:100F50007C010E947E07EB01C114D104E104F1047D
:100F600089F00E94F30B0E947E076C1B7D0B683E8C
:100F7000734090F381E0C81AD108E108F108C85124
:100F8000DC4FEACFDF91CF91FF90EF90DF90CF90D1
:100F90000895789484B5826084BD84B5816084BDF1
:100FA00085B5826085BD85B5816085BDEEE6F0E0E2
:100FB000808181608083E1E8F0E01082808182603E
:100FC0008083808181608083E0E8F0E080818160BF
:100FD0008083E1EBF0E0808184608083E0EBF0E0EF
:100FE000808181608083EAE7F0E080818460808393
:100FF000808182608083808181608083808180683D
:1010000080831092C1000895833081F028F48130EC
:1010100099F08230A1F008958730A9F08830B9F0B6
:101020008430D1F4809180008F7D03C08091800056
:101030008F7780938000089584B58F7702C084B540
:101040008F7D84BD08958091B0008F7703C080911B
:10105000B0008F7D8093B0000895CF93DF9390E030
:10106000FC01E458FF4F2491FC01E057FF4F8491AD
:10107000882349F190E0880F991FFC01E854FF4F45
:10108000A591B49182559F4FFC01C591D4919FB712
:10109000611108C0F8948C91209582238C938881EB
:1010A00082230AC0623051F4F8948C91322F30952B
:1010B00083238C938881822B888304C0F8948C913D
:1010C000822B8C939FBFDF91CF9108950F931F9335
:1010D000CF93DF931F92CDB7DEB7282F30E0F90111
:1010E000E859FF4F8491F901E458FF4F1491F90139
:1010F000E057FF4F04910023C9F0882321F0698352
:101100000E9404086981E02FF0E0EE0FFF1FE25516
:10111000FF4FA591B4919FB7F8948C91611103C0D2
:101120001095812301C0812B8C939FBF0F90DF917D
:10113000CF911F910F910895FC01818D228D90E038
:10114000805C9F4F821B91098F7399270895FC0142
:10115000918D828D981731F0828DE80FF11D858D6C
:1011600090E008958FEF9FEF0895FC01918D828D9F
:10117000981761F0828DDF01A80FB11D5D968C91EB
:10118000928D9F5F9F73928F90E008958FEF9FEFF6
:10119000089589E39AE0892B49F080E090E0892B5B
:1011A00029F00E94390A81110C9400000895FC0175
:1011B000848DDF01A80FB11DA35ABF4F2C91848DE0
:1011C00090E001968F739927848FA689B7892C9315
:1011D000A089B1898C9180648C93938D848D9813B0
:1011E00006C00288F389E02D80818F7D8083089579
:1011F000CF93DF93EC01888D8823C9F0EA89FB89BE
:10120000808185FD05C0A889B9898C9186FD0FC0B4
:101210000FB607FCF5CF808185FFF2CFA889B98989
:101220008C9185FFEDCFCE010E94D708E7CFDF91EB
:10123000CF910895CF92DF92FF920F931F93CF9398
:10124000DF931F92CDB7DEB76C0181E0D6015896CF
:101250008C9358975B969C915B975C968C915C976E
:10126000981307C05096ED91FC915197808185FDB0
:101270002EC0F601038D10E00F5F1F4F0F73112773
:10128000F02EF601848DF81211C00FB607FCF9CFCD
:10129000D6015096ED91FC915197808185FFF1CF59
:1012A000C60169830E94D7086981EBCF838DE80F5F
:1012B000F11DE35AFF4F6083D6015B960C935B9759
:1012C0005296ED91FC915397808180620CC0D601BB
:1012D0005696ED91FC91579760835096ED91FC9155
:1012E000519780818064808381E090E00F90DF914E
:1012F000CF911F910F91FF90DF90CF900895BF92F3
:10130000CF92DF92EF92FF92CF93DF93EC016A01CD
:101310007B01B22EE889F98982E08083411581EE54
:10132000580761057105A1F060E079E08DE390E078
:10133000A70196010E94080C215031094109510969
:101340005695479537952795211580E1380798F0F0
:10135000E889F989108260E874E88EE190E0A701DD
:1013600096010E94080C21503109410951095695F6
:10137000479537952795EC85FD853083EE85FF856C
:101380002083188EEC89FD89B082EA89FB898081EF
:1013900080618083EA89FB89808188608083EA8913
:1013A000FB89808180688083EA89FB8980818F7DC9
:1013B0008083DF91CF91FF90EF90DF90CF90BF902F
:1013C00008951F920F920FB60F9211242F938F93AF
:1013D0009F93EF93FF93E0913804F091390480815B
:1013E000E0913E04F0913F0482FD12C09081809113
:1013F00041048F5F8F7320914204821751F0E09176
:101400004104F0E0E85DFB4F958F8093410401C0FB
:101410008081FF91EF919F918F912F910F900FBE3F
:101420000F901F9018951F920F920FB60F921124D4
:101430002F933F934F935F936F937F938F939F93DC
:10144000AF93BF93EF93FF9388E294E00E94D70895
:10145000FF91EF91BF91AF919F918F917F916F918C
:101460005F914F913F912F910F900FBE0F901F9062
:10147000189588E294E00E949C0821E0892B09F4E9
:1014800020E0822F089510922B0410922A0488EEF7
:1014900093E0A0E0B0E080932C0490932D04A093FF
:1014A0002E04B0932F0483E893E090932904809353
:1014B000280485EC90E0909335048093340484EC08
:1014C00090E0909337048093360480EC90E0909302
:1014D00039048093380481EC90E090933B0480932E
:1014E0003A0482EC90E090933D0480933C0486ECB7
:1014F00090E090933F0480933E0410924104109238
:1015000042041092430410924404089508950E94E6
:10151000C9070E94860A0E948E00C9ECD8E00E948A
:1015200011012097E1F30E94C908F9CFCF92DF9211
:10153000EF92FF920F931F93CF93DF936C017A0189
:10154000EB01E60EF71E00E010E0CE15DF0561F0BE
:101550006991D601ED91FC910190F081E02DC601D9
:101560000995080F191FF1CFC801DF91CF911F9185
:101570000F91FF90EF90DF90CF9008956115710566
:1015800081F0DB010D900020E9F7AD0141505109D8
:10159000461B570BDC01ED91FC910280F381E02D9D
:1015A000099480E090E008950C94BE0ADC01ED916E
:1015B000FC910190F081E02D09946FE873E00C94A8
:1015C000BE0A0F931F93CF93DF93EC010E94BE0AD4
:1015D0008C01CE010E94DD0A800F911FDF91CF9117
:1015E0001F910F9108950F931F93CF93DF93EC01F9
:1015F0000E94D60A8C01CE010E94DD0A800F911F45
:10160000DF91CF911F910F9108958F929F92AF928A
:10161000BF92CF92DF92EF92FF920F931F93CF93DF
:10162000DF93CDB7DEB7A1970FB6F894DEBF0FBE3C
:10163000CDBF7C01C42EE52FCB01D22E19A221E013
:101640002D1510F02AE0D22E8E010F5D1F4F8D2C2C
:10165000912CA12CB12C6C2D7E2FA50194010E9400
:10166000080C8C2DD29E80191124015011098A304A
:1016700014F4805D01C0895CF80180832115310577
:101680004105510521F0C22EE32FCA01E4CFB80174
:10169000C7010E94BE0AA1960FB6F894DEBF0FBE26
:1016A000CDBFDF91CF911F910F91FF90EF90DF9011
:1016B000CF90BF90AF909F908F900895CF92DF9280
:1016C000EF92FF920F931F93CF93DF93EC016A0188
:1016D0007B012115310579F4E881F9810190F081D0
:1016E000E02D642FDF91CF911F910F91FF90EF902C
:1016F000DF90CF9009942A303105E9F477FF1AC0C2
:101700006DE20E94D60A8C0144275527BA014C1974
:101710005D096E097F092AE0CE010E94050B800F4A
:10172000911FDF91CF911F910F91FF90EF90DF906C
:10173000CF9008952AE0B701A601CE01DF91CF91A5
:101740001F910F91FF90EF90DF90CF900C94050BBD
:101750009A01AB01662757FD6095762F0C945E0BBE
:101760000F931F93CF93DF93EC019A01AB01662790
:1017700057FD6095762F0E945E0B8C01CE010E9472
:10178000DD0A800F911FDF91CF911F910F91089576
:101790002115310541F4DC01ED91FC910190F081BE
:1017A000E02D642F09940C94050B9A01462F50E00C
:1017B00060E070E00C94C80B0F931F93CF93DF93FE
:1017C000EC019A01462F50E060E070E00E94C80BE7
:1017D0008C01CE010E94DD0A800F911FDF91CF9115
:1017E0001F910F910895089597FB072E16F400940A
:1017F00007D077FD09D00E94490C07FC05D03EF4C4
:10180000909581959F4F0895709561957F4F0895AC
:10181000A1E21A2EAA1BBB1BFD010DC0AA1FBB1FF4
:10182000EE1FFF1FA217B307E407F50720F0A21B66
:10183000B30BE40BF50B661F771F881F991F1A94D3
:1018400069F760957095809590959B01AC01BD01FD
:10185000CF010895052E97FB1EF400940E94410CC1
:1018600057FD07D00E94080C07FC03D04EF40C94DF
:10187000410C50954095309521953F4F4F4F5F4F0C
:10188000089590958095709561957F4F8F4F9F4FEC
:101890000895AA1BBB1B51E107C0AA1FBB1FA617B7
:1018A000B70710F0A61BB70B881F991F5A95A9F709
:1018B00080959095BC01CD010895EE0FFF1F059016
:1018C000F491E02D0994CF93DF938230910510F4C9
:1018D00082E090E0E091C704F091C80420E030E09D
:1018E000A0E0B0E0309739F14081518148175907A5
:1018F000B8F04817590771F482819381109729F045
:1019000013969C938E9312972CC09093C804809347
:10191000C70427C02115310531F04217530718F0CD
:10192000A901DB0101C0EF019A01BD01DF010280C5
:10193000F381E02DD7CF21153105F9F0281B390BA4
:101940002430310580F48A819B816115710521F075
:10195000FB019383828304C09093C8048093C704DF
:10196000FE01329644C0FE01E20FF31F8193919372
:1019700022503109398328833AC02091C50430911F
:10198000C604232B41F420910201309103013093CE
:10199000C6042093C5042091000130910101211556
:1019A000310541F42DB73EB7409104015091050136
:1019B000241B350BE091C504F091C604E217F30730
:1019C000A0F42E1B3F0B2817390778F0AC014E5FAF
:1019D0005F4F2417350748F04E0F5F1F5093C60422
:1019E0004093C5048193919302C0E0E0F0E0CF0101
:1019F000DF91CF910895CF93DF93009709F487C0CB
:101A0000FC01329713821282C091C704D091C8049E
:101A1000209781F420813181280F391F8091C504DE
:101A20009091C6048217930779F5F093C604E0936A
:101A3000C5046DC0DE0120E030E0AE17BF0750F4F2
:101A400012964D915C9113979D014115510509F135
:101A5000DA01F3CFB383A28340815181840F951FB4
:101A60008A179B0771F48D919C911197840F951F94
:101A700002969183808312968D919C911397938304
:101A800082832115310529F4F093C804E093C7043B
:101A90003EC0D9011396FC93EE9312974D915D9140
:101AA000A40FB51FEA17FB0779F480819181840F99
:101AB000951F0296D90111969C938E9382819381F2
:101AC00013969C938E931297E0E0F0E08A819B81BD
:101AD000009719F0FE01EC01F9CFCE0102962881A2
:101AE0003981820F931F2091C5043091C6042817B5
:101AF000390769F4309729F41092C8041092C7048A
:101B000002C013821282D093C604C093C504DF9131
:101B1000CF910895FB01DC0102C001900D9241506C
:101B20005040D8F7089510E0C6ECD0E004C0FE01A4
:101B30000E945F0C2296C83CD107C9F7F894FFCFEA
:101B40000000C9048000646174612073656E7400D4
:101B500072656365697665206661696C65640072AB
:101B60006573657276656420656E636F6465642075
:101B7000737472696E672062756666657200707252
:101B800065616D626C652061646465640073746195
:101B900072742062797465206164646564007061A8
:101BA000636B65742073697A6520616464656400A1
:101BB00064617461206279746500435243206164FA
:101BC0006465643A2000656E636F646564207374B5
:101BD00072696E672073656E74007472616E736DE6
:101BE000697474206275666665722072656C6561E1
:101BF0007365640074696D656F757420636F756ECD
:101C00007465723A200074696D656F757420726531
:101C100061636865640073746174653A200061767D
:101C200061696C61626C652062797465733A200049
:101C3000656D70747920726563656976652062757B
:101C40006666657200707265616D626C65206279AE
:101C500074652072656365697665643A2000696E13
:101C600076616C6964206E6962626C65207265637E
:101C700065697665643A20006C6F776572206E69DD
:101C800062626C6520726563656976656400757073
:101C9000706572206E6962626C6520726563656949
:101CA0007665640073746172742062797465207261
:101CB000656365697665640064656C696D69746502
:101CC00072207265636569766564007365636F6E23
:101CD000642064656C696D69746572206F72206F31
:101CE00074686572206368617261637465722072E2
:101CF0006563656976656400726563656976696EBA
:101D000067207061636B6574206C656E6774680032
:101D10006C656E6774683A20007061636B6574204F
:101D20006C656E677468204F4B007061636B6574FF
:101D3000206C656E677468206572726F72007265E0
:101D400063656976696E67207061796C6F616400A4
:101D50007061796C6F6164206279746500656E747E
:101D6000697265207061796C6F616420726563656A
:101D70006976656400726563656976696E6720439C
:101D80005243004352433A2000435243204F4B00FA
:101D9000435243206572726F72006F7574206F66D4
:101DA000207374617465206D616368696E650000FD
:101DB000000000D104960A3D05B004230555050036
:101DC0000000001A09960A9C08B508A708F8080D33
:101DD0000A006E616E00696E66006F7666002E0006
:00000001FF
