:100000000C9464000C948C000C948C000C94C4042C
:100010000C94C4040C94C4040C948C000C948C00B8
:100020000C948C000C948C000C948C000C948C0020
:100030000C948C000C948C000C948C000C948C0010
:100040000C9455060C948C000C9402090C94340901
:100050000C948C000C948C000C948C000C948C00F0
:100060000C948C000C948C0000000008000201002D
:100070000003040700000000000000000102040863
:100080001020408001020408102001020408102002
:10009000040404040404040402020202020203032E
:1000A00003030303000000002300260029000000D2
:1000B0000000250028002B0000000000240027007D
:1000C0002A00DB016409E60111241FBECFEFD8E04E
:1000D000DEBFCDBF11E0A0E0B1E0E0EAF8E102C090
:1000E00005900D92AC35B107D9F722E0ACE5B1E04F
:1000F00001C01D92A538B207E1F710E0C6ECD0E0D0
:1001000004C02297FE010E940F0BC23CD107C9F721
:100110000E94A8090C94430C0C94000026E040E4D3
:1001200052E46FE070E084EE91E00E94A00824EEBB
:1001300031E04AE06CE571E085E891E00E94EE0173
:1001400040E855E260E070E086E691E00C94C70577
:10015000FC01DB0112968D919C911397938382830E
:1001600014964D915D916D917C91179744835583C1
:100170006683778318964D915D916D917C911B9765
:1001800040875187628773878FE291E091838083F4
:100190001C968C911C9784871D968C911D97858742
:1001A0001E968D919C911F979787868750968C916C
:1001B0005097808B51968D919C915297928B818B09
:1001C00053968D919C915497948B838B55968C91DB
:1001D0005597858B56968D919C915797978B868BCB
:1001E00058968D919C915997918F808F5A968D91A9
:1001F0009C915B97938F828F5C968D919C915D977C
:10020000958F848F5E969C915E97868D90FB80F98A
:10021000868F5E969C919695917090FB81F9868F62
:100220000895AF92BF92CF92DF92EF92FF920F9319
:100230001F93CF93DF93CDB7DEB76F970FB6F894C8
:10024000DEBF0FBECDBF0E949F066B017C01909167
:100250000601ECE5F1E080E0282F290F21938F5F64
:100260008A30D1F7965F9093060166E671E0CE0181
:1002700001960E94A800BE016F5F7F4F85E891E064
:100280000E945502CE0101960E943E0567E071E092
:1002900086E691E00E94020A86E691E00E94FE094D
:1002A00064E670E080E090E00E94C2060E949F0633
:1002B000AB01BC014C195D096E097F092AE030E0F1
:1002C00086E691E00E94910A0E949F066B017C01E4
:1002D00061E070E080E090E00E94C20666E671E0B6
:1002E000CE0101960E94A800BE016F5F7F4F85E896
:1002F00091E00E940B03182FCE0101960E943E054B
:10030000111113C086E691E00E94FE0980918501DB
:10031000882321F361E171E086E691E00E94020A00
:1003200086E691E00E94FE0935C00CE511E0F1E09F
:1003300006361F0709F186E691E00E94FE0960E299
:1003400071E086E691E00E94F5095801F80161919B
:100350008F0186E691E00E94F70969E271E086E686
:1003600091E00E94F5094AE050E0F501608186E6DF
:1003700091E00E947A0ADBCF0E949F06AB01BC018C
:100380004C195D096E097F092AE030E086E691E0AC
:100390000E94910A6F960FB6F894DEBF0FBECDBFD4
:1003A000DF91CF911F910F91FF90EF90DF90CF9051
:1003B000BF90AF90089585E891E00E94070220E089
:1003C00043E062E086E691E00C94970586E691E0D2
:1003D0000E943E0585E891E00C940B02CF93DF93D9
:1003E000EC017C836B834D833A832983842F90E0D7
:1003F0000E94130B9F838E831B861C861D861F867F
:100400001E86188A198A1882DF91CF910895FC01FF
:10041000178216820895CF93DF93EC018E819F811E
:10042000009711F00E94AB0B1F821E82DF91CF91CB
:10043000089524E030E080E090E0959587959595CB
:10044000879560FF02C0806401C080686695215076
:10045000310991F70895BF92CF92DF92EF92FF9208
:100460000F931F93CF93DF938C01B62E7A01C22F87
:10047000D0E06A01CC0EDD1E6F700E941902F601F9
:1004800080832196CE0DDF1D6B2D62956F70C801A4
:100490000E9419028883DF91CF911F910F91FF90E5
:1004A000EF90DF90CF90BF900895CF92DF92EF92C0
:1004B000FF920F931F93CF93DF93EC01CD8024E045
:1004C000C29EC00111240E960E94130B8C0180EF76
:1004D000D8018C9311968C93119712968C93129746
:1004E00013968C9324E0A80162E0CE010E942B02B7
:1004F0008D81823011F0803149F426E0A80160E15D
:10050000CE010E942B0268E0D62E02C056E0D52E06
:100510002D2DA8016D81CE010E942B02D394D3947E
:10052000E12CF12C8D8190E0E816F90614F5EB81B1
:10053000FC81EE0DFF1D8081C826823011F08031D4
:1005400041F42D2DA80160E1CE010E942B02D3942D
:10055000D394EB81FC81EE0DFF1D2D2DA801608150
:10056000CE010E942B02D394D394BFEFEB1AFB0A67
:10057000D9CFE2E0CE1619F0F0E1CF1208C02D2D50
:10058000A80160E1CE010E942B02D394D3942D2DBB
:10059000A8016C2DCE010E942B0278018D81B4E060
:1005A0008B9FC00111240D969701201B310B8217E0
:1005B00093076CF089819A81D7016D917D01DC01EF
:1005C000ED91FC910190F081E02D0995E7CFC801F4
:1005D000DF91CF911F910F91FF90EF90DF90CF901F
:1005E0000C94AB0B603FA9F024E080E090E095957F
:1005F0008795362F3370313011F4886003C0323064
:1006000031F4877F66956695215081F708958FEFC5
:10061000089580EF08951F93CF93DF93EC0129890C
:10062000211101C018828D8134E0839FC001112403
:100630000D9630E0821793070CF4A4C084EE91E08D
:100640000E94BD07181619060CF09CC01B858981F5
:100650009A81DC01ED91FC910680F781E02D11116A
:100660001BC00995682FCE010E94F2028C87803F43
:1006700051F41B868E859F85892B51F01F861E861F
:1006800081E088837BC08F3FA1F381E08B8784C0AA
:1006900089898F5F898B80C00995682FCE010E9460
:1006A000F2028D872E853F851B86803F11F08F3F9C
:1006B00021F4232B09F066C06BC0B0E18B9FA00131
:1006C00011245C855F70542B88892115310539F41C
:1006D000811105C0523019F481E090E03CC05031E6
:1006E00029F4811103C081E0888B55C08111188ADB
:1006F00022303105A1F02330310581F1213031055F
:1007000009F046C059878D81581307C082E090E0F8
:100710009F878E8718865A8739C0198633C0888587
:100720009985891788F4EE81FF81E80FF11D5083C8
:100730009885EE81FF81E90FF11D8A85208182274E
:100740008A879F5F9887198A98858985981323C01F
:10075000188683E090E09F878E8718C08A8585136E
:100760000FC04D8150E06E817F818B819C810E9402
:100770003A0C198618861F861E861882198A0CC0A4
:10078000198618861F861E8681E08883198A03C011
:1007900089898F5F898B10E0812FDF91CF911F9125
:1007A00008952091D9013091DA0128173907B9F459
:1007B0009091970180919801981789F0E0919701A5
:1007C000F0E0E756FE4F80812091970130E02F5FE7
:1007D0003F4F2F7333272093970190E008958FEFB9
:1007E0009FEF08951F93CF93DF93DC015C968D916B
:1007F0009C915D97009749F481E090E013969C935B
:100800008E93129780E090E03BC05196ED91FC9161
:10081000529750962C915097322F30951FB75E9675
:100820004C915E9741FB772770F941FD6095F894F4
:100830004081772311F0422B01C043234083EC0118
:100840002197F1F748E0508160FF02C0522B01C0B0
:1008500053235083EC012197F1F76695415099F7A6
:100860008081772311F0832301C0822B80831FBFF7
:100870005C968D919C915D970197F1F781E090E0F6
:10088000DF91CF911F9108952091D9013091DA0124
:100890002817390781F49091970180919801981752
:1008A00051F0E0919701F0E0E756FE4F80819927E3
:1008B00087FD909508958FEF9FEF08952091D901BE
:1008C0003091DA012817390771F48091980120914D
:1008D000970190E0805C9F4F821B910960E470E07B
:1008E0000E94A40A089580E090E008952091D90123
:1008F0003091DA012817390739F48FB7F89410923C
:100900009801109297018FBF0895E091D901F0915D
:10091000DA01E817F90769F4A389B4899C918589FC
:10092000809589238C931092DA011092D90181E08D
:10093000089580E00895CF93DF93EC018A8D9B8D1D
:10094000892BF1F08091D9019091DA018C179D07E4
:10095000B9F0009711F00E9485048E8D8E7F8E8FE6
:100960001092980110929701D093DA01C093D901A7
:10097000EB89FC8980819D89892B808381E001C07E
:1009800080E0DF91CF9108951F920F920FB60F92E2
:1009900011242F933F934F935F936F937F938F9384
:1009A0009F93AF93BF93EF93FF93E091D901F091A1
:1009B000DA01309709F451C0868DA685B7859585F3
:1009C00081FF04C08C91892329F447C08C9189232D
:1009D00009F043C0A389B4899C91858980958923B6
:1009E0008C93868997890197F1F7208D318DA685A3
:1009F000B785758558E040E0C9010197F1F7842F6C
:100A000090E095958795482F6C91672309F0406891
:100A1000515091F7868D81FD40958091980190E02D
:100A200001968F73992720919701281749F0A0917B
:100A30009801B0E0A756BE4F4C938093980103C035
:100A4000868D8160868F828D938D0197F1F7A389C2
:100A5000B4898C919589892B8C93FF91EF91BF91EB
:100A6000AF919F918F917F916F915F914F913F9146
:100A70002F910F900FBE0F901F9018952FE231E02D
:100A8000FC01318320830C9485041F93CF93DF9363
:100A9000EC01162F6E8D6695617081E06827812FBD
:100AA0000E94870761E0812F0E944E07812F90E00E
:100AB000FC01E458FF4FE491E88BFC01E057FF4F45
:100AC000E491F0E0EE0FFF1FE255FF4F8591949106
:100AD0009A8B898BDF91CF911F9108951F93CF93AC
:100AE000DF93EC01162F60E0812F0E944E078E8D60
:100AF00081FD04C061E0812F0E9487071C87812F40
:100B000090E0FC01E458FF4FE491ED87FC01E057D1
:100B1000FF4FE491F0E0EE0FFF1FEC55FF4F859182
:100B200094919F878E87DF91CF911F910895FF92B7
:100B30000F931F93CF93DF93EC01F62E522F1B825E
:100B40001A8208EE13E020E030E00C831D832E8330
:100B50003F838FE291E0998388831F8A1E8A198ED2
:100B6000188E1B8E1A8E1D8E1C8E8E8D8E7F50FBC6
:100B700081F98E8F642FCE010E9445056F2DCE0125
:100B8000DF91CF911F910F91FF900C946E05CF9341
:100B9000DF93EC019A01AB011B8E1A8E198E188E11
:100BA0001F8A1E8A60E079E08DE390E00E94DA0AF5
:100BB000C9012430310520F0B9016350710902C028
:100BC00061E070E07D8F6C8FEC85E63108F068C0E5
:100BD000B901769567956431710518F06351710913
:100BE00002C061E070E07F8B6E8B069718F0C90140
:100BF000059702C081E090E0998F888FC901880F26
:100C0000991F820F931F96958795969587958D309E
:100C1000910510F00C9702C081E090E09B8F8A8FC5
:100C200020916800E83050F091E0EE3008F490E058
:100C300081E001C0880F9A95EAF701C084E0822B19
:100C4000809368002C85283038F02E3040F0263113
:100C500048F48CE690E008C08DE690E005C08BE695
:100C600090E002C080E090E09C8B8B8B283030F4C9
:100C700081E001C0880F2A95EAF70DC0822F90E02D
:100C80002E3010F4089701C00E9791E001C0990F23
:100C90008A95EAF7892F8D8B8C8D9D8D0197F1F7C1
:100CA000CE01DF91CF910C949B041F920F920FB64F
:100CB0000F9211242F933F938F939F93AF93BF93E2
:100CC0008091DC019091DD01A091DE01B091DF0106
:100CD0003091DB0123E0230F2D3720F40196A11D75
:100CE000B11D05C026E8230F0296A11DB11D20935A
:100CF000DB018093DC019093DD01A093DE01B093D2
:100D0000DF018091E0019091E101A091E201B091B9
:100D1000E3010196A11DB11D8093E0019093E101D3
:100D2000A093E201B093E301BF91AF919F918F91A6
:100D30003F912F910F900FBE0F901F9018953FB7C6
:100D4000F8948091E0019091E101A091E201B091CD
:100D5000E30126B5A89B05C02F3F19F00196A11D00
:100D6000B11D3FBF6627782F892F9A2F620F711D03
:100D7000811D911D42E0660F771F881F991F4A95BC
:100D8000D1F70895CF92DF92EF92FF92CF93DF9346
:100D90006B017C010E949F06EB01C114D104E104A8
:100DA000F10489F00E94A30A0E949F066C1B7D0B30
:100DB000683E734090F381E0C81AD108E108F10859
:100DC000C851DC4FEACFDF91CF91FF90EF90DF90D9
:100DD000CF900895789484B5826084BD84B5816095
:100DE00084BD85B5826085BD85B5816085BDEEE633
:100DF000F0E0808181608083E1E8F0E01082808112
:100E000082608083808181608083E0E8F0E080817F
:100E100081608083E1EBF0E0808184608083E0EB9F
:100E2000F0E0808181608083EAE7F0E08081846087
:100E300080838081826080838081816080838081E3
:100E4000806880831092C1000895833081F028F477
:100E5000813099F08230A1F008958730A9F0883070
:100E6000B9F08430D1F4809180008F7D03C08091EF
:100E700080008F7780938000089584B58F7702C0BB
:100E800084B58F7D84BD08958091B0008F7703C0B5
:100E90008091B0008F7D8093B0000895CF93DF9351
:100EA00090E0FC01E458FF4F2491FC01E057FF4F14
:100EB0008491882349F190E0880F991FFC01E85440
:100EC000FF4FA591B49182559F4FFC01C591D491DC
:100ED0009FB7611108C0F8948C91209582238C9360
:100EE000888182230AC0623051F4F8948C91322FA9
:100EF000309583238C938881822B888304C0F89457
:100F00008C91822B8C939FBFDF91CF9108950F938B
:100F10001F93CF93DF931F92CDB7DEB7282F30E01A
:100F2000F901E859FF4F8491F901E458FF4F1491FA
:100F3000F901E057FF4F04910023C9F0882321F005
:100F400069830E9425076981E02FF0E0EE0FFF1F03
:100F5000E255FF4FA591B4919FB7F8948C91611120
:100F600003C01095812301C0812B8C939FBF0F90EC
:100F7000DF91CF911F910F910895FC01818D228DFA
:100F800090E0805C9F4F821B91098F739927089591
:100F9000FC01918D828D981731F0828DE80FF11D43
:100FA000858D90E008958FEF9FEF0895FC01918D5E
:100FB000828D981761F0828DDF01A80FB11D5D96BB
:100FC0008C91928D9F5F9F73928F90E008958FEF29
:100FD0009FEF08958AE599E0892B49F080E090E041
:100FE000892B29F00E945A0981110C940000089560
:100FF000FC01848DDF01A80FB11DA35ABF4F2C91B6
:10100000848D90E001968F739927848FA689B78984
:101010002C93A089B1898C9180648C93938D848D5D
:10102000981306C00288F389E02D80818F7D80832C
:101030000895CF93DF93EC01888D8823C9F0EA8966
:10104000FB89808185FD05C0A889B9898C9186FDC1
:101050000FC00FB607FCF5CF808185FFF2CFA889BE
:10106000B9898C9185FFEDCFCE010E94F807E7CFBB
:10107000DF91CF910895CF92DF92FF920F931F934C
:10108000CF93DF931F92CDB7DEB76C0181E0D6011D
:1010900058968C9358975B969C915B975C968C9135
:1010A0005C97981307C05096ED91FC915197808101
:1010B00085FD2EC0F601038D10E00F5F1F4F0F73EB
:1010C0001127F02EF601848DF81211C00FB607FC1F
:1010D000F9CFD6015096ED91FC915197808185FF13
:1010E000F1CFC60169830E94F8076981EBCF838D38
:1010F000E80FF11DE35AFF4F6083D6015B960C9316
:101100005B975296ED91FC915397808180620CC061
:10111000D6015696ED91FC91579760835096ED91CC
:10112000FC91519780818064808381E090E00F90F2
:10113000DF91CF911F910F91FF90DF90CF90089595
:10114000BF92CF92DF92EF92FF92CF93DF93EC01A9
:101150006A017B01B22EE889F98982E0808341151A
:1011600081EE580761057105A1F060E079E08DE33B
:1011700090E0A70196010E94B80A21503109410967
:1011800051095695479537952795211580E13807E0
:1011900098F0E889F989108260E874E88EE190E0BF
:1011A000A70196010E94B80A21503109410951094D
:1011B0005695479537952795EC85FD853083EE85C7
:1011C000FF852083188EEC89FD89B082EA89FB892E
:1011D000808180618083EA89FB8980818860808347
:1011E000EA89FB89808180688083EA89FB89808124
:1011F0008F7D8083DF91CF91FF90EF90DF90CF9034
:10120000BF9008951F920F920FB60F9211242F9343
:101210008F939F93EF93FF93E091F401F091F50189
:101220008081E091FA01F091FB0182FD12C0908172
:101230008091FD018F5F8F732091FE01821751F025
:10124000E091FD01F0E0EC51FE4F958F8093FD01A0
:1012500001C08081FF91EF919F918F912F910F900D
:101260000FBE0F901F9018951F920F920FB60F92FE
:1012700011242F933F934F935F936F937F938F939B
:101280009F93AF93BF93EF93FF9384EE91E00E94FF
:10129000F807FF91EF91BF91AF919F918F917F914F
:1012A0006F915F914F913F912F910F900FBE0F90D3
:1012B0001F90189584EE91E00E94BD0721E0892BD4
:1012C00009F420E0822F08951092E7011092E601C0
:1012D00088EE93E0A0E0B0E08093E8019093E9010C
:1012E000A093EA01B093EB018FE391E09093E501C5
:1012F0008093E40185EC90E09093F1018093F001FC
:1013000084EC90E09093F3018093F20180EC90E004
:101310009093F5018093F40181EC90E09093F701B4
:101320008093F60182EC90E09093F9018093F801AC
:1013300086EC90E09093FB018093FA011092FD01FE
:101340001092FE011092FF0110920002089508957C
:101350000E94EA060E94A7090E948E00CAEED7E00A
:101360000E9411012097E1F30E94EA07F9CFCF9282
:10137000DF92EF92FF920F931F93CF93DF936C0155
:101380007A01EB01E60EF71E00E010E0CE15DF0556
:1013900061F06991D601ED91FC910190F081E02D11
:1013A000C6010995080F191FF1CFC801DF91CF9130
:1013B0001F910F91FF90EF90DF90CF9008956115EE
:1013C000710581F0DB010D900020E9F7AD0141507E
:1013D0005109461B570BDC01ED91FC910280F38112
:1013E000E02D099480E090E008950C94DF09DC0181
:1013F000ED91FC910190F081E02D09946BE471E096
:101400000C94DF090F931F93CF93DF93EC010E949D
:10141000DF098C01CE010E94FE09800F911FDF9130
:10142000CF911F910F9108958F929F92AF92BF928B
:10143000CF92DF92EF92FF920F931F93CF93DF93A0
:10144000CDB7DEB7A1970FB6F894DEBF0FBECDBF04
:101450007C01C42EE52FCB01D22E19A221E02D153F
:1014600010F02AE0D22E8E010F5D1F4F8D2C912C93
:10147000A12CB12C6C2D7E2FA50194010E94B80ADD
:101480008C2DD29E80191124015011098A3014F438
:10149000805D01C0895CF80180832115310541051B
:1014A000510521F0C22EE32FCA01E4CFB801C701D4
:1014B0000E94DF09A1960FB6F894DEBF0FBECDBF24
:1014C000DF91CF911F910F91FF90EF90DF90CF9020
:1014D000BF90AF909F908F9008952115310541F4F2
:1014E000DC01ED91FC910190F081E02D642F0994D5
:1014F0000C94140A0F931F93CF93DF93EC019A017E
:10150000462F50E060E070E00E946D0A8C01CE0131
:101510000E94FE09800F911FDF91CF911F910F91C3
:1015200008950F931F93CF93DF93EC010E946D0AF0
:101530008C01CE010E94FE09800F911FDF91CF9197
:101540001F910F910895089597FB072E16F40094AC
:1015500007D077FD09D00E94F90A07FC05D03EF4B8
:10156000909581959F4F0895709561957F4F08954F
:10157000A1E21A2EAA1BBB1BFD010DC0AA1FBB1F97
:10158000EE1FFF1FA217B307E407F50720F0A21B09
:10159000B30BE40BF50B661F771F881F991F1A9476
:1015A00069F760957095809590959B01AC01BD01A0
:1015B000CF010895052E97FB1EF400940E94F10AB6
:1015C00057FD07D00E94B80A07FC03D04EF40C94D4
:1015D000F10A50954095309521953F4F4F4F5F4F01
:1015E000089590958095709561957F4F8F4F9F4F8F
:1015F0000895AA1BBB1B51E107C0AA1FBB1FA6175A
:10160000B70710F0A61BB70B881F991F5A95A9F7AB
:1016100080959095BC01CD010895EE0FFF1F0590B8
:10162000F491E02D0994CF93DF938230910510F46B
:1016300082E090E0E0918302F091840220E030E0CB
:10164000A0E0B0E0309739F1408151814817590747
:10165000B8F04817590771F482819381109729F0E7
:1016600013969C938E9312972CC090938402809330
:10167000830227C02115310531F04217530718F0B6
:10168000A901DB0101C0EF019A01BD01DF01028068
:10169000F381E02DD7CF21153105F9F0281B390B47
:1016A0002430310580F48A819B816115710521F018
:1016B000FB019383828304C090938402809383020E
:1016C000FE01329644C0FE01E20FF31F8193919315
:1016D00022503109398328833AC020918102309108
:1016E0008202232B41F420910201309103013093B7
:1016F0008202209381022091000130910101211585
:10170000310541F42DB73EB74091040150910501D8
:10171000241B350BE0918102F0918202E217F3075E
:10172000A0F42E1B3F0B2817390778F0AC014E5F51
:101730005F4F2417350748F04E0F5F1F509382020A
:10174000409381028193919302C0E0E0F0E0CF01E9
:10175000DF91CF910895CF93DF93009709F487C06D
:10176000FC01329713821282C0918302D0918402CD
:10177000209781F420813181280F391F80918102C7
:10178000909182028217930779F5F0938202E09399
:1017900081026DC0DE0120E030E0AE17BF0750F4DB
:1017A00012964D915C9113979D014115510509F1D8
:1017B000DA01F3CFB383A28340815181840F951F57
:1017C0008A179B0771F48D919C911197840F951F37
:1017D00002969183808312968D919C9113979383A7
:1017E00082832115310529F4F0938402E09383026A
:1017F0003EC0D9011396FC93EE9312974D915D91E3
:10180000A40FB51FEA17FB0779F480819181840F3B
:10181000951F0296D90111969C938E938281938194
:1018200013969C938E931297E0E0F0E08A819B815F
:10183000009719F0FE01EC01F9CFCE010296288144
:101840003981820F931F20918102309182022817E3
:10185000390769F4309729F41092840210928302B8
:1018600002C013821282D0938202C0938102DF9160
:10187000CF910895FB01DC0102C001900D9241500F
:101880005040D8F7089510E0C6ECD0E004C0FE0147
:101890000E940F0B2296C83CD107C9F7F894FFCFDE
:1018A00000008502800061646174612073656E745C
:1018B0000072656365697665206661696C656400C0
:1018C00072656365697665643A200000000000F285
:1018D00003B7095E04D10344047604000000003B12
:1018E00008B709BD07D607C80719080D0A006E61B9
:0C18F0006E00696E66006F7666002E00C8
:00000001FF
