:100000000C9464000C948C000C948C000C945004A0
:100010000C9450040C9450040C948C000C948C00A0
:100020000C948C000C948C000C948C000C948C0020
:100030000C948C000C948C000C948C000C948C0010
:100040000C94D10A0C948C000C94BE070C94F0070D
:100050000C948C000C948C000C948C000C948C00F0
:100060000C948C000C948C0000000008000201002D
:100070000003040700000000000000000102040863
:100080001020408001020408102001020408102002
:10009000040404040404040402020202020203032E
:1000A00003030303000000002300260029000000D2
:1000B0000000250028002B0000000000240027007D
:1000C0002A00AB002008B20011241FBECFEFD8E0F9
:1000D000DEBFCDBF11E0A0E0B1E0E2EEFBE102C087
:1000E00005900D92AE38B107D9F722E0AEE8B1E045
:1000F00001C01D92A53AB207E1F710E0C6ECD0E0CE
:1001000004C02297FE010E94E00DC23CD107C9F74E
:100110000E9464080C94E40D0C940000FC01819191
:1001200020E030E0919189272F5F3F4F2231310548
:10013000C9F7089526E040E452E46FE070E08FEFE5
:1001400091E00E945C0740E855E260E070E08CE9D5
:1001500091E00C94530520E043E062E08CE991E0EB
:100160000C9423058CE991E00C94CA043F924F92C1
:100170005F926F927F928F929F92AF92BF92CF9237
:10018000DF92EF92FF920F931F93CF93DF93CDB740
:10019000DEB76B970FB6F894DEBF0FBECDBF8E01F2
:1001A0000F5F1F4F83E1D8011D928A95E9F7C12C9B
:1001B000D12C7601BB24B3948FEF91E00E94790695
:1001C00018161906CCF78FEF91E00E94920684363C
:1001D00039F490918F01911103C0B0928F010BC03F
:1001E00010928F01F801EC0DFD1D8083BFEFCB1A3B
:1001F000DB0AEB0AFB0AE3E1CE16D104E104F104C9
:10020000DCF2FF24F3948FEF91E00E947906181638
:100210001906CCF78FEF91E00E949206C82EF4E603
:100220008F1307C080918F01811103C0F0928F015D
:10023000EACF10928F018981883609F489C060E085
:1002400071E08CE991E00E94BE08C0909801D090C6
:100250009901E0909A01F0909B012FEFC21AD20A07
:10026000E20AF20AC0929801D0929901E0929A01B2
:10027000F0929B016091940170919501809196019B
:10028000909197016F5F7F4F8F4F9F4F60939401C5
:100290007093950180939601909397011C141D040F
:1002A0001E041F04E4F40E945A0C20E030E048ECE5
:1002B00052E40E940E0D4B015C01C701B6010E9481
:1002C0005A0C9B01AC01C501B4010E94BF0B6093A5
:1002D000900170939101809392019093930168E053
:1002E00071E08CE991E00E94B10840919001509139
:1002F0009101609192017091930122E030E08CE9CC
:1003000091E00E94BD0A63E171E08CE991E00E94F6
:10031000BE088091980190919901A0919A01B091A5
:100320009B01883E9340A105B10509F0ABC1109235
:1003300098011092990110929A0110929B011092CB
:1003400094011092950110929601109297019AC112
:100350008B81833739F065E171E08CE991E00E948F
:10036000BE0830C08B89853619F06DE171E0A6C0FA
:1003700065E271E08CE991E00E94B108DA80ED2C31
:10038000FF24E7FCF0944AE050E0B7018CE991E0EB
:100390000E94BC0920918E012F3749F0332727FD99
:1003A00030952F5F3F4FE216F30621F47EC0DD202B
:1003B00009F47BC06FE271E08CE991E00E94BE0815
:1003C000D0928E01C0909801D0909901E0909A014E
:1003D000F0909B01FFEFCF1ADF0AEF0AFF0AC092ED
:1003E0009801D0929901E0929A01F0929B0160915C
:1003F00094017091950180919601909197016F5FA2
:100400007F4F8F4F9F4F609394017093950180931E
:100410009601909397011C141D041E041F04E4F41C
:100420000E945A0C20E030E048EC52E40E940E0D8D
:100430004B015C01C701B6010E945A0C9B01AC0143
:10044000C501B4010E94BF0B6093900170939101AC
:10045000809392019093930168E071E08CE991E0C0
:100460000E94B108409190015091910160919201D8
:100470007091930122E030E08CE991E00E94BD0A86
:1004800063E171E08CE991E00E94BE0880919801DF
:1004900090919901A0919A01B0919B01883E93405F
:1004A000A105B10509F0EEC042CFD0928E01C8017E
:1004B0000E948E00C816A1F06BE371E08CE991E018
:1004C0000E94BE08C0909801D0909901E0909A01D6
:1004D000F0909B018FEFC81AD80AE80AF80AC2CE3A
:1004E0003C800D811E818F809884A984BA848B857D
:1004F0009C85AD85BE85888F998FAA8FBB8F8F8590
:100500009889A989BA898C8B9D8BAE8BBF8BC09043
:100510009801D0909901E0909A01F0909B019FEF93
:10052000C91AD90AE90AF90AC0929801D092990128
:10053000E0929A01F0929B011C141D041E041F04FA
:1005400024F56091940170919501809196019091AC
:1005500097010E945A0C20E030E048EC52E40E94DF
:100560000E0D2B013C01C701B6010E945A0C9B01E4
:10057000AC01C301B2010E94BF0B60939001709364
:100580009101809392019093930168E071E08CE96E
:1005900091E00E94B10840919001509191016091C9
:1005A00092017091930122E030E08CE991E00E9489
:1005B000BD0A63E171E08CE991E00E94BE08809180
:1005C000980190919901A0919A01B0919B01883E68
:1005D0009340A105B10581F4109298011092990100
:1005E00010929A0110929B01109294011092950121
:1005F000109296011092970168E471E08CE991E005
:100600000E94B108632D8CE991E00E94D0086CE44F
:1006100071E08CE991E00E94B1084AE050E0B80135
:100620008CE991E00E94850960E571E08CE991E038
:100630000E94B1082AE030E0B501A4018CE991E004
:100640000E949D0964E571E08CE991E00E94B10887
:1006500022E030E0488D598D6A8D7B8D8CE991E0E8
:100660000E94BF0A68E571E08CE991E00E94B10840
:1006700022E030E04C895D896E897F898CE991E0C8
:100680000E94BF0A8CE991E06B960FB6F894DEBF2A
:100690000FBECDBFDF91CF911F910F91FF90EF90D3
:1006A000DF90CF90BF90AF909F908F907F906F9092
:1006B0005F904F903F900C94BA082091FD013091CB
:1006C000FE0128173907B9F49091BB018091BC0154
:1006D000981789F0E091BB01F0E0E354FE4F808170
:1006E0002091BB0130E02F5F3F4F2F7333272093C2
:1006F000BB0190E008958FEF9FEF08951F93CF9374
:10070000DF93DC015C968D919C915D97009749F495
:1007100081E090E013969C938E93129780E090E096
:100720003BC05196ED91FC91529750962C91509769
:10073000322F30951FB75E964C915E9741FB77271D
:1007400070F941FD6095F8944081772311F0422BB8
:1007500001C043234083EC012197F1F748E0508129
:1007600060FF02C0522B01C053235083EC0121973C
:10077000F1F76695415099F78081772311F0832333
:1007800001C0822B80831FBF5C968D919C915D97E9
:100790000197F1F781E090E0DF91CF911F910895EB
:1007A0002091FD013091FE012817390781F49091C5
:1007B000BB018091BC01981751F0E091BB01F0E0C2
:1007C000E354FE4F8081992787FD909508958FEF20
:1007D0009FEF08952091FD013091FE012817390700
:1007E00071F48091BC012091BB0190E0805C9F4F2F
:1007F000821B910960E470E00E94750D089580E00D
:1008000090E008952091FD013091FE0128173907ED
:1008100039F48FB7F8941092BC011092BB018FBFCE
:100820000895E091FD01F091FE01E817F90769F4E0
:10083000A389B4899C918589809589238C93109292
:10084000FE011092FD0181E0089580E00895CF93AC
:10085000DF93EC018A8D9B8D892BF1F08091FD0156
:100860009091FE018C179D07B9F0009711F00E943E
:1008700011048E8D8E7F8E8F1092BC011092BB0161
:10088000D093FE01C093FD01EB89FC8980819D8995
:10089000892B808381E001C080E0DF91CF910895B2
:1008A0001F920F920FB60F9211242F933F934F93E5
:1008B0005F936F937F938F939F93AF93BF93EF93C8
:1008C000FF93E091FD01F091FE01309709F451C0D2
:1008D000868DA685B785958581FF04C08C91892377
:1008E00029F447C08C91892309F043C0A389B489B6
:1008F0009C918589809589238C9386899789019716
:10090000F1F7208D318DA685B785758558E040E0DB
:10091000C9010197F1F7842F90E095958795482FAD
:100920006C91672309F04068515091F7868D81FDE5
:1009300040958091BC0190E001968F73992720919A
:10094000BB01281749F0A091BC01B0E0A354BE4FF1
:100950004C938093BC0103C0868D8160868F828D0D
:10096000938D0197F1F7A389B4898C919589892B8F
:100970008C93FF91EF91BF91AF919F918F917F9158
:100980006F915F914F913F912F910F900FBE0F90FC
:100990001F90189520E631E0FC01318320830C94F0
:1009A00011041F93CF93DF93EC01162F6E8D669584
:1009B000617081E06827812F0E94430661E0812FEA
:1009C0000E940A06812F90E0FC01E458FF4FE49159
:1009D000E88BFC01E057FF4FE491F0E0EE0FFF1FC2
:1009E000E255FF4F859194919A8B898BDF91CF913E
:1009F0001F9108951F93CF93DF93EC01162F60E0B2
:100A0000812F0E940A068E8D81FD04C061E0812F36
:100A10000E9443061C87812F90E0FC01E458FF4FA1
:100A2000E491ED87FC01E057FF4FE491F0E0EE0F19
:100A3000FF1FEC55FF4F859194919F878E87DF9123
:100A4000CF911F910895FF920F931F93CF93DF9340
:100A5000EC01F62E522F1B821A8208EE13E020E0E2
:100A600030E00C831D832E833F8380E691E09983E1
:100A700088831F8A1E8A198E188E1B8E1A8E1D8ED1
:100A80001C8E8E8D8E7F50FB81F98E8F642FCE0150
:100A90000E94D1046F2DCE01DF91CF911F910F9154
:100AA000FF900C94FA04CF93DF93EC019A01AB0111
:100AB0001B8E1A8E198E188E1F8A1E8A60E079E0AE
:100AC0008DE390E00E94AB0DC9012430310520F088
:100AD000B9016350710902C061E070E07D8F6C8FD5
:100AE000EC85E63108F068C0B90176956795643108
:100AF000710518F06351710902C061E070E07F8BED
:100B00006E8B069718F0C901059702C081E090E04E
:100B1000998F888FC901880F991F820F931F96950F
:100B20008795969587958D30910510F00C9702C0AA
:100B300081E090E09B8F8A8F20916800E83050F030
:100B400091E0EE3008F490E081E001C0880F9A95C2
:100B5000EAF701C084E0822B809368002C8528305E
:100B600038F02E3040F0263148F48CE690E008C092
:100B70008DE690E005C08BE690E002C080E090E05A
:100B80009C8B8B8B283030F481E001C0880F2A9534
:100B9000EAF70DC0822F90E02E3010F4089701C0C4
:100BA0000E9791E001C0990F8A95EAF7892F8D8BF6
:100BB0008C8D9D8D0197F1F7CE01DF91CF910C9433
:100BC0002704833081F028F4813099F08230A1F03D
:100BD00008958730A9F08830B9F08430D1F480913D
:100BE00080008F7D03C0809180008F77809380008C
:100BF000089584B58F7702C084B58F7D84BD089534
:100C00008091B0008F7703C08091B0008F7D80937A
:100C1000B0000895CF93DF9390E0FC01E458FF4FBC
:100C20002491FC01E057FF4F8491882349F190E023
:100C3000880F991FFC01E854FF4FA591B49182558C
:100C40009F4FFC01C591D4919FB7611108C0F894E2
:100C50008C91209582238C93888182230AC06230F4
:100C600051F4F8948C91322F309583238C938881A2
:100C7000822B888304C0F8948C91822B8C939FBF25
:100C8000DF91CF9108950F931F93CF93DF931F921E
:100C9000CDB7DEB7282F30E0F901E859FF4F849136
:100CA000F901E458FF4F1491F901E057FF4F049107
:100CB0000023C9F0882321F069830E94E10569813E
:100CC000E02FF0E0EE0FFF1FE255FF4FA591B4912A
:100CD0009FB7F8948C91611103C01095812301C0D6
:100CE000812B8C939FBF0F90DF91CF911F910F911C
:100CF0000895FC01818D228D90E0805C9F4F821BC6
:100D000091098F7399270895FC01918D828D981711
:100D100031F0828DE80FF11D858D90E008958FEF01
:100D20009FEF0895FC01918D828D981761F0828D5F
:100D3000DF01A80FB11D5D968C91928D9F5F9F730F
:100D4000928F90E008958FEF9FEF089586E198E0ED
:100D5000892B49F080E090E0892B29F00E94160849
:100D600081110C9400000895FC01848DDF01A80F0F
:100D7000B11DA35ABF4F2C91848D90E001968F73C3
:100D80009927848FA689B7892C93A089B1898C91E2
:100D900080648C93938D848D981306C00288F389A8
:100DA000E02D80818F7D80830895CF93DF93EC01C8
:100DB000888D8823C9F0EA89FB89808185FD05C07B
:100DC000A889B9898C9186FD0FC00FB607FCF5CFB5
:100DD000808185FFF2CFA889B9898C9185FFEDCFFD
:100DE000CE010E94B406E7CFDF91CF910895CF9254
:100DF000DF92FF920F931F93CF93DF931F92CDB794
:100E0000DEB76C0181E0D60158968C9358975B96BB
:100E10009C915B975C968C915C97981307C0509659
:100E2000ED91FC915197808185FD2EC0F601038DD7
:100E300010E00F5F1F4F0F731127F02EF601848D06
:100E4000F81211C00FB607FCF9CFD6015096ED91FC
:100E5000FC915197808185FFF1CFC60169830E9483
:100E6000B4066981EBCF838DE80FF11DE35AFF4F84
:100E70006083D6015B960C935B975296ED91FC9143
:100E80005397808180620CC0D6015696ED91FC91FB
:100E9000579760835096ED91FC91519780818064C3
:100EA000808381E090E00F90DF91CF911F910F91AF
:100EB000FF90DF90CF900895BF92CF92DF92EF9294
:100EC000FF92CF93DF93EC016A017B01B22EE88998
:100ED000F98982E08083411581EE5807610571052B
:100EE000A1F060E079E08DE390E0A70196010E9417
:100EF000890D21503109410951095695479537957A
:100F00002795211580E1380798F0E889F989108242
:100F100060E874E88EE190E0A70196010E94890DD7
:100F20002150310941095109569547953795279523
:100F3000EC85FD853083EE85FF852083188EEC8956
:100F4000FD89B082EA89FB89808180618083EA899A
:100F5000FB89808188608083EA89FB898081806841
:100F60008083EA89FB8980818F7D8083DF91CF91A7
:100F7000FF90EF90DF90CF90BF9008951F920F9257
:100F80000FB60F9211242F938F939F93EF93FF939C
:100F9000E0910F02F09110028081E0911502F09132
:100FA000160282FD12C09081809118028F5F8F73AC
:100FB00020911902821751F0E0911802F0E0E150FF
:100FC000FE4F958F8093180201C08081FF91EF91B1
:100FD0009F918F912F910F900FBE0F901F9018959A
:100FE0001F920F920FB60F9211242F933F934F939E
:100FF0005F936F937F938F939F93AF93BF93EF9381
:10100000FF938FEF91E00E94B406FF91EF91BF91A3
:10101000AF919F918F917F916F915F914F913F9190
:101020002F910F900FBE0F901F9018958FEF91E0AA
:101030000E94790621E0892B09F420E0822F08958F
:10104000109202021092010288EE93E0A0E0B0E05C
:101050008093030290930402A0930502B0930602CA
:1010600080E791E0909300028093FF0185EC90E08F
:1010700090930C0280930B0284EC90E090930E020C
:1010800080930D0280EC90E09093100280930F0209
:1010900081EC90E0909312028093110282EC90E038
:1010A000909314028093130286EC90E090931602C2
:1010B00080931502109218021092190210921A02CF
:1010C00010921B02089508950E941B0B0E94630852
:1010D0000E949A00C6EAD6E00E94B6002097E1F38B
:1010E0000E94A606F9CFCF92DF92EF92FF920F9364
:1010F0001F93CF93DF936C017A01EB01E60EF71E8D
:1011000000E010E0CE15DF0561F06991D601ED91A8
:10111000FC910190F081E02DC6010995080F191F7F
:10112000F1CFC801DF91CF911F910F91FF90EF9008
:10113000DF90CF9008956115710581F0DB010D906E
:101140000020E9F7AD0141505109461B570BDC0166
:10115000ED91FC910280F381E02D099480E090E014
:1011600008950C949B08DC01ED91FC910190F081B5
:10117000E02D09946CE771E00C949B080F931F938A
:10118000CF93DF93EC010E949B088C01CE010E945B
:10119000BA08800F911FDF91CF911F910F91089591
:1011A0000F931F93CF93DF93EC010E94B3088C0140
:1011B000CE010E94BA08800F911FDF91CF911F913D
:1011C0000F9108958F929F92AF92BF92CF92DF922C
:1011D000EF92FF920F931F93CF93DF93CDB7DEB7BC
:1011E000A1970FB6F894DEBF0FBECDBF7C01C42E11
:1011F000E52FCB01D22E19A221E02D1510F02AE007
:10120000D22E8E010F5D1F4F8D2C912CA12CB12C55
:101210006C2D7E2FA50194010E94890D8C2DD29EEC
:1012200080191124015011098A3014F4805D01C025
:10123000895CF8018083211531054105510521F0B4
:10124000C22EE32FCA01E4CFB801C7010E949B0858
:10125000A1960FB6F894DEBF0FBECDBFDF91CF9140
:101260001F910F91FF90EF90DF90CF90BF90AF90C4
:101270009F908F900895CF92DF92EF92FF920F93FD
:101280001F93CF93DF93EC016A017B012115310598
:1012900079F4E881F9810190F081E02D642FDF91EC
:1012A000CF911F910F91FF90EF90DF90CF90099415
:1012B0002A303105E9F477FF1AC06DE20E94B308C5
:1012C0008C0144275527BA014C195D096E097F0925
:1012D0002AE0CE010E94E208800F911FDF91CF919A
:1012E0001F910F91FF90EF90DF90CF9008952AE02B
:1012F000B701A601CE01DF91CF911F910F91FF9011
:10130000EF90DF90CF900C94E2080F931F93CF9350
:10131000DF93EC019A01AB01662757FD6095762FAC
:101320000E943B098C01CE010E94BA08800F911FD8
:10133000DF91CF911F910F9108950F931F93CF933A
:10134000DF93EC010E943B098C01CE010E94BA0898
:10135000800F911FDF91CF911F910F91089521155B
:10136000310541F4DC01ED91FC910190F081E02D1B
:10137000642F09940C94E2080F931F93CF93DF938B
:10138000EC019A01AB0160E070E00E94AF098C01B2
:10139000CE010E94BA08800F911FDF91CF911F915B
:1013A0000F9108954F925F926F927F928F929F92CA
:1013B000AF92BF92CF92DF92EF92FF920F931F9363
:1013C000CF93DF93EC016A017B01B22E9A01AB014E
:1013D000C701B6010E94710D882319F06FE771E013
:1013E00027C026013701E89477F82FEF3FEF4FE74A
:1013F0005FE7C301B2010E94710D81110DC02FEF93
:101400003FEF4FE75FE7C301B2010E94BB0B181625
:101410001CF463E871E00CC02FEF3FEF4FE75FE48F
:10142000C701B6010E940A0D1816ACF467E871E016
:10143000CE01DF91CF911F910F91FF90EF90DF9040
:10144000CF90BF90AF909F908F907F906F905F9064
:101450004F900C949B082FEF3FEF4FE75FECC701D5
:10146000B6010E94BB0B87FDE1CF20E030E0A9016F
:10147000C701B6010E94BB0B87FF0AC06DE2CE0117
:101480000E94B3088C01F7FAF094F7F8F09402C0C8
:1014900000E010E0A12C60E070E080E09FE3AB147E
:1014A00041F020E030E040E251E40E94BF0BA39401
:1014B000F6CF9B01AC01C701B6010E94570B6B012F
:1014C0007C010E942C0C2B013C010E94580C9B01BA
:1014D000AC01C701B6010E94560B6B017C012AE0EA
:1014E000B301A201CE010E94E208080F191FBB2020
:1014F00039F06BE871E0CE010E949B08080F191FBC
:101500007B2C772041F120E030E040E251E4C7013C
:10151000B6010E940E0D6B017C010E94270C4B014D
:10152000AA2497FCA094BA2C2AE030E0B501A401CB
:10153000CE010E943B09080F191FC501B4010E948A
:101540005A0C9B01AC01C701B6010E94560B6B01FE
:101550007C017A94D6CFC801DF91CF911F910F9172
:10156000FF90EF90DF90CF90BF90AF909F908F90C3
:101570007F906F905F904F9008950C94D2090F93D5
:101580001F93CF93DF93EC010E94D2098C01CE010F
:101590000E94BA08800F911FDF91CF911F910F9188
:1015A00008951F920F920FB60F9211242F933F931D
:1015B0008F939F93AF93BF9380919D0290919E02D2
:1015C000A0919F02B091A00230919C0223E0230FD2
:1015D0002D3720F40196A11DB11D05C026E8230F6B
:1015E0000296A11DB11D20939C0280939D029093B1
:1015F0009E02A0939F02B093A0028091A1029091BD
:10160000A202A091A302B091A4020196A11DB11D56
:101610008093A1029093A202A093A302B093A4028C
:10162000BF91AF919F918F913F912F910F900FBEDE
:101630000F901F901895789484B5826084BD84B50E
:10164000816084BD85B5826085BD85B5816085BDBD
:10165000EEE6F0E0808181608083E1E8F0E01082D6
:10166000808182608083808181608083E0E8F0E017
:10167000808181608083E1EBF0E080818460808301
:10168000E0EBF0E0808181608083EAE7F0E0808138
:101690008460808380818260808380818160808398
:1016A0008081806880831092C10008955058BB27C4
:1016B000AA270ED075C166D130F06BD120F031F47D
:1016C0009F3F11F41EF45BC10EF4E095E7FB51C19E
:1016D000E92F77D180F3BA1762077307840795075C
:1016E00018F071F49EF58FC10EF4E0950B2EBA2F11
:1016F000A02D0B01B90190010C01CA01A001112418
:10170000FF27591B99F0593F50F4503E68F11A16C3
:10171000F040A22F232F342F4427585FF3CF469554
:1017200037952795A795F0405395C9F77EF41F1676
:10173000BA0B620B730B840BBAF09150A1F0FF0F40
:10174000BB1F661F771F881FC2F70EC0BA0F621F2C
:10175000731F841F48F4879577956795B795F7951C
:101760009E3F08F0B3CF9395880F08F09927EE0FAE
:10177000979587950895D9D008F481E008950CD005
:101780000FC107D140F0FED030F021F45F3F19F0D7
:10179000F0C0511139C1F3C014D198F39923C9F3A2
:1017A0005523B1F3951B550BBB27AA276217730767
:1017B000840738F09F5F5F4F220F331F441FAA1F1B
:1017C000A9F333D00E2E3AF0E0E830D091505040DB
:1017D000E695001CCAF729D0FE2F27D0660F771F89
:1017E000881FBB1F261737074807AB07B0E809F06B
:1017F000BB0B802DBF01FF2793585F4F2AF09E3F00
:10180000510568F0B6C000C15F3FECF3983EDCF3D1
:10181000869577956795B795F7959F5FC9F7880F78
:10182000911D9695879597F90895E1E0660F771FCA
:10183000881FBB1F621773078407BA0720F0621B5B
:10184000730B840BBA0BEE1F88F7E095089504D054
:101850006894B111D9C00895BCD088F09F5790F01A
:10186000B92F9927B751A0F0D1F0660F771F881FC5
:10187000991F1AF0BA95C9F712C0B13081F0C3D0E0
:10188000B1E00895C0C0672F782F8827B85F39F07E
:10189000B93FCCF3869577956795B395D9F73EF424
:1018A00090958095709561957F4F8F4F9F4F0895CC
:1018B000E89409C097FB3EF49095809570956195EA
:1018C0007F4F8F4F9F4F9923A9F0F92F96E9BB27A0
:1018D0009395F695879577956795B795F111F8CF1C
:1018E000FAF4BB0F11F460FF1BC06F5F7F4F8F4F87
:1018F0009F4F16C0882311F096E911C0772321F07D
:101900009EE8872F762F05C0662371F096E8862F14
:1019100070E060E02AF09A95660F771F881FDAF76B
:10192000880F9695879597F90895990F0008550F98
:10193000AA0BE0E8FEEF16161706E807F907C0F055
:1019400012161306E407F50798F0621B730B840B5D
:10195000950B39F40A2661F0232B242B252B21F437
:1019600008950A2609F4A140A6958FEF811D811DD7
:10197000089597F99F6780E870E060E008959FEF11
:1019800080EC089500240A94161617061806090616
:10199000089500240A9412161306140605060895E5
:1019A000092E0394000C11F4882352F0BB0F40F46D
:1019B000BF2B11F460FF04C06F5F7F4F8F4F9F4FAD
:1019C000089557FD9058440F551F59F05F3F71F02F
:1019D0004795880F97FB991F61F09F3F79F0879596
:1019E0000895121613061406551FF2CF4695F1DF1F
:1019F00008C0161617061806991FF1CF86957105AF
:101A0000610508940895E894BB2766277727CB01E2
:101A100097F908958ADF08F48FEF08950BD0C0CFAF
:101A2000B1DF28F0B6DF18F0952309F0A2CFA7CFD9
:101A30001124EACFC6DFA0F3959FD1F3950F50E0B4
:101A4000551F629FF001729FBB27F00DB11D639F70
:101A5000AA27F00DB11DAA1F649F6627B00DA11D16
:101A6000661F829F2227B00DA11D621F739FB00DBC
:101A7000A11D621F839FA00D611D221F749F33272C
:101A8000A00D611D231F849F600D211D822F762FC5
:101A90006A2F11249F5750408AF0E1F088234AF0C2
:101AA000EE0FFF1FBB1F661F771F881F915050400E
:101AB000A9F79E3F510570F05CCFA6CF5F3FECF3D6
:101AC000983EDCF3869577956795B795F795E795FA
:101AD0009F5FC1F7FE2B880F911D9695879597F90B
:101AE000089523DF880B990B089597FB072E16F4B2
:101AF000009407D077FD09D00E94CA0D07FC05D0DD
:101B00003EF4909581959F4F0895709561957F4F14
:101B10000895A1E21A2EAA1BBB1BFD010DC0AA1F2E
:101B2000BB1FEE1FFF1FA217B307E407F50720F046
:101B3000A21BB30BE40BF50B661F771F881F991FC1
:101B40001A9469F760957095809590959B01AC010A
:101B5000BD01CF010895052E97FB1EF400940E944D
:101B6000C20D57FD07D00E94890D07FC03D04EF42B
:101B70000C94C20D50954095309521953F4F4F4F95
:101B80005F4F089590958095709561957F4F8F4F29
:101B90009F4F0895AA1BBB1B51E107C0AA1FBB1F83
:101BA000A617B70710F0A61BB70B881F991F5A95E9
:101BB000A9F780959095BC01CD010895EE0FFF1F08
:101BC0000590F491E02D099410E0C6ECD0E004C03B
:101BD000FE010E94E00D2296C83CD107C9F7F89497
:021BE000FFCF35
:101BE200534F48206572720065727220726174658B
:101BF2003A2000250053545820657272004554580B
:101C02002065727200736571206E756D3A200073E3
:101C12006571206E756D2065727200636865636B15
:101C220073756D2065727200633A2000693A200074
:101C32006C3A2000663A2000643A2000000000005E
:101C42007E037308EA035D03D00302040000000070
:101C5200F7067308790692068406D5060D0A006E09
:0E1C6200616E00696E66006F7666002E0000EF
:00000001FF
