:100000000C9464000C948C000C948C000C944F03A2
:100010000C944F030C944F030C948C000C948C00A4
:100020000C948C000C948C000C948C000C948C0020
:100030000C948C000C948C000C948C000C948C0010
:100040000C94AB090C948C000C94BD060C94EF0638
:100050000C948C000C948C000C948C000C948C00F0
:100060000C948C000C948C0000000008000201002D
:100070000003040700000000000000000102040863
:100080001020408001020408102001020408102002
:10009000040404040404040402020202020203032E
:1000A00003030303000000002300260029000000D2
:1000B0000000250028002B0000000000240027007D
:1000C0002A0077011F077E0111241FBECFEFD8E061
:1000D000DEBFCDBF11E0A0E0B1E0E6E9F9E102C08A
:1000E00005900D92A83BB107D9F722E0A8EBB1E04B
:1000F00001C01D92AB3DB207E1F710E0C6ECD0E0C5
:1001000004C02297FE010E94BA0CC23CD107C9F775
:100110000E9463070C94BE0C0C94000040E452E46F
:100120006FE070E087ED91E00E94820140E855E2C7
:1001300060E070E088EB91E00C945204EF92FF9243
:100140000F931F93CF93DF93CDB7DEB760970FB6B2
:10015000F894DEBF0FBECDBF1092E2011092E40111
:100160001092E3011092E5011092E6011092E7016E
:100170001092E8011092E9011092EA011092EB014D
:100180001092EC011092ED011092EE011092EF012D
:100190001092F001CE0101967C018FE0F7011192DF
:1001A0008A95E9F781E0888B8E01005F1F4F2FE071
:1001B00030E040E050E0B70187ED91E00E94980107
:1001C000811124C08889823039F08330C1F08111D7
:1001D000EBCF60E071E015C06FE271E088EB91E079
:1001E0000E94BD076091D80188EB91E00E94CF0783
:1001F0006091D70188EB91E00E94CF07D5CF6FE4E3
:1002000071E088EB91E00E94BD07CECF8FE0F7014F
:10021000A2EEB1E001900D928A95E1F765E771E0F9
:1002200088EB91E00E94B0076091E20188EB91E0D9
:100230000E94CF0769E771E088EB91E00E94B00768
:100240006091E3017091E4014AE050E088EB91E0B5
:100250000E9484086DE771E088EB91E00E94B0078E
:100260004091E5015091E6016091E7017091E8014C
:100270002AE030E088EB91E00E949C0861E871E0A0
:1002800088EB91E00E94B0074091E9015091EA01AA
:100290006091EB017091EC0122E030E088EB91E09D
:1002A0000E94990965E871E088EB91E00E94B0072F
:1002B0004091ED015091EE016091EF017091F001DC
:1002C00022E030E088EB91E00E94990988EB91E010
:1002D0000E94B90760960FB6F894DEBF0FBECDBF7F
:1002E000DF91CF911F910F91FF90EF90089520E043
:1002F00043E062E088EB91E00C94220488EB91E00B
:100300000C94C903CF93DF93EC0126E085E392E0E0
:100310000E945B06198218821A821B821C821D822F
:100320001E821F8218861A861986DF91CF91089542
:10033000AF92BF92EF92FF920F931F93CF93DF93F1
:1003400000D000D0CDB7DEB77C015B0121153105AF
:100350004105510519F06115710511F4D80193C0DB
:1003600085E392E029833A834B835C830E9478057E
:10037000181619060CF08EC085E392E00E949105D4
:10038000F701608529813A814B815C81843641F493
:10039000962F611105C081E08087D8018C937EC0C3
:1003A000662311F0F7011086D70119966D917C91A3
:1003B0001A9761307105A9F01CF4672B49F06DC0E4
:1003C0006230710539F16330710509F448C065C0C8
:1003D000833709F05FC081E090E0F7019287818761
:1003E00059C0F7018183838322E030E0328721877F
:1003F000D70114821582168217829081891709F419
:1004000049C082E0F801808311968C9111978C93FA
:1004100090E044C0D7011496ED91FC911597EA0D38
:10042000FB1D808313969C911397982713969C939A
:10043000139714968D919D910D90BC91A02D0196CE
:10044000A11DB11DF70184839583A683B78382170D
:100450009307A407B507F1F483E090E0BFCFF7015D
:10046000828393819827938312861186891721F0BE
:1004700083E0D8018C9303C081E0F8018083D70129
:100480008C918F3711F41C9203C08F5FF70180832A
:1004900091E004C081E0D801BACF01C0892F0F904C
:1004A0000F900F900F90DF91CF911F910F91FF90C0
:1004B000EF90BF90AF9008952091330230913402B5
:1004C00028173907B9F49091F1018091F20198173A
:1004D00089F0E091F101F0E0ED50FE4F8081209134
:1004E000F10130E02F5F3F4F2F7333272093F1014D
:1004F00090E008958FEF9FEF08951F93CF93DF93C0
:10050000DC015C968D919C915D97009749F481E0A8
:1005100090E013969C938E93129780E090E03BC0FE
:100520005196ED91FC91529750962C915097322F05
:1005300030951FB75E964C915E9741FB772770F917
:1005400041FD6095F8944081772311F0422B01C062
:1005500043234083EC012197F1F748E0508160FF8D
:1005600002C0522B01C053235083EC012197F1F7B5
:100570006695415099F78081772311F0832301C05C
:10058000822B80831FBF5C968D919C915D97019714
:10059000F1F781E090E0DF91CF911F9108952091D4
:1005A0003302309134022817390781F49091F10118
:1005B0008091F201981751F0E091F101F0E0ED50D7
:1005C000FE4F8081992787FD909508958FEF9FEFCB
:1005D000089520913302309134022817390771F4BD
:1005E0008091F2012091F10190E0805C9F4F821B8D
:1005F000910960E470E00E944F0C089580E090E063
:10060000089520913302309134022817390739F4C4
:100610008FB7F8941092F2011092F1018FBF0895F4
:10062000E0913302F0913402E817F90769F4A389E5
:10063000B4899C918589809589238C93109234028A
:100640001092330281E0089580E00895CF93DF9304
:10065000EC018A8D9B8D892BF1F080913302909172
:1006600034028C179D07B9F0009711F00E94100317
:100670008E8D8E7F8E8F1092F2011092F101D093A9
:100680003402C0933302EB89FC8980819D89892BD8
:10069000808381E001C080E0DF91CF9108951F92B7
:1006A0000F920FB60F9211242F933F934F935F93A6
:1006B0006F937F938F939F93AF93BF93EF93FF932A
:1006C000E0913302F0913402309709F451C0868DE5
:1006D000A685B785958581FF04C08C91892329F46F
:1006E00047C08C91892309F043C0A389B4899C91A8
:1006F0008589809589238C93868997890197F1F75D
:10070000208D318DA685B785758558E040E0C901FB
:100710000197F1F7842F90E095958795482F6C917C
:10072000672309F04068515091F7868D81FD40950F
:100730008091F20190E001968F7399272091F10149
:10074000281749F0A091F201B0E0AD50BE4F4C9394
:100750008093F20103C0868D8160868F828D938D98
:100760000197F1F7A389B4898C919589892B8C9392
:10077000FF91EF91BF91AF919F918F917F916F9179
:100780005F914F913F912F910F900FBE0F901F904F
:1007900018952DE831E0FC01318320830C9410037F
:1007A0001F93CF93DF93EC01162F6E8D66956170CA
:1007B00081E06827812F0E94420561E0812F0E941D
:1007C0000905812F90E0FC01E458FF4FE491E88B8C
:1007D000FC01E057FF4FE491F0E0EE0FFF1FE25500
:1007E000FF4F859194919A8B898BDF91CF911F91C7
:1007F00008951F93CF93DF93EC01162F60E0812FB4
:100800000E9409058E8D81FD04C061E0812F0E9448
:1008100042051C87812F90E0FC01E458FF4FE491D2
:10082000ED87FC01E057FF4FE491F0E0EE0FFF1F72
:10083000EC55FF4F859194919F878E87DF91CF91E3
:100840001F910895FF920F931F93CF93DF93EC01B5
:10085000F62E522F1B821A8208EE13E020E030E0C1
:100860000C831D832E833F838DE891E099838883D9
:100870001F8A1E8A198E188E1B8E1A8E1D8E1C8E34
:100880008E8D8E7F50FB81F98E8F642FCE010E945A
:10089000D0036F2DCE01DF91CF911F910F91FF906B
:1008A0000C94F903CF93DF93EC019A01AB011B8EFB
:1008B0001A8E198E188E1F8A1E8A60E079E08DE3E9
:1008C00090E00E94850CC9012430310520F0B90167
:1008D0006350710902C061E070E07D8F6C8FEC8520
:1008E000E63108F068C0B901769567956431710505
:1008F00018F06351710902C061E070E07F8B6E8B6C
:10090000069718F0C901059702C081E090E0998F21
:10091000888FC901880F991F820F931F969587951D
:10092000969587958D30910510F00C9702C081E067
:1009300090E09B8F8A8F20916800E83050F091E022
:10094000EE3008F490E081E001C0880F9A95EAF754
:1009500001C084E0822B809368002C85283038F019
:100960002E3040F0263148F48CE690E008C08DE649
:1009700090E005C08BE690E002C080E090E09C8BA8
:100980008B8B283030F481E001C0880F2A95EAF77C
:100990000DC0822F90E02E3010F4089701C00E9702
:1009A00091E001C0990F8A95EAF7892F8D8B8C8D84
:1009B0009D8D0197F1F7CE01DF91CF910C94260325
:1009C000833081F028F4813099F08230A1F00895CD
:1009D0008730A9F08830B9F08430D1F4809180005C
:1009E0008F7D03C0809180008F7780938000089571
:1009F00084B58F7702C084B58F7D84BD08958091C2
:100A0000B0008F7703C08091B0008F7D8093B000DD
:100A10000895CF93DF9390E0FC01E458FF4F2491B9
:100A2000FC01E057FF4F8491882349F190E0880F43
:100A3000991FFC01E854FF4FA591B49182559F4F37
:100A4000FC01C591D4919FB7611108C0F8948C91B5
:100A5000209582238C93888182230AC0623051F4CE
:100A6000F8948C91322F309583238C938881822B3C
:100A7000888304C0F8948C91822B8C939FBFDF9164
:100A8000CF9108950F931F93CF93DF931F92CDB70C
:100A9000DEB7282F30E0F901E859FF4F8491F901C2
:100AA000E458FF4F1491F901E057FF4F04910023E0
:100AB000C9F0882321F069830E94E0046981E02F56
:100AC000F0E0EE0FFF1FE255FF4FA591B4919FB7E5
:100AD000F8948C91611103C01095812301C0812B82
:100AE0008C939FBF0F90DF91CF911F910F9108952D
:100AF000FC01818D228D90E0805C9F4F821B9109CB
:100B00008F7399270895FC01918D828D981731F08C
:100B1000828DE80FF11D858D90E008958FEF9FEF96
:100B20000895FC01918D828D981761F0828DDF010F
:100B3000A80FB11D5D968C91928D9F5F9F73928FD0
:100B400090E008958FEF9FEF089585E197E0892B5E
:100B500049F080E090E0892B29F00E94150781116F
:100B60000C9400000895FC01848DDF01A80FB11DD5
:100B7000A35ABF4F2C91848D90E001968F739927D3
:100B8000848FA689B7892C93A089B1898C918064C0
:100B90008C93938D848D981306C00288F389E02D81
:100BA00080818F7D80830895CF93DF93EC01888DC2
:100BB0008823C9F0EA89FB89808185FD05C0A88961
:100BC000B9898C9186FD0FC00FB607FCF5CF8081E7
:100BD00085FFF2CFA889B9898C9185FFEDCFCE0131
:100BE0000E94B305E7CFDF91CF910895CF92DF92B6
:100BF000FF920F931F93CF93DF931F92CDB7DEB772
:100C00006C0181E0D60158968C9358975B969C9125
:100C10005B975C968C915C97981307C05096ED910A
:100C2000FC915197808185FD2EC0F601038D10E067
:100C30000F5F1F4F0F731127F02EF601848DF812EE
:100C400011C00FB607FCF9CFD6015096ED91FC917B
:100C50005197808185FFF1CFC60169830E94B3055A
:100C60006981EBCF838DE80FF11DE35AFF4F60835D
:100C7000D6015B960C935B975296ED91FC9153973E
:100C8000808180620CC0D6015696ED91FC915797F9
:100C900060835096ED91FC915197808180648083B0
:100CA00081E090E00F90DF91CF911F910F91FF9025
:100CB000DF90CF900895BF92CF92DF92EF92FF9294
:100CC000CF93DF93EC016A017B01B22EE889F989A9
:100CD00082E08083411581EE580761057105A1F01E
:100CE00060E079E08DE390E0A70196010E94630C3B
:100CF0002150310941095109569547953795279556
:100D0000211580E1380798F0E889F989108260E8B8
:100D100074E88EE190E0A70196010E94630C2150D7
:100D20003109410951095695479537952795EC8525
:100D3000FD853083EE85FF852083188EEC89FD8943
:100D4000B082EA89FB89808180618083EA89FB899E
:100D5000808188608083EA89FB89808180688083C4
:100D6000EA89FB8980818F7D8083DF91CF91FF901D
:100D7000EF90DF90CF90BF9008951F920F920FB623
:100D80000F9211242F938F939F93EF93FF93E091F2
:100D90004502F09146028081E0914B02F0914C02B5
:100DA00082FD12C0908180914E028F5F8F732091DF
:100DB0004F02821751F0E0914E02F0E0EB5CFD4FE4
:100DC000958F80934E0201C08081FF91EF919F919A
:100DD0008F912F910F900FBE0F901F9018951F921B
:100DE0000F920FB60F9211242F933F934F935F935F
:100DF0006F937F938F939F93AF93BF93EF93FF93E3
:100E000085E392E00E94B305FF91EF91BF91AF910E
:100E10009F918F917F916F915F914F913F912F9112
:100E20000F900FBE0F901F90189585E392E00E94DF
:100E3000780521E0892B09F420E0822F0895109293
:100E400038021092370288EE93E0A0E0B0E0809381
:100E5000390290933A02A0933B02B0933C028DE991
:100E600091E0909336028093350285EC90E0909368
:100E700042028093410284EC90E09093440280937C
:100E8000430280EC90E0909346028093450281EC0F
:100E900090E0909348028093470282EC90E0909318
:100EA0004A028093490286EC90E090934C02809332
:100EB0004B0210924E0210924F021092500210926A
:100EC0005102089508950E94F5090E9462070E9448
:100ED0008E00C5EAD5E00E949E002097E1F30E94B3
:100EE000A505F9CFCF92DF92EF92FF920F931F9358
:100EF000CF93DF936C017A01EB01E60EF71E00E061
:100F000010E0CE15DF0561F06991D601ED91FC91FD
:100F10000190F081E02DC6010995080F191FF1CF4E
:100F2000C801DF91CF911F910F91FF90EF90DF905B
:100F3000CF9008956115710581F0DB010D900020BF
:100F4000E9F7AD0141505109461B570BDC01ED910A
:100F5000FC910280F381E02D099480E090E00895F7
:100F60000C949A07DC01ED91FC910190F081E02D49
:100F7000099469EA71E00C949A070F931F93CF9339
:100F8000DF93EC010E949A078C01CE010E94B90701
:100F9000800F911FDF91CF911F910F9108950F93B3
:100FA0001F93CF93DF93EC010E94B2078C01CE0117
:100FB0000E94B907800F911FDF91CF911F910F9170
:100FC00008958F929F92AF92BF92CF92DF92EF924D
:100FD000FF920F931F93CF93DF93CDB7DEB7A19707
:100FE0000FB6F894DEBF0FBECDBF7C01C42EE52F37
:100FF000CB01D22E19A221E02D1510F02AE0D22E1D
:101000008E010F5D1F4F8D2C912CA12CB12C6C2DBE
:101010007E2FA50194010E94630C8C2DD29E801915
:101020001124015011098A3014F4805D01C0895CDB
:10103000F8018083211531054105510521F0C22EAB
:10104000E32FCA01E4CFB801C7010E949A07A19615
:101050000FB6F894DEBF0FBECDBFDF91CF911F91C9
:101060000F91FF90EF90DF90CF90BF90AF909F9047
:101070008F900895CF92DF92EF92FF920F931F937C
:10108000CF93DF93EC016A017B012115310579F4DF
:10109000E881F9810190F081E02D642FDF91CF91FB
:1010A0001F910F91FF90EF90DF90CF9009942A301D
:1010B0003105E9F477FF1AC06DE20E94B2078C0196
:1010C00044275527BA014C195D096E097F092AE0AA
:1010D000CE010E94E107800F911FDF91CF911F91F8
:1010E0000F91FF90EF90DF90CF9008952AE0B70125
:1010F000A601CE01DF91CF911F910F91FF90EF904C
:10110000DF90CF900C94E1070F931F93CF93DF9361
:10111000EC019A01AB01662757FD6095762F0E947E
:101120003A088C01CE010E94B907800F911FDF9110
:10113000CF911F910F9108950F931F93CF93DF933A
:10114000EC010E943A088C01CE010E94B907800F81
:10115000911FDF91CF911F910F9108954F925F9250
:101160006F927F928F929F92AF92BF92CF92DF92B7
:10117000EF92FF920F931F93CF93DF93EC016A01DD
:101180007B01B22E9A01AB01C701B6010E944B0C44
:10119000882319F06CEA71E027C026013701E89432
:1011A00077F82FEF3FEF4FE75FE7C301B2010E94EF
:1011B0004B0C81110DC02FEF3FEF4FE75FE7C301ED
:1011C000B2010E94950A18161CF460EB71E00CC085
:1011D0002FEF3FEF4FE75FE4C701B6010E94E40B3A
:1011E0001816ACF464EB71E0CE01DF91CF911F9142
:1011F0000F91FF90EF90DF90CF90BF90AF909F90B6
:101200008F907F906F905F904F900C949A072FEF84
:101210003FEF4FE75FECC701B6010E94950A87FDDB
:10122000E1CF20E030E0A901C701B6010E94950A94
:1012300087FF0AC06DE2CE010E94B2078C01F7FA67
:10124000F094F7F8F09402C000E010E0A12C60E008
:1012500070E080E09FE3AB1441F020E030E040E23A
:1012600051E40E94990AA394F6CF9B01AC01C701F7
:10127000B6010E94310A6B017C010E94060B2B0112
:101280003C010E94320B9B01AC01C701B6010E94D8
:10129000300A6B017C012AE0B301A201CE010E9459
:1012A000E107080F191FBB2039F063E771E0CE0199
:1012B0000E949A07080F191F7B2C772041F120E02C
:1012C00030E040E251E4C701B6010E94E80B6B0137
:1012D0007C010E94010B4B01AA2497FCA094BA2C1C
:1012E0002AE030E0B501A401CE010E943A08080FBF
:1012F000191FC501B4010E94340B9B01AC01C70149
:10130000B6010E94300A6B017C017A94D6CFC801E5
:10131000DF91CF911F910F91FF90EF90DF90CF90D1
:10132000BF90AF909F908F907F906F905F904F9005
:1013300008950F931F93CF93DF93EC010E94AE08A3
:101340008C01CE010E94B907800F911FDF91CF91D0
:101350001F910F9108951F920F920FB60F921124B3
:101360002F933F938F939F93AF93BF938091D3021B
:101370009091D402A091D502B091D6023091D202C0
:1013800023E0230F2D3720F40196A11DB11D05C0C8
:1013900026E8230F0296A11DB11D2093D20280934F
:1013A000D3029093D402A093D502B093D602809139
:1013B000D7029091D802A091D902B091DA02019699
:1013C000A11DB11D8093D7029093D802A093D9029A
:1013D000B093DA02BF91AF919F918F913F912F917E
:1013E0000F900FBE0F901F901895789484B582606F
:1013F00084BD84B5816084BD85B5826085BD85B5B9
:10140000816085BDEEE6F0E0808181608083E1E867
:10141000F0E010828081826080838081816080839F
:10142000E0E8F0E0808181608083E1EBF0E08081A2
:1014300084608083E0EBF0E0808181608083EAE774
:10144000F0E08081846080838081826080838081FD
:10145000816080838081806880831092C1000895BC
:101460005058BB27AA270ED075C166D130F06BD17A
:1014700020F031F49F3F11F41EF45BC10EF4E095AF
:10148000E7FB51C1E92F77D180F3BA1762077307E1
:101490008407950718F071F49EF58FC10EF4E0955E
:1014A0000B2EBA2FA02D0B01B90190010C01CA011E
:1014B000A0011124FF27591B99F0593F50F4503EC9
:1014C00068F11A16F040A22F232F342F4427585FBB
:1014D000F3CF469537952795A795F0405395C9F7D3
:1014E0007EF41F16BA0B620B730B840BBAF091508B
:1014F000A1F0FF0FBB1F661F771F881FC2F70EC02A
:10150000BA0F621F731F841F48F4879577956795FC
:10151000B795F7959E3F08F0B3CF9395880F08F0E5
:101520009927EE0F979587950895D9D008F481E013
:1015300008950CD00FC107D140F0FED030F021F457
:101540005F3F19F0F0C0511139C1F3C014D198F3C5
:101550009923C9F35523B1F3951B550BBB27AA2734
:1015600062177307840738F09F5F5F4F220F331FA6
:10157000441FAA1FA9F333D00E2E3AF0E0E830D072
:1015800091505040E695001CCAF729D0FE2F27D075
:10159000660F771F881FBB1F261737074807AB0743
:1015A000B0E809F0BB0B802DBF01FF2793585F4FB8
:1015B0002AF09E3F510568F0B6C000C15F3FECF3D2
:1015C000983EDCF3869577956795B795F7959F5F7D
:1015D000C9F7880F911D9695879597F90895E1E0D1
:1015E000660F771F881FBB1F621773078407BA0730
:1015F00020F0621B730B840BBA0BEE1F88F7E0958B
:10160000089504D06894B111D9C00895BCD088F071
:101610009F5790F0B92F9927B751A0F0D1F0660FDE
:10162000771F881F991F1AF0BA95C9F712C0B130F9
:1016300081F0C3D0B1E00895C0C0672F782F88270C
:10164000B85F39F0B93FCCF3869577956795B39538
:10165000D9F73EF490958095709561957F4F8F4FA7
:101660009F4F0895E89409C097FB3EF490958095AC
:10167000709561957F4F8F4F9F4F9923A9F0F92F58
:1016800096E9BB279395F695879577956795B795D6
:10169000F111F8CFFAF4BB0F11F460FF1BC06F5FBC
:1016A0007F4F8F4F9F4F16C0882311F096E911C0CE
:1016B000772321F09EE8872F762F05C0662371F0EF
:1016C00096E8862F70E060E02AF09A95660F771F03
:1016D000881FDAF7880F9695879597F90895990FDF
:1016E0000008550FAA0BE0E8FEEF16161706E807EC
:1016F000F907C0F012161306E407F50798F0621B0D
:10170000730B840B950B39F40A2661F0232B242BE1
:10171000252B21F408950A2609F4A140A6958FEF00
:10172000811D811D089597F99F6780E870E060E052
:1017300008959FEF80EC089500240A94161617066A
:1017400018060906089500240A94121613061406B2
:1017500005060895092E0394000C11F4882352F015
:10176000BB0F40F4BF2B11F460FF04C06F5F7F4FCD
:101770008F4F9F4F089557FD9058440F551F59F0B4
:101780005F3F71F04795880F97FB991F61F09F3F6E
:1017900079F087950895121613061406551FF2CF97
:1017A0004695F1DF08C0161617061806991FF1CFE7
:1017B00086957105610508940895E894BB2766270E
:1017C0007727CB0197F908958ADF08F48FEF089502
:1017D0000BD0C0CFB1DF28F0B6DF18F0952309F0A9
:1017E000A2CFA7CF1124EACFC6DFA0F3959FD1F3F4
:1017F000950F50E0551F629FF001729FBB27F00DBF
:10180000B11D639FAA27F00DB11DAA1F649F662713
:10181000B00DA11D661F829F2227B00DA11D621F62
:10182000739FB00DA11D621F839FA00D611D221F1C
:10183000749F3327A00D611D231F849F600D211D00
:10184000822F762F6A2F11249F5750408AF0E1F0A3
:1018500088234AF0EE0FFF1FBB1F661F771F881FEC
:1018600091505040A9F79E3F510570F05CCFA6CF34
:101870005F3FECF3983EDCF3869577956795B795D7
:10188000F795E7959F5FC1F7FE2B880F911D969501
:10189000879597F9089523DF880B990B089597FB97
:1018A000072E16F4009407D077FD09D00E94A40CEF
:1018B00007FC05D03EF4909581959F4F0895709553
:1018C00061957F4F0895A1E21A2EAA1BBB1BFD0153
:1018D0000DC0AA1FBB1FEE1FFF1FA217B307E4070F
:1018E000F50720F0A21BB30BE40BF50B661F771F67
:1018F000881F991F1A9469F7609570958095909547
:101900009B01AC01BD01CF010895052E97FB1EF48C
:1019100000940E949C0C57FD07D00E94630C07FCAA
:1019200003D04EF40C949C0C509540953095219525
:101930003F4F4F4F5F4F08959095809570956195FB
:101940007F4F8F4F9F4F0895AA1BBB1B51E107C0CC
:10195000AA1FBB1FA617B70710F0A61BB70B881F3F
:10196000991F5A95A9F780959095BC01CD010895CE
:10197000EE0FFF1F0590F491E02D099410E0C6ECE6
:10198000D0E004C0FE010E94BA0C2296C83CD107E8
:06199000C9F7F894FFCF37
:10199600496E76616C6964207061636B6574206C56
:1019A600656E677468204F52207265636569766557
:1019B60020627566666572206572726F722E0049C6
:1019C6006E76616C6964207061636B657420736503
:1019D6007175656E6365206E756D6265722E004960
:1019E6006E76616C6964207061636B657420435226
:1019F600432E205061636B65742063757272757037
:101A06007465642E00633A2000693A20006C3A201F
:101A160000663A2000643A2000000000007D027251
:101A260007E9025C02CF02010300000000F605721E
:101A360007780591058305D4050D0A006E616E00D1
:081A4600696E66006F76660010
:00000001FF
