:100000000C9464000C948C000C948C000C944803A9
:100010000C9448030C9448030C948C000C948C00B2
:100020000C948C000C948C000C948C000C948C0020
:100030000C948C000C948C000C948C000C948C0010
:100040000C94A4090C948C000C94B6060C94E8064D
:100050000C948C000C948C000C948C000C948C00F0
:100060000C948C000C948C0000000008000201002D
:100070000003040700000000000000000102040863
:100080001020408001020408102001020408102002
:10009000040404040404040402020202020203032E
:1000A00003030303000000002300260029000000D2
:1000B0000000250028002B0000000000240027007D
:1000C0002A0072011807790111241FBECFEFD8E072
:1000D000DEBFCDBF11E0A0E0B1E0E8E8F9E102C089
:1000E00005900D92AA38B107D9F722E0AAE8B1E04D
:1000F00001C01D92AF3AB207E1F710E0C6ECD0E0C4
:1001000004C02297FE010E94B30CC23CD107C9F77C
:100110000E945C070C94B70C0C94000040E452E47D
:100120006FE070E089EA91E00E947D0140E855E2CD
:1001300060E070E08AE891E00C944B040F931F9309
:10014000CF93DF93CDB7DEB72F970FB6F894DEBF0E
:100150000FBECDBF1092B6011092B8011092B70138
:100160001092B9011092BA011092BB011092BC0119
:100170001092BD011092BE011092BF011092C001F9
:100180001092C1011092C2011092C3011092C401D9
:100190008E010F5F1F4F8FE0F80111928A95E9F7EA
:1001A0002FE030E040E050E0B80189EA91E00E94A1
:1001B00095018823A9F38091AB018823B1F060E019
:1001C00071E08AE891E00E94B6076091AA018AE88E
:1001D00091E00E94C8076091A9018AE891E00E941D
:1001E000C8078AE891E00E94B2078091AC01882399
:1001F00051F060E271E08AE891E00E94B6078AE877
:1002000091E00E94B2078FE0F801A6EBB1E0019007
:100210000D928A95E1F766E471E08AE891E00E9428
:10022000A9076091B6018AE891E00E94C8076AE4D4
:1002300071E08AE891E00E94A9076091B70170918E
:10024000B8014AE050E08AE891E00E947D086EE43F
:1002500071E08AE891E00E94A9074091B9015091AC
:10026000BA016091BB017091BC012AE030E08AE8DC
:1002700091E00E94950862E571E08AE891E00E94B1
:10028000A9074091BD015091BE016091BF017091DD
:10029000C00122E030E08AE891E00E94920966E520
:1002A00071E08AE891E00E94A9074091C101509154
:1002B000C2016091C3017091C40122E030E08AE87C
:1002C00091E00E9492098AE891E00E94B2072F967D
:1002D0000FB6F894DEBF0FBECDBFDF91CF911F9157
:1002E0000F91089520E043E062E08AE891E00C94E9
:1002F0001B048AE891E00C94C203CF93DF93EC01D6
:1003000026E089E092E00E945406198218821C823D
:100310001D821E821F82188619861A861A821B82E7
:100320001C861B86DF91CF910895EF92FF920F9369
:100330001F93CF93DF9300D000D0CDB7DEB77C0101
:100340008B01211531054105510509F49FC0611547
:10035000710509F49BC089E092E029833A834B83BD
:100360005C830E947105181619060CF091C089E093
:1003700092E00E948A05D7011A966C911A972981FA
:100380003A814B815C81843639F4962F611104C027
:1003900081E01A968C937DC0662311F0F7011286D6
:1003A000D7011B966D917C911C9761307105C1F04E
:1003B0001CF4672B49F069C06230710529F1633084
:1003C000710509F44BC061C0833729F481E090E0E6
:1003D000F70194878387D70112961C9212973BC02E
:1003E000F7018183858322E030E0348723871682FA
:1003F0001782108611869081891719F081E0828317
:1004000047C0F701128244C0D7011696ED91FC91C6
:100410001797E00FF11F808315969C9115979827E9
:1004200015969C93159716968D919D910D90BC9164
:10043000A02D0196A11DB11DF70186839783A0878A
:10044000B18782179307A407B50721F483E090E0F2
:1004500094878387D70113961C921AC0F70184836F
:1004600095819827958314861386891719F081E062
:10047000838301C01382F701818180838F3711F458
:10048000108204C08F5F808301C004C091E001C06E
:1004900090E0892F0F900F900F900F90DF91CF91E8
:1004A0001F910F91FF90EF900895209107023091D6
:1004B000080228173907B9F49091C5018091C60147
:1004C000981789F0E091C501F0E0E953FE4F808173
:1004D0002091C50130E02F5F3F4F2F7333272093CA
:1004E000C50190E008958FEF9FEF08951F93CF937C
:1004F000DF93DC015C968D919C915D97009749F4A8
:1005000081E090E013969C938E93129780E090E0A8
:100510003BC05196ED91FC91529750962C9150977B
:10052000322F30951FB75E964C915E9741FB77272F
:1005300070F941FD6095F8944081772311F0422BCA
:1005400001C043234083EC012197F1F748E050813B
:1005500060FF02C0522B01C053235083EC0121974E
:10056000F1F76695415099F78081772311F0832345
:1005700001C0822B80831FBF5C968D919C915D97FB
:100580000197F1F781E090E0DF91CF911F910895FD
:1005900020910702309108022817390781F49091C1
:1005A000C5018091C601981751F0E091C501F0E0B6
:1005B000E953FE4F8081992787FD909508958FEF2D
:1005C0009FEF0895209107023091080228173907FC
:1005D00071F48091C6012091C50190E0805C9F4F2D
:1005E000821B910960E470E00E94480C089580E04D
:1005F00090E00895209107023091080228173907EA
:1006000039F48FB7F8941092C6011092C5018FBFCC
:100610000895E0910702F0910802E817F90769F4DC
:10062000A389B4899C918589809589238C931092A4
:1006300008021092070281E0089580E00895CF93A8
:10064000DF93EC018A8D9B8D892BF1F0809107025D
:10065000909108028C179D07B9F0009711F00E9445
:1006600009038E8D8E7F8E8F1092C6011092C50168
:10067000D0930802C0930702EB89FC8980819D8991
:10068000892B808381E001C080E0DF91CF910895C4
:100690001F920F920FB60F9211242F933F934F93F7
:1006A0005F936F937F938F939F93AF93BF93EF93DA
:1006B000FF93E0910702F0910802309709F451C0CE
:1006C000868DA685B785958581FF04C08C91892389
:1006D00029F447C08C91892309F043C0A389B489C8
:1006E0009C918589809589238C9386899789019728
:1006F000F1F7208D318DA685B785758558E040E0EE
:10070000C9010197F1F7842F90E095958795482FBF
:100710006C91672309F04068515091F7868D81FDF7
:1007200040958091C60190E001968F7399272091A2
:10073000C501281749F0A091C601B0E0A953BE4FEA
:100740004C938093C60103C0868D8160868F828D15
:10075000938D0197F1F7A389B4898C919589892BA1
:100760008C93FF91EF91BF91AF919F918F917F916A
:100770006F915F914F913F912F910F900FBE0F900E
:100780001F9018952EE531E0FC01318320830C94F5
:1007900009031F93CF93DF93EC01162F6E8D66959F
:1007A000617081E06827812F0E943B0561E0812F05
:1007B0000E940205812F90E0FC01E458FF4FE49174
:1007C000E88BFC01E057FF4FE491F0E0EE0FFF1FD4
:1007D000E255FF4F859194919A8B898BDF91CF9150
:1007E0001F9108951F93CF93DF93EC01162F60E0C4
:1007F000812F0E9402058E8D81FD04C061E0812F52
:100800000E943B051C87812F90E0FC01E458FF4FBC
:10081000E491ED87FC01E057FF4FE491F0E0EE0F2B
:10082000FF1FEC55FF4F859194919F878E87DF9135
:10083000CF911F910895FF920F931F93CF93DF9352
:10084000EC01F62E522F1B821A8208EE13E020E0F4
:1008500030E00C831D832E833F838EE591E09983E6
:1008600088831F8A1E8A198E188E1B8E1A8E1D8EE3
:100870001C8E8E8D8E7F50FB81F98E8F642FCE0162
:100880000E94C9036F2DCE01DF91CF911F910F916F
:10089000FF900C94F203CF93DF93EC019A01AB012C
:1008A0001B8E1A8E198E188E1F8A1E8A60E079E0C0
:1008B0008DE390E00E947E0CC9012430310520F0C8
:1008C000B9016350710902C061E070E07D8F6C8FE7
:1008D000EC85E63108F068C0B9017695679564311A
:1008E000710518F06351710902C061E070E07F8BFF
:1008F0006E8B069718F0C901059702C081E090E061
:10090000998F888FC901880F991F820F931F969521
:100910008795969587958D30910510F00C9702C0BC
:1009200081E090E09B8F8A8F20916800E83050F042
:1009300091E0EE3008F490E081E001C0880F9A95D4
:10094000EAF701C084E0822B809368002C85283070
:1009500038F02E3040F0263148F48CE690E008C0A4
:100960008DE690E005C08BE690E002C080E090E06C
:100970009C8B8B8B283030F481E001C0880F2A9546
:10098000EAF70DC0822F90E02E3010F4089701C0D6
:100990000E9791E001C0990F8A95EAF7892F8D8B08
:1009A0008C8D9D8D0197F1F7CE01DF91CF910C9445
:1009B0001F03833081F028F4813099F08230A1F058
:1009C00008958730A9F08830B9F08430D1F480914F
:1009D00080008F7D03C0809180008F77809380009E
:1009E000089584B58F7702C084B58F7D84BD089546
:1009F0008091B0008F7703C08091B0008F7D80938D
:100A0000B0000895CF93DF9390E0FC01E458FF4FCE
:100A10002491FC01E057FF4F8491882349F190E035
:100A2000880F991FFC01E854FF4FA591B49182559E
:100A30009F4FFC01C591D4919FB7611108C0F894F4
:100A40008C91209582238C93888182230AC0623006
:100A500051F4F8948C91322F309583238C938881B4
:100A6000822B888304C0F8948C91822B8C939FBF37
:100A7000DF91CF9108950F931F93CF93DF931F9230
:100A8000CDB7DEB7282F30E0F901E859FF4F849148
:100A9000F901E458FF4F1491F901E057FF4F049119
:100AA0000023C9F0882321F069830E94D904698159
:100AB000E02FF0E0EE0FFF1FE255FF4FA591B4913C
:100AC0009FB7F8948C91611103C01095812301C0E8
:100AD000812B8C939FBF0F90DF91CF911F910F912E
:100AE0000895FC01818D228D90E0805C9F4F821BD8
:100AF00091098F7399270895FC01918D828D981724
:100B000031F0828DE80FF11D858D90E008958FEF13
:100B10009FEF0895FC01918D828D981761F0828D71
:100B2000DF01A80FB11D5D968C91928D9F5F9F7321
:100B3000928F90E008958FEF9FEF08958EE097E0F9
:100B4000892B49F080E090E0892B29F00E940E0764
:100B500081110C9400000895FC01848DDF01A80F21
:100B6000B11DA35ABF4F2C91848D90E001968F73D5
:100B70009927848FA689B7892C93A089B1898C91F4
:100B800080648C93938D848D981306C00288F389BA
:100B9000E02D80818F7D80830895CF93DF93EC01DA
:100BA000888D8823C9F0EA89FB89808185FD05C08D
:100BB000A889B9898C9186FD0FC00FB607FCF5CFC7
:100BC000808185FFF2CFA889B9898C9185FFEDCF0F
:100BD000CE010E94AC05E7CFDF91CF910895CF926F
:100BE000DF92FF920F931F93CF93DF931F92CDB7A6
:100BF000DEB76C0181E0D60158968C9358975B96CE
:100C00009C915B975C968C915C97981307C050966B
:100C1000ED91FC915197808185FD2EC0F601038DE9
:100C200010E00F5F1F4F0F731127F02EF601848D18
:100C3000F81211C00FB607FCF9CFD6015096ED910E
:100C4000FC915197808185FFF1CFC60169830E9495
:100C5000AC056981EBCF838DE80FF11DE35AFF4F9F
:100C60006083D6015B960C935B975296ED91FC9155
:100C70005397808180620CC0D6015696ED91FC910D
:100C8000579760835096ED91FC91519780818064D5
:100C9000808381E090E00F90DF91CF911F910F91C1
:100CA000FF90DF90CF900895BF92CF92DF92EF92A6
:100CB000FF92CF93DF93EC016A017B01B22EE889AA
:100CC000F98982E08083411581EE5807610571053D
:100CD000A1F060E079E08DE390E0A70196010E9429
:100CE0005C0C2150310941095109569547953795BA
:100CF0002795211580E1380798F0E889F989108255
:100D000060E874E88EE190E0A70196010E945C0C17
:100D10002150310941095109569547953795279535
:100D2000EC85FD853083EE85FF852083188EEC8968
:100D3000FD89B082EA89FB89808180618083EA89AC
:100D4000FB89808188608083EA89FB898081806853
:100D50008083EA89FB8980818F7D8083DF91CF91B9
:100D6000FF90EF90DF90CF90BF9008951F920F9269
:100D70000FB60F9211242F938F939F93EF93FF93AE
:100D8000E0911902F0911A028081E0911F02F09126
:100D9000200282FD12C09081809122028F5F8F73AA
:100DA00020912302821751F0E0912202F0E0E75FE8
:100DB000FD4F958F8093220201C08081FF91EF91BA
:100DC0009F918F912F910F900FBE0F901F901895AC
:100DD0001F920F920FB60F9211242F933F934F93B0
:100DE0005F936F937F938F939F93AF93BF93EF9393
:100DF000FF9389E092E00E94AC05FF91EF91BF91D3
:100E0000AF919F918F917F916F915F914F913F91A2
:100E10002F910F900FBE0F901F90189589E092E0D0
:100E20000E94710521E0892B09F420E0822F0895AA
:100E300010920C0210920B0288EE93E0A0E0B0E05A
:100E400080930D0290930E02A0930F02B0931002B4
:100E50008EE691E090930A028093090285EC90E07F
:100E6000909316028093150284EC90E09093180200
:100E70008093170280EC90E090931A0280931902FD
:100E800081EC90E090931C0280931B0282EC90E036
:100E900090931E0280931D0286EC90E090932002B6
:100EA00080931F02109222021092230210922402B9
:100EB00010922502089508950E94EE090E945B0792
:100EC0000E948E00CEE9D5E00E949E002097E1F3BB
:100ED0000E949E05F9CFCF92DF92EF92FF920F937F
:100EE0001F93CF93DF936C017A01EB01E60EF71E9F
:100EF00000E010E0CE15DF0561F06991D601ED91BB
:100F0000FC910190F081E02DC6010995080F191F91
:100F1000F1CFC801DF91CF911F910F91FF90EF901A
:100F2000DF90CF9008956115710581F0DB010D9080
:100F30000020E9F7AD0141505109461B570BDC0178
:100F4000ED91FC910280F381E02D099480E090E026
:100F500008950C949307DC01ED91FC910190F081D0
:100F6000E02D09946AE771E00C9493070F931F93A7
:100F7000CF93DF93EC010E9493078C01CE010E9476
:100F8000B207800F911FDF91CF911F910F910895AC
:100F90000F931F93CF93DF93EC010E94AB078C015B
:100FA000CE010E94B207800F911FDF91CF911F9158
:100FB0000F9108958F929F92AF92BF92CF92DF923E
:100FC000EF92FF920F931F93CF93DF93CDB7DEB7CE
:100FD000A1970FB6F894DEBF0FBECDBF7C01C42E23
:100FE000E52FCB01D22E19A221E02D1510F02AE019
:100FF000D22E8E010F5D1F4F8D2C912CA12CB12C68
:101000006C2D7E2FA50194010E945C0C8C2DD29E2C
:1010100080191124015011098A3014F4805D01C037
:10102000895CF8018083211531054105510521F0C6
:10103000C22EE32FCA01E4CFB801C7010E94930773
:10104000A1960FB6F894DEBF0FBECDBFDF91CF9152
:101050001F910F91FF90EF90DF90CF90BF90AF90D6
:101060009F908F900895CF92DF92EF92FF920F930F
:101070001F93CF93DF93EC016A017B0121153105AA
:1010800079F4E881F9810190F081E02D642FDF91FE
:10109000CF911F910F91FF90EF90DF90CF90099427
:1010A0002A303105E9F477FF1AC06DE20E94AB07E0
:1010B0008C0144275527BA014C195D096E097F0937
:1010C0002AE0CE010E94DA07800F911FDF91CF91B5
:1010D0001F910F91FF90EF90DF90CF9008952AE03D
:1010E000B701A601CE01DF91CF911F910F91FF9023
:1010F000EF90DF90CF900C94DA070F931F93CF936C
:10110000DF93EC019A01AB01662757FD6095762FBE
:101110000E9433088C01CE010E94B207800F911FFC
:10112000DF91CF911F910F9108950F931F93CF934C
:10113000DF93EC010E9433088C01CE010E94B207BC
:10114000800F911FDF91CF911F910F9108954F92C2
:101150005F926F927F928F929F92AF92BF92CF9247
:10116000DF92EF92FF920F931F93CF93DF93EC01E7
:101170006A017B01B22E9A01AB01C701B6010E9440
:10118000440C882319F06DE771E027C02601370170
:10119000E89477F82FEF3FEF4FE75FE7C301B20125
:1011A0000E94440C81110DC02FEF3FEF4FE75FE726
:1011B000C301B2010E948E0A18161CF461E871E0A6
:1011C0000CC02FEF3FEF4FE75FE4C701B6010E946D
:1011D000DD0B1816ACF465E871E0CE01DF91CF911C
:1011E0001F910F91FF90EF90DF90CF90BF90AF9045
:1011F0009F908F907F906F905F904F900C9493078B
:101200002FEF3FEF4FE75FECC701B6010E948E0A58
:1012100087FDE1CF20E030E0A901C701B6010E94BF
:101220008E0A87FF0AC06DE2CE010E94AB078C01D7
:10123000F7FAF094F7F8F09402C000E010E0A12C67
:1012400060E070E080E09FE3AB1441F020E030E02C
:1012500040E251E40E94920AA394F6CF9B01AC01B4
:10126000C701B6010E942A0A6B017C010E94FF0A95
:101270002B013C010E942B0B9B01AC01C701B60165
:101280000E94290A6B017C012AE0B301A201CE0170
:101290000E94DA07080F191FBB2039F064E471E0DF
:1012A000CE010E949307080F191F7B2C772041F174
:1012B00020E030E040E251E4C701B6010E94E10BBA
:1012C0006B017C010E94FA0A4B01AA2497FCA094AE
:1012D000BA2C2AE030E0B501A401CE010E94330807
:1012E000080F191FC501B4010E942D0B9B01AC0111
:1012F000C701B6010E94290A6B017C017A94D6CFFE
:10130000C801DF91CF911F910F91FF90EF90DF9077
:10131000CF90BF90AF909F908F907F906F905F9095
:101320004F9008950F931F93CF93DF93EC010E948A
:10133000A7088C01CE010E94B207800F911FDF9198
:10134000CF911F910F9108951F920F920FB60F9298
:1013500011242F933F938F939F93AF93BF938091CB
:10136000A7029091A802A091A902B091AA0230917F
:10137000A60223E0230F2D3720F40196A11DB11DF5
:1013800005C026E8230F0296A11DB11D2093A602D9
:101390008093A7029093A802A093A902B093AA02F7
:1013A0008091AB029091AC02A091AD02B091AE02DF
:1013B0000196A11DB11D8093AB029093AC02A09346
:1013C000AD02B093AE02BF91AF919F918F913F91CB
:1013D0002F910F900FBE0F901F901895789484B5A1
:1013E000826084BD84B5816084BD85B5826085BD21
:1013F00085B5816085BDEEE6F0E080818160808307
:10140000E1E8F0E0108280818260808380818160E9
:101410008083E0E8F0E0808181608083E1EBF0E0B0
:10142000808184608083E0EBF0E080818160808354
:10143000EAE7F0E08081846080838081826080833D
:101440008081816080838081806880831092C10068
:1014500008955058BB27AA270ED075C166D130F029
:101460006BD120F031F49F3F11F41EF45BC10EF4F8
:10147000E095E7FB51C1E92F77D180F3BA176207F6
:1014800073078407950718F071F49EF58FC10EF469
:10149000E0950B2EBA2FA02D0B01B90190010C0184
:1014A000CA01A0011124FF27591B99F0593F50F49C
:1014B000503E68F11A16F040A22F232F342F4427F4
:1014C000585FF3CF469537952795A795F0405395EC
:1014D000C9F77EF41F16BA0B620B730B840BBAF0BC
:1014E0009150A1F0FF0FBB1F661F771F881FC2F727
:1014F0000EC0BA0F621F731F841F48F4879577953B
:101500006795B795F7959E3F08F0B3CF9395880FF1
:1015100008F09927EE0F979587950895D9D008F48C
:1015200081E008950CD00FC107D140F0FED030F01B
:1015300021F45F3F19F0F0C0511139C1F3C014D14B
:1015400098F39923C9F35523B1F3951B550BBB278A
:10155000AA2762177307840738F09F5F5F4F220F37
:10156000331F441FAA1FA9F333D00E2E3AF0E0E830
:1015700030D091505040E695001CCAF729D0FE2F7C
:1015800027D0660F771F881FBB1F2617370748070E
:10159000AB07B0E809F0BB0B802DBF01FF279358C4
:1015A0005F4F2AF09E3F510568F0B6C000C15F3F13
:1015B000ECF3983EDCF3869577956795B795F795AC
:1015C0009F5FC9F7880F911D9695879597F90895A4
:1015D000E1E0660F771F881FBB1F62177307840740
:1015E000BA0720F0621B730B840BBA0BEE1F88F74F
:1015F000E095089504D06894B111D9C00895BCD085
:1016000088F09F5790F0B92F9927B751A0F0D1F0EB
:10161000660F771F881F991F1AF0BA95C9F712C075
:10162000B13081F0C3D0B1E00895C0C0672F782FEA
:101630008827B85F39F0B93FCCF3869577956795E1
:10164000B395D9F73EF490958095709561957F4F4D
:101650008F4F9F4F0895E89409C097FB3EF49095F3
:101660008095709561957F4F8F4F9F4F9923A9F07B
:10167000F92F96E9BB279395F6958795779567950A
:10168000B795F111F8CFFAF4BB0F11F460FF1BC04E
:101690006F5F7F4F8F4F9F4F16C0882311F096E9E1
:1016A00011C0772321F09EE8872F762F05C066238F
:1016B00071F096E8862F70E060E02AF09A95660F48
:1016C000771F881FDAF7880F9695879597F9089501
:1016D000990F0008550FAA0BE0E8FEEF1616170643
:1016E000E807F907C0F012161306E407F50798F0AB
:1016F000621B730B840B950B39F40A2661F0232BC4
:10170000242B252B21F408950A2609F4A140A6953F
:101710008FEF811D811D089597F99F6780E870E024
:1017200060E008959FEF80EC089500240A94161657
:10173000170618060906089500240A9412161306BF
:10174000140605060895092E0394000C11F488234D
:1017500052F0BB0F40F4BF2B11F460FF04C06F5F69
:101760007F4F8F4F9F4F089557FD9058440F551F3F
:1017700059F05F3F71F04795880F97FB991F61F013
:101780009F3F79F087950895121613061406551F8A
:10179000F2CF4695F1DF08C0161617061806991FF6
:1017A000F1CF86957105610508940895E894BB27EB
:1017B00066277727CB0197F908958ADF08F48FEF22
:1017C00008950BD0C0CFB1DF28F0B6DF18F0952315
:1017D00009F0A2CFA7CF1124EACFC6DFA0F3959FCF
:1017E000D1F3950F50E0551F629FF001729FBB2708
:1017F000F00DB11D639FAA27F00DB11DAA1F649FB4
:101800006627B00DA11D661F829F2227B00DA11D66
:10181000621F739FB00DA11D621F839FA00D611DEC
:10182000221F749F3327A00D611D231F849F600D0D
:10183000211D822F762F6A2F11249F5750408AF046
:10184000E1F088234AF0EE0FFF1FBB1F661F771FD2
:10185000881F91505040A9F79E3F510570F05CCF12
:10186000A6CF5F3FECF3983EDCF3869577956795BE
:10187000B795F795E7959F5FC1F7FE2B880F911DF0
:101880009695879597F9089523DF880B990B08950E
:1018900097FB072E16F4009407D077FD09D00E941D
:1018A0009D0C07FC05D03EF4909581959F4F0895BF
:1018B000709561957F4F0895A1E21A2EAA1BBB1B5C
:1018C000FD010DC0AA1FBB1FEE1FFF1FA217B3070C
:1018D000E407F50720F0A21BB30BE40BF50B661F22
:1018E000771F881F991F1A9469F7609570958095E6
:1018F00090959B01AC01BD01CF010895052E97FB8A
:101900001EF400940E94950C57FD07D00E945C0CB9
:1019100007FC03D04EF40C94950C509540953095EF
:1019200021953F4F4F4F5F4F08959095809570954B
:1019300061957F4F8F4F9F4F0895AA1BBB1B51E1AD
:1019400007C0AA1FBB1FA617B70710F0A61BB70B2F
:10195000881F991F5A95A9F780959095BC01CD01D4
:101960000895EE0FFF1F0590F491E02D099410E00B
:10197000C6ECD0E004C0FE010E94B30C2296C83C25
:08198000D107C9F7F894FFCF6D
:10198800496E76616C6964207061636B657420735D
:10199800657175656E6365206E756D6265722E0082
:1019A800496E76616C6964207061636B657420436D
:1019B80052432E205061636B657420637572727593
:1019C800707465642E00633A2000693A20006C3A0E
:1019D8002000663A2000643A2000000000007602E9
:1019E8006B07E2025502C802FA0200000000EF0588
:1019F8006B0771058A057C05CD050D0A006E616EC1
:0A1A080000696E66006F766600004C
:00000001FF
