:100000000C9464000C948C000C948C000C9476027C
:100010000C9476020C9476020C948C000C948C0058
:100020000C948C000C948C000C948C000C948C0020
:100030000C948C000C948C000C948C000C948C0010
:100040000C944A0A0C948C000C945A070C948C075C
:100050000C948C000C948C000C948C000C948C00F0
:100060000C948C000C948C0000000008000201002D
:100070000003040700000000000000000102040863
:100080001020408001020408102001020408102002
:10009000040404040404040402020202020203032E
:1000A00003030303000000002300260029000000D2
:1000B0000000250028002B0000000000240027007D
:1000C0002A007801BC077F0111241FBECFEFD8E0C2
:1000D000DEBFCDBF11E0A0E0B1E0E4EDFAE102C087
:1000E00005900D92AA3BB107D9F722E0AAEBB1E047
:1000F00001C01D92AB3EB207E1F710E0C6ECD0E0C4
:1001000004C02297FE010E94590DC23CD107C9F7D5
:100110000E9400080C945D0D0C94000040E452E431
:100120006FE070E089ED91E00E94070440E855E23D
:1001300060E070E08AEB91E00C9479031092F20198
:100140001092F4011092F3011092F5011092F60151
:100150001092F7011092F8011092F9011092FA0131
:100160001092FB011092FC011092FD011092FE0111
:100170001092FF01109200026091F2017091F30160
:100180002FE030E040E050E089ED91E00E942B0448
:10019000882391F38091DB01882311F160E071E005
:1001A0008AEB91E00E945A0860E271E08AEB91E0EC
:1001B0000E944D086091D9018AEB91E00E946C0881
:1001C00062E371E08AEB91E00E944D086091DA01F0
:1001D0008AEB91E00E946C088AEB91E00E9456083D
:1001E0008091DC01882351F064E471E08AEB91E0B6
:1001F0000E945A088AEB91E00E9456086AE671E074
:100200008AEB91E00E944D084091E5015091E60192
:100210006091E7017091E80122E030E08AEB91E023
:100220000E94360A65E771E08AEB91E00E945A0865
:100230008AEB91E00E94560867E771E08AEB91E053
:100240000E944D086091F2018AEB91E00E946C08D7
:100250006BE771E08AEB91E00E944D086091F30139
:100260007091F4014AE050E08AEB91E00E9421098C
:100270006FE771E08AEB91E00E944D084091F50133
:100280005091F6016091F7017091F8012AE030E099
:100290008AEB91E00E94390963E871E08AEB91E012
:1002A0000E944D084091F9015091FA016091FB01C3
:1002B0007091FC0122E030E08AEB91E00E94380A64
:1002C00067E871E08AEB91E00E944D084091FD01E2
:1002D0005091FE016091FF017091000222E030E038
:1002E0008AEB91E00E94380A8AEB91E00C94560860
:1002F00020E043E062E08AEB91E00C9449038AEB52
:1003000091E00C94F00220914302309144022817AE
:100310003907B9F49091010280910202981789F08F
:10032000E0910102F0E0ED5FFD4F8081209101023C
:1003300030E02F5F3F4F2F7333272093010290E06F
:1003400008958FEF9FEF08951F93CF93DF93DC0104
:100350005C968D919C915D97009749F481E090E0C7
:1003600013969C938E93129780E090E03BC0519639
:10037000ED91FC91529750962C915097322F3095D9
:100380001FB75E964C915E9741FB772770F941FD50
:100390006095F8944081772311F0422B01C04323EC
:1003A0004083EC012197F1F748E0508160FF02C0E3
:1003B000522B01C053235083EC012197F1F766952E
:1003C000415099F78081772311F0832301C0822B5C
:1003D00080831FBF5C968D919C915D970197F1F78B
:1003E00081E090E0DF91CF911F9108952091430229
:1003F000309144022817390781F4909101028091CD
:100400000202981751F0E0910102F0E0ED5FFD4F1C
:100410008081992787FD909508958FEF9FEF08952C
:1004200020914302309144022817390771F48091DA
:1004300002022091010290E0805C9F4F821B910993
:1004400060E470E00E94EE0C089580E090E0089572
:1004500020914302309144022817390739F48FB7AD
:10046000F89410920202109201028FBF0895E09159
:100470004302F0914402E817F90769F4A389B489AB
:100480009C918589809589238C93109244021092C7
:10049000430281E0089580E00895CF93DF93EC015B
:1004A0008A8D9B8D892BF1F08091430290914402BB
:1004B0008C179D07B9F0009711F00E9437028E8DBE
:1004C0008E7F8E8F1092020210920102D09344020E
:1004D000C0934302EB89FC8980819D89892B8083AD
:1004E00081E001C080E0DF91CF9108951F920F92CB
:1004F0000FB60F9211242F933F934F935F936F93F7
:100500007F938F939F93AF93BF93EF93FF93E0916C
:100510004302F0914402309709F451C0868DA685BC
:10052000B785958581FF04C08C91892329F447C044
:100530008C91892309F043C0A389B4899C91858952
:10054000809589238C93868997890197F1F7208D6F
:10055000318DA685B785758558E040E0C9010197C2
:10056000F1F7842F90E095958795482F6C9167233C
:1005700009F04068515091F7868D81FD409580913A
:10058000020290E001968F739927209101022817AB
:1005900049F0A0910202B0E0AD5FBD4F4C93809353
:1005A000020203C0868D8160868F828D938D0197B4
:1005B000F1F7A389B4898C919589892B8C93FF914C
:1005C000EF91BF91AF919F918F917F916F915F91CB
:1005D0004F913F912F910F900FBE0F901F90189544
:1005E0002FE831E0FC01318320830C9437021F9304
:1005F000CF93DF93EC01162F6E8D6695617081E0CD
:100600006827812F0E94DF0561E0812F0E94A605E7
:10061000812F90E0FC01E458FF4FE491E88BFC014E
:10062000E057FF4FE491F0E0EE0FFF1FE255FF4F60
:10063000859194919A8B898BDF91CF911F91089529
:100640001F93CF93DF93EC01162F60E0812F0E9460
:10065000A6058E8D81FD04C061E0812F0E94DF051B
:100660001C87812F90E0FC01E458FF4FE491ED8757
:10067000FC01E057FF4FE491F0E0EE0FFF1FEC5557
:10068000FF4F859194919F878E87DF91CF911F9126
:100690000895FF920F931F93CF93DF93EC01F62EF3
:1006A000522F1B821A8208EE13E020E030E00C8308
:1006B0001D832E833F838FE891E0998388831F8A6F
:1006C0001E8A198E188E1B8E1A8E1D8E1C8E8E8D74
:1006D0008E7F50FB81F98E8F642FCE010E94F7022E
:1006E0006F2DCE01DF91CF911F910F91FF900C9450
:1006F0002003CF93DF93EC019A01AB011B8E1A8E7E
:10070000198E188E1F8A1E8A60E079E08DE390E0D2
:100710000E94240DC9012430310520F0B901635035
:10072000710902C061E070E07D8F6C8FEC85E6316D
:1007300008F068C0B901769567956431710518F0C5
:100740006351710902C061E070E07F8B6E8B069788
:1007500018F0C901059702C081E090E0998F888F59
:10076000C901880F991F820F931F969587959695BB
:1007700087958D30910510F00C9702C081E090E0D4
:100780009B8F8A8F20916800E83050F091E0EE3026
:1007900008F490E081E001C0880F9A95EAF701C063
:1007A00084E0822B809368002C85283038F02E302E
:1007B00040F0263148F48CE690E008C08DE690E0E9
:1007C00005C08BE690E002C080E090E09C8B8B8BB4
:1007D000283030F481E001C0880F2A95EAF70DC077
:1007E000822F90E02E3010F4089701C00E9791E010
:1007F00001C0990F8A95EAF7892F8D8B8C8D9D8D7D
:100800000197F1F7CE01DF91CF910C944D02CF9378
:10081000DF93EC0126E085E492E00E94F80619825D
:100820001882188A198A1A8A1B8A1C8A1D8A1E8AAB
:100830001A821B82188E1F8A1C821D821E821F82B2
:10084000188619861A861B861C861D861E861F869C
:10085000DF91CF9108958F929F92AF92BF92CF92E6
:10086000DF92EF92FF920F931F93CF93DF9300D00D
:1008700000D0CDB7DEB78C017B01211531054105D4
:10088000510509F425C16115710509F421C185E4FB
:1008900092E029833A834B835C830E9415061816E5
:1008A00019060CF017C185E492E00E942E06D801CB
:1008B00056966C91569729813A814B815C8184369A
:1008C00039F4962F611104C081E056968C9303C1D0
:1008D000662311F0F801168AD80157966D917C9124
:1008E00058976130710531F11CF4672B49F0EFC066
:1008F00062307105A1F16330710509F463C0E7C08E
:10090000833729F481E090E0F801908F878BD8013C
:1009100052961D921D921D921C92559750961C92B4
:10092000509751961C92519712961C9212971396BB
:100930001C92D0C0F8018183128A138A148A158A06
:10094000108A818B22E030E0308F278B90818917CD
:1009500019F081E08283BEC0F8011282BBC0D801C9
:100960005296ED91FC915397EE0DFF1D80835296A8
:100970008D919D910D90BC91A02DE80EF91EF8016E
:100980006189F70170816727F801618B6C017D0136
:10099000FFEFCF1ADF0AEF0AFF0AD8015296CD9275
:1009A000DD92ED92FC925597C216D306E406F50649
:1009B00031F483E090E058969C938E935797F8011A
:1009C000138288C0D80150968C93509758961C92E9
:1009D0001E92579751969C915197891721F081E06B
:1009E00013968C9302C0F8011382D80152961D927F
:1009F0001D921D921C92559711968C9111978C9374
:100A00008F3711F41C9203C08F5FF8018083D801E7
:100A10001496CD90DD90ED90FC901797BFEFCB1A18
:100A2000DB0AEB0AFB0AF801C482D582E682F78270
:100A30008381811103C08281882381F0D8011896B7
:100A40004D915D916D917C911B974F5F5F4F6F4F03
:100A50007F4FF80140875187628773871C141D04FC
:100A60001E041F04ACF5D80118966D917D918D91EF
:100A70009C911B970E94D30B20E030E048EC52E49D
:100A80000E94870C4B015C01C701B6010E94D30B89
:100A90009B01AC01C501B4010E94380BF8016487C9
:100AA000758786879787F8EECF16F3E0DF06E104B7
:100AB000F10471F4D80114961D921D921D921C929E
:100AC0001797F801108611861286138601C004C09C
:100AD00091E001C090E0892F0F900F900F900F9040
:100AE000DF91CF911F910F91FF90EF90DF90CF900A
:100AF000BF90AF909F908F900895833081F028F43D
:100B0000813099F08230A1F008958730A9F08830C3
:100B1000B9F08430D1F4809180008F7D03C0809142
:100B200080008F7780938000089584B58F7702C00E
:100B300084B58F7D84BD08958091B0008F7703C008
:100B40008091B0008F7D8093B0000895CF93DF93A4
:100B500090E0FC01E458FF4F2491FC01E057FF4F67
:100B60008491882349F190E0880F991FFC01E85493
:100B7000FF4FA591B49182559F4FFC01C591D4912F
:100B80009FB7611108C0F8948C91209582238C93B3
:100B9000888182230AC0623051F4F8948C91322FFC
:100BA000309583238C938881822B888304C0F894AA
:100BB0008C91822B8C939FBFDF91CF9108950F93DF
:100BC0001F93CF93DF931F92CDB7DEB7282F30E06E
:100BD000F901E859FF4F8491F901E458FF4F14914E
:100BE000F901E057FF4F04910023C9F0882321F059
:100BF00069830E947D056981E02FF0E0EE0FFF1F01
:100C0000E255FF4FA591B4919FB7F8948C91611173
:100C100003C01095812301C0812B8C939FBF0F903F
:100C2000DF91CF911F910F910895FC01818D228D4D
:100C300090E0805C9F4F821B91098F7399270895E4
:100C4000FC01918D828D981731F0828DE80FF11D96
:100C5000858D90E008958FEF9FEF0895FC01918DB1
:100C6000828D981761F0828DDF01A80FB11D5D960E
:100C70008C91928D9F5F9F73928F90E008958FEF7C
:100C80009FEF089582EB97E0892B49F080E090E098
:100C9000892B29F00E94B20781110C94000008955D
:100CA000FC01848DDF01A80FB11DA35ABF4F2C9109
:100CB000848D90E001968F739927848FA689B789D8
:100CC0002C93A089B1898C9180648C93938D848DB1
:100CD000981306C00288F389E02D80818F7D808380
:100CE0000895CF93DF93EC01888D8823C9F0EA89BA
:100CF000FB89808185FD05C0A889B9898C9186FD15
:100D00000FC00FB607FCF5CF808185FFF2CFA88911
:100D1000B9898C9185FFEDCFCE010E945006E7CFB7
:100D2000DF91CF910895CF92DF92FF920F931F939F
:100D3000CF93DF931F92CDB7DEB76C0181E0D60170
:100D400058968C9358975B969C915B975C968C9188
:100D50005C97981307C05096ED91FC915197808154
:100D600085FD2EC0F601038D10E00F5F1F4F0F733E
:100D70001127F02EF601848DF81211C00FB607FC72
:100D8000F9CFD6015096ED91FC915197808185FF66
:100D9000F1CFC60169830E9450066981EBCF838D34
:100DA000E80FF11DE35AFF4F6083D6015B960C9369
:100DB0005B975296ED91FC915397808180620CC0B5
:100DC000D6015696ED91FC91579760835096ED9120
:100DD000FC91519780818064808381E090E00F9046
:100DE000DF91CF911F910F91FF90DF90CF900895E9
:100DF000BF92CF92DF92EF92FF92CF93DF93EC01FD
:100E00006A017B01B22EE889F98982E0808341156D
:100E100081EE580761057105A1F060E079E08DE38E
:100E200090E0A70196010E94020D2150310941096D
:100E300051095695479537952795211580E1380733
:100E400098F0E889F989108260E874E88EE190E012
:100E5000A70196010E94020D215031094109510953
:100E60005695479537952795EC85FD853083EE851A
:100E7000FF852083188EEC89FD89B082EA89FB8981
:100E8000808180618083EA89FB898081886080839A
:100E9000EA89FB89808180688083EA89FB89808177
:100EA0008F7D8083DF91CF91FF90EF90DF90CF9087
:100EB000BF9008951F920F920FB60F9211242F9397
:100EC0008F939F93EF93FF93E0915502F091560219
:100ED0008081E0915B02F0915C0282FD12C0908102
:100EE00080915E028F5F8F7320915F02821751F0B5
:100EF000E0915E02F0E0EB5BFD4F958F80935E0228
:100F000001C08081FF91EF919F918F912F910F9060
:100F10000FBE0F901F9018951F920F920FB60F9251
:100F200011242F933F934F935F936F937F938F93EE
:100F30009F93AF93BF93EF93FF9385E492E00E945A
:100F40005006FF91EF91BF91AF919F918F917F914B
:100F50006F915F914F913F912F910F900FBE0F9026
:100F60001F90189585E492E00E94150621E0892BD8
:100F700009F420E0822F089510924802109247024F
:100F800088EE93E0A0E0B0E08093490290934A029B
:100F9000A0934B02B0934C028FE991E090934602EC
:100FA0008093450285EC90E0909352028093510229
:100FB00084EC90E0909354028093530280EC90E094
:100FC000909356028093550281EC90E090935802E2
:100FD0008093570282EC90E090935A0280935902DA
:100FE00086EC90E090935C0280935B0210925E022C
:100FF00010925F02109260021092610208950895AB
:101000000E94940A0E94FF070E948E00C2E4D6E06C
:101010000E949E002097E1F30E944206F9CFCF92F2
:10102000DF92EF92FF920F931F93CF93DF936C01A8
:101030007A01EB01E60EF71E00E010E0CE15DF05A9
:1010400061F06991D601ED91FC910190F081E02D64
:10105000C6010995080F191FF1CFC801DF91CF9183
:101060001F910F91FF90EF90DF90CF900895611541
:10107000710581F0DB010D900020E9F7AD014150D1
:101080005109461B570BDC01ED91FC910280F38165
:10109000E02D099480E090E008950C943708DC017D
:1010A000ED91FC910190F081E02D09946BEA71E0E3
:1010B0000C9437080F931F93CF93DF93EC010E949A
:1010C00037088C01CE010E945608800F911FDF91D6
:1010D000CF911F910F9108950F931F93CF93DF939B
:1010E000EC010E944F088C01CE010E945608800F2F
:1010F000911FDF91CF911F910F9108958F929F9231
:10110000AF92BF92CF92DF92EF92FF920F931F9315
:10111000CF93DF93CDB7DEB7A1970FB6F894DEBFBC
:101120000FBECDBF7C01C42EE52FCB01D22E19A25C
:1011300021E02D1510F02AE0D22E8E010F5D1F4FF9
:101140008D2C912CA12CB12C6C2D7E2FA5019401FE
:101150000E94020D8C2DD29E80191124015011097C
:101160008A3014F4805D01C0895CF8018083211508
:1011700031054105510521F0C22EE32FCA01E4CF0C
:10118000B801C7010E943708A1960FB6F894DEBFD8
:101190000FBECDBFDF91CF911F910F91FF90EF90C8
:1011A000DF90CF90BF90AF909F908F900895CF9297
:1011B000DF92EF92FF920F931F93CF93DF93EC0197
:1011C0006A017B012115310579F4E881F9810190EB
:1011D000F081E02D642FDF91CF911F910F91FF904F
:1011E000EF90DF90CF9009942A303105E9F477FF32
:1011F0001AC06DE20E944F088C0144275527BA019E
:101200004C195D096E097F092AE0CE010E947E0813
:10121000800F911FDF91CF911F910F91FF90EF9061
:10122000DF90CF9008952AE0B701A601CE01DF91AB
:10123000CF911F910F91FF90EF90DF90CF900C9482
:101240007E080F931F93CF93DF93EC019A01AB01BC
:10125000662757FD6095762F0E94D7088C01CE0136
:101260000E945608800F911FDF91CF911F910F911F
:1012700008950F931F93CF93DF93EC010E94D7083B
:101280008C01CE010E945608800F911FDF91CF91F3
:101290001F910F9108954F925F926F927F928F925C
:1012A0009F92AF92BF92CF92DF92EF92FF920F93F5
:1012B0001F93CF93DF93EC016A017B01B22E9A0159
:1012C000AB01C701B6010E94EA0C882319F06EEA4F
:1012D00071E027C026013701E89477F82FEF3FEF40
:1012E0004FE75FE7C301B2010E94EA0C81110DC014
:1012F0002FEF3FEF4FE75FE7C301B2010E94340BCE
:1013000018161CF462EB71E00CC02FEF3FEF4FE7B3
:101310005FE4C701B6010E94830C1816ACF466EBBB
:1013200071E0CE01DF91CF911F910F91FF90EF906F
:10133000DF90CF90BF90AF909F908F907F906F90F5
:101340005F904F900C9437082FEF3FEF4FE75FEC23
:10135000C701B6010E94340B87FDE1CF20E030E0E9
:10136000A901C701B6010E94340B87FF0AC06DE2D4
:10137000CE010E944F088C01F7FAF094F7F8F09430
:1013800002C000E010E0A12C60E070E080E09FE38C
:10139000AB1441F020E030E040E251E40E94380B11
:1013A000A394F6CF9B01AC01C701B6010E94D00AFD
:1013B0006B017C010E94A50B2B013C010E94D10B0B
:1013C0009B01AC01C701B6010E94CF0A6B017C01F1
:1013D0002AE0B301A201CE010E947E08080F191F66
:1013E000BB2039F068E671E0CE010E943708080F93
:1013F000191F7B2C772041F120E030E040E251E4DE
:10140000C701B6010E94870C6B017C010E94A00BF2
:101410004B01AA2497FCA094BA2C2AE030E0B50135
:10142000A401CE010E94D708080F191FC501B401FD
:101430000E94D30B9B01AC01C701B6010E94CF0AE9
:101440006B017C017A94D6CFC801DF91CF911F91B7
:101450000F91FF90EF90DF90CF90BF90AF909F9053
:101460008F907F906F905F904F9008950C944B09F0
:101470000F931F93CF93DF93EC010E944B098C01D4
:10148000CE010E945608800F911FDF91CF911F91CE
:101490000F9108951F920F920FB60F9211242F9360
:1014A0003F938F939F93AF93BF938091E30290916B
:1014B000E402A091E502B091E6023091E20223E05D
:1014C000230F2D3720F40196A11DB11D05C026E87C
:1014D000230F0296A11DB11D2093E2028093E30227
:1014E0009093E402A093E502B093E6028091E702B4
:1014F0009091E802A091E902B091EA020196A11D43
:10150000B11D8093E7029093E802A093E902B093A3
:10151000EA02BF91AF919F918F913F912F910F90D0
:101520000FBE0F901F901895789484B5826084BD8B
:1015300084B5816084BD85B5826085BD85B58160D7
:1015400085BDEEE6F0E0808181608083E1E8F0E037
:101550001082808182608083808181608083E0E866
:10156000F0E0808181608083E1EBF0E08081846045
:101570008083E0EBF0E0808181608083EAE7F0E047
:1015800080818460808380818260808380818160AB
:1015900080838081806880831092C10008955058B4
:1015A000BB27AA270ED075C166D130F06BD120F0D1
:1015B00031F49F3F11F41EF45BC10EF4E095E7FB9C
:1015C00051C1E92F77D180F3BA17620773078407F7
:1015D000950718F071F49EF58FC10EF4E0950B2E6F
:1015E000BA2FA02D0B01B90190010C01CA01A00175
:1015F0001124FF27591B99F0593F50F4503E68F1D0
:101600001A16F040A22F232F342F4427585FF3CF10
:10161000469537952795A795F0405395C9F77EF4E1
:101620001F16BA0B620B730B840BBAF09150A1F02A
:10163000FF0FBB1F661F771F881FC2F70EC0BA0FB0
:10164000621F731F841F48F4879577956795B79538
:10165000F7959E3F08F0B3CF9395880F08F0992730
:10166000EE0F979587950895D9D008F481E00895F5
:101670000CD00FC107D140F0FED030F021F45F3F15
:1016800019F0F0C0511139C1F3C014D198F3992366
:10169000C9F35523B1F3951B550BBB27AA27621736
:1016A0007307840738F09F5F5F4F220F331F441F7B
:1016B000AA1FA9F333D00E2E3AF0E0E830D09150B3
:1016C0005040E695001CCAF729D0FE2F27D0660FA0
:1016D000771F881FBB1F261737074807AB07B0E8DF
:1016E00009F0BB0B802DBF01FF2793585F4F2AF0F5
:1016F0009E3F510568F0B6C000C15F3FECF3983ED5
:10170000DCF3869577956795B795F7959F5FC9F751
:10171000880F911D9695879597F90895E1E0660FDA
:10172000771F881FBB1F621773078407BA0720F053
:10173000621B730B840BBA0BEE1F88F7E0950895BC
:1017400004D06894B111D9C00895BCD088F09F57D7
:1017500090F0B92F9927B751A0F0D1F0660F771FFD
:10176000881F991F1AF0BA95C9F712C0B13081F0DD
:10177000C3D0B1E00895C0C0672F782F8827B85F25
:1017800039F0B93FCCF3869577956795B395D9F73E
:101790003EF490958095709561957F4F8F4F9F4F48
:1017A0000895E89409C097FB3EF490958095709554
:1017B00061957F4F8F4F9F4F9923A9F0F92F96E99D
:1017C000BB279395F695879577956795B795F11112
:1017D000F8CFFAF4BB0F11F460FF1BC06F5F7F4FAF
:1017E0008F4F9F4F16C0882311F096E911C07723C1
:1017F00021F09EE8872F762F05C0662371F096E8CA
:10180000862F70E060E02AF09A95660F771F881F98
:10181000DAF7880F9695879597F90895990F00083C
:10182000550FAA0BE0E8FEEF16161706E807F907B2
:10183000C0F012161306E407F50798F0621B730B4D
:10184000840B950B39F40A2661F0232B242B252BCE
:1018500021F408950A2609F4A140A6958FEF811D71
:10186000811D089597F99F6780E870E060E0089512
:101870009FEF80EC089500240A94161617061806A8
:101880000906089500240A94121613061406050684
:101890000895092E0394000C11F4882352F0BB0F15
:1018A00040F4BF2B11F460FF04C06F5F7F4F8F4F78
:1018B0009F4F089557FD9058440F551F59F05F3FB3
:1018C00071F04795880F97FB991F61F09F3F79F062
:1018D00087950895121613061406551FF2CF4695E4
:1018E000F1DF08C0161617061806991FF1CF869566
:1018F0007105610508940895E894BB27662777274A
:10190000CB0197F908958ADF08F48FEF08950BD083
:10191000C0CFB1DF28F0B6DF18F0952309F0A2CFD1
:10192000A7CF1124EACFC6DFA0F3959FD1F3950F7F
:1019300050E0551F629FF001729FBB27F00DB11D53
:10194000639FAA27F00DB11DAA1F649F6627B00DE3
:10195000A11D661F829F2227B00DA11D621F739FCC
:10196000B00DA11D621F839FA00D611D221F749FDA
:101970003327A00D611D231F849F600D211D822F21
:10198000762F6A2F11249F5750408AF0E1F0882368
:101990004AF0EE0FFF1FBB1F661F771F881F915075
:1019A0005040A9F79E3F510570F05CCFA6CF5F3F36
:1019B000ECF3983EDCF3869577956795B795F795A8
:1019C000E7959F5FC1F7FE2B880F911D9695879530
:1019D00097F9089523DF880B990B089597FB072E3D
:1019E00016F4009407D077FD09D00E94430D07FC40
:1019F00005D03EF4909581959F4F0895709561951F
:101A00007F4F0895A1E21A2EAA1BBB1BFD010DC03A
:101A1000AA1FBB1FEE1FFF1FA217B307E407F5079E
:101A200020F0A21BB30BE40BF50B661F771F881F7A
:101A3000991F1A9469F760957095809590959B0110
:101A4000AC01BD01CF010895052E97FB1EF4009453
:101A50000E943B0D57FD07D00E94020D07FC03D0EA
:101A60004EF40C943B0D50954095309521953F4F89
:101A70004F4F5F4F089590958095709561957F4F7A
:101A80008F4F9F4F0895AA1BBB1B51E107C0AA1F90
:101A9000BB1FA617B70710F0A61BB70B881F991F0F
:101AA0005A95A9F780959095BC01CD010895EE0F48
:101AB000FF1F0590F491E02D099410E0C6ECD0E0F2
:101AC00004C0FE010E94590D2296C83CD107C9F7F7
:041AD000F894FFCFB8
:101AD400496E76616C6964207061636B6574207310
:101AE400657175656E6365206E756D6265722E0035
:101AF4006578706563746564207365714E756D3ABD
:101B040020007265636569766564207365714E753E
:101B14006D3A2000496E76616C6964207061636B74
:101B24006574204352432E205061636B65742063B7
:101B340075727275707465642E00657272207261BC
:101B440074653A20002500633A2000693A20006C4D
:101B54003A2000663A2000643A200000000000A405
:101B6400010F0810028301F601280200000000930F
:101B7400060F0815062E06200671060D0A006E6172
:0A1B84006E00696E66006F76660061
:00000001FF
