:100000000C9464000C948C000C948C000C94CD0324
:100010000C94CD030C94CD030C948C000C948C00A8
:100020000C948C000C948C000C948C000C948C0020
:100030000C948C000C948C000C948C000C948C0010
:100040000C942B0A0C948C000C943B070C946D07B9
:100050000C948C000C948C000C948C000C948C00F0
:100060000C948C000C948C0000000008000201002D
:100070000003040700000000000000000102040863
:100080001020408001020408102001020408102002
:10009000040404040404040402020202020203032E
:1000A00003030303000000002300260029000000D2
:1000B0000000250028002B0000000000240027007D
:1000C0002A008C019D07930111241FBECFEFD8E0B9
:1000D000DEBFCDBF11E0A0E0B1E0E6E9FAE102C089
:1000E00005900D92A639B107D9F722E0A6E9B1E053
:1000F00001C01D92A73CB207E1F710E0C6ECD0E0CA
:1001000004C02297FE010E943A0DC23CD107C9F7F4
:100110000E94E1070C943E0D0C94000040E452E470
:100120006FE070E085EB91E00E94970140E855E2B6
:1001300060E070E086E991E00C94D0040F931F9387
:10014000CF93DF93CDB7DEB72F970FB6F894DEBF0E
:100150000FBECDBF1092CE011092D0011092CF01F0
:100160001092D1011092D2011092D3011092D401B9
:100170001092D5011092D6011092D7011092D80199
:100180001092D9011092DA011092DB011092DC0179
:100190008E010F5F1F4F8FE0F80111928A95E9F7EA
:1001A0002FE030E040E050E0B80185EB91E00E94A4
:1001B000BB018823A9F38091B7018823B1F060E0E7
:1001C00071E086E991E00E943B086091B60186E902
:1001D00091E00E944D086091B50186E991E00E948E
:1001E0004D0886E991E00E9437088091B801882384
:1001F00051F060E271E086E991E00E943B0886E9F7
:1002000091E00E9437088FE0F801AEECB1E0019078
:100210000D928A95E1F766E471E086E991E00E942B
:100220002E086091CE0186E991E00E944D086AE4B3
:1002300071E086E991E00E942E086091CF017091F3
:10024000D0014AE050E086E991E00E9402096EE4A4
:1002500071E086E991E00E942E084091D101509111
:10026000D2016091D3017091D4012AE030E086E997
:1002700091E00E941A0962E571E086E991E00E942E
:100280002E084091D5015091D6016091D70170910F
:10029000D80122E030E086E991E00E94190A66E583
:1002A00071E086E991E00E942E084091D9015091B9
:1002B000DA016091DB017091DC0122E030E086E937
:1002C00091E00E94190A86E991E00E9437086AE5E8
:1002D00071E086E991E00E942E084091C1015091A1
:1002E000C2016091C3017091C40122E030E086E94F
:1002F00091E00E94170A65E671E086E991E00E94AC
:100300003B082F960FB6F894DEBF0FBECDBFDF912E
:10031000CF911F910F91089520E043E062E086E9BC
:1003200091E00C94A00486E991E00C944704CF93EB
:10033000DF93EC0126E081E292E00E94D906198267
:100340001882188A198A1A8A1B8A1C8A1D8A1E8A90
:100350001A821B82188E1F8A1C821D821E821F8297
:10036000188619861A861B861C861D861E861F8681
:10037000DF91CF9108958F929F92AF92BF92CF92CB
:10038000DF92EF92FF920F931F93CF93DF9300D0F2
:1003900000D0CDB7DEB78C015B01211531054105D9
:1003A000510509F4F2C06115710509F4EEC081E24E
:1003B00092E029833A834B835C830E94F6051816EA
:1003C00019060CF0E4C081E292E00E940F06D80109
:1003D00056966C91569729813A814B815C8184367F
:1003E00039F4962F611104C081E056968C93D0C0E9
:1003F000662311F0F801168AD80157966D917C9109
:10040000589761307105D9F01CF4672B49F0BCC0D6
:100410006230710541F16330710509F44EC0B4C01A
:10042000833729F481E090E0F801908F878BD80121
:1004300051961C92519712961C9212973BC0F8014C
:100440008183818B22E030E0308F278B128A138AE0
:10045000148A158A9081891719F081E0828397C0E8
:10046000F801128294C0D8015296ED91FC915397F5
:10047000EA0DFB1D808351969C91519798275196C8
:100480009C93519752968D919D910D90BC91A02D6A
:100490000196A11DB11DF801828B938BA48BB58BA6
:1004A00082179307A407B50721F483E090E0908FAB
:1004B000878BD80113961C926AC0F801808B9189B2
:1004C0009827918B108E178A891719F081E0838302
:1004D00001C01382F801818180838F3711F410826B
:1004E00002C08F5F8083F801C480D580E680F780EA
:1004F000FFEFCF1ADF0AEF0AFF0AD8011496CD9258
:10050000DD92ED92FC92179718966D917D918D91E9
:100510009C911B976F5F7F4F8F4F9F4FF8016087B4
:100520007187828793871C141D041E041F046CF5B9
:100530000E94B40B20E030E048EC52E40E94680CCA
:100540004B015C01C701B6010E94B40B9B01AC01D9
:10055000C501B4010E94190BD8011C966D937D93BF
:100560008D939C931F97B8EECB16B3E0DB06E104A6
:10057000F10459F4F801148215821682178210864C
:1005800011861286138601C004C091E001C090E07C
:10059000892F0F900F900F900F90DF91CF911F91A7
:1005A0000F91FF90EF90DF90CF90BF90AF909F9012
:1005B0008F90089520911F0230912002281739074B
:1005C000B9F49091DD018091DE01981789F0E091F6
:1005D000DD01F0E0E152FE4F80812091DD0130E04D
:1005E0002F5F3F4F2F7333272093DD0190E0089555
:1005F0008FEF9FEF08951F93CF93DF93DC015C96FD
:100600008D919C915D97009749F481E090E013965D
:100610009C938E93129780E090E03BC05196ED91B1
:10062000FC91529750962C915097322F30951FB7CE
:100630005E964C915E9741FB772770F941FD60957E
:10064000F8944081772311F0422B01C0432340836B
:10065000EC012197F1F748E0508160FF02C0522B76
:1006600001C053235083EC012197F1F76695415067
:1006700099F78081772311F0832301C0822B808337
:100680001FBF5C968D919C915D970197F1F781E07A
:1006900090E0DF91CF911F91089520911F0230913A
:1006A00020022817390781F49091DD018091DE0145
:1006B000981751F0E091DD01F0E0E152FE4F8081AA
:1006C000992787FD909508958FEF9FEF08952091CA
:1006D0001F02309120022817390771F48091DE0142
:1006E0002091DD0190E0805C9F4F821B910960E4C6
:1006F00070E00E94CF0C089580E090E00895209172
:100700001F02309120022817390739F48FB7F89467
:100710001092DE011092DD018FBF0895E0911F025B
:10072000F0912002E817F90769F4A389B4899C9134
:100730008589809589238C931092200210921F0244
:1007400081E0089580E00895CF93DF93EC018A8DD6
:100750009B8D892BF1F080911F02909120028C17C4
:100760009D07B9F0009711F00E948E038E8D8E7F49
:100770008E8F1092DE011092DD01D0932002C09383
:100780001F02EB89FC8980819D89892B808381E010
:1007900001C080E0DF91CF9108951F920F920FB6B4
:1007A0000F9211242F933F934F935F936F937F93F7
:1007B0008F939F93AF93BF93EF93FF93E0911F02AB
:1007C000F0912002309709F451C0868DA685B78537
:1007D000958581FF04C08C91892329F447C08C91B1
:1007E000892309F043C0A389B4899C9185898095A8
:1007F00089238C93868997890197F1F7208D318D14
:10080000A685B785758558E040E0C9010197F1F7E5
:10081000842F90E095958795482F6C91672309F078
:100820004068515091F7868D81FD40958091DE01A1
:1008300090E001968F7399272091DD01281749F0E8
:10084000A091DE01B0E0A152BE4F4C938093DE0137
:1008500003C0868D8160868F828D938D0197F1F71D
:10086000A389B4898C919589892B8C93FF91EF9101
:10087000BF91AF919F918F917F916F915F914F91B8
:100880003F912F910F900FBE0F901F9018952BE660
:1008900031E0FC01318320830C948E031F93CF93AE
:1008A000DF93EC01162F6E8D6695617081E06827ED
:1008B000812F0E94C00561E0812F0E948705812F52
:1008C00090E0FC01E458FF4FE491E88BFC01E05715
:1008D000FF4FE491F0E0EE0FFF1FE255FF4F8591CF
:1008E00094919A8B898BDF91CF911F9108951F93DB
:1008F000CF93DF93EC01162F60E0812F0E948705D4
:100900008E8D81FD04C061E0812F0E94C0051C878F
:10091000812F90E0FC01E458FF4FE491ED87FC014A
:10092000E057FF4FE491F0E0EE0FFF1FEC55FF4F53
:10093000859194919F878E87DF91CF911F91089524
:10094000FF920F931F93CF93DF93EC01F62E522F5C
:100950001B821A8208EE13E020E030E00C831D8336
:100960002E833F838BE691E0998388831F8A1E8ABA
:10097000198E188E1B8E1A8E1D8E1C8E8E8D8E7F5C
:1009800050FB81F98E8F642FCE010E944E046F2D93
:10099000CE01DF91CF911F910F91FF900C947704BE
:1009A000CF93DF93EC019A01AB011B8E1A8E198E47
:1009B000188E1F8A1E8A60E079E08DE390E00E9425
:1009C000050DC9012430310520F0B90163507109CA
:1009D00002C061E070E07D8F6C8FEC85E63108F03D
:1009E00068C0B901769567956431710518F0635157
:1009F000710902C061E070E07F8B6E8B069718F082
:100A0000C901059702C081E090E0998F888FC901E4
:100A1000880F991F820F931F9695879596958795B6
:100A20008D30910510F00C9702C081E090E09B8F13
:100A30008A8F20916800E83050F091E0EE3008F4A1
:100A400090E081E001C0880F9A95EAF701C084E048
:100A5000822B809368002C85283038F02E3040F0AF
:100A6000263148F48CE690E008C08DE690E005C0A1
:100A70008BE690E002C080E090E09C8B8B8B28306E
:100A800030F481E001C0880F2A95EAF70DC0822F6B
:100A900090E02E3010F4089701C00E9791E001C04D
:100AA000990F8A95EAF7892F8D8B8C8D9D8D0197F3
:100AB000F1F7CE01DF91CF910C94A403833081F044
:100AC00028F4813099F08230A1F008958730A9F0A0
:100AD0008830B9F08430D1F4809180008F7D03C0DC
:100AE000809180008F7780938000089584B58F7700
:100AF00002C084B58F7D84BD08958091B0008F774A
:100B000003C08091B0008F7D8093B0000895CF9393
:100B1000DF9390E0FC01E458FF4F2491FC01E05783
:100B2000FF4F8491882349F190E0880F991FFC01C1
:100B3000E854FF4FA591B49182559F4FFC01C59198
:100B4000D4919FB7611108C0F8948C9120958223AD
:100B50008C93888182230AC0623051F4F8948C917E
:100B6000322F309583238C938881822B888304C015
:100B7000F8948C91822B8C939FBFDF91CF91089535
:100B80000F931F93CF93DF931F92CDB7DEB7282F1C
:100B900030E0F901E859FF4F8491F901E458FF4F23
:100BA0001491F901E057FF4F04910023C9F0882305
:100BB00021F069830E945E056981E02FF0E0EE0F6D
:100BC000FF1FE255FF4FA591B4919FB7F8948C9108
:100BD000611103C01095812301C0812B8C939FBFAD
:100BE0000F90DF91CF911F910F910895FC01818D9E
:100BF000228D90E0805C9F4F821B91098F73992713
:100C00000895FC01918D828D981731F0828DE80F47
:100C1000F11D858D90E008958FEF9FEF0895FC0101
:100C2000918D828D981761F0828DDF01A80FB11D23
:100C30005D968C91928D9F5F9F73928F90E0089547
:100C40008FEF9FEF089583E997E0892B49F080E0CB
:100C500090E0892B29F00E94930781110C940000E9
:100C60000895FC01848DDF01A80FB11DA35ABF4F69
:100C70002C91848D90E001968F739927848FA6899B
:100C8000B7892C93A089B1898C9180648C93938DC2
:100C9000848D981306C00288F389E02D80818F7DB2
:100CA00080830895CF93DF93EC01888D8823C9F06A
:100CB000EA89FB89808185FD05C0A889B9898C9165
:100CC00086FD0FC00FB607FCF5CF808185FFF2CF00
:100CD000A889B9898C9185FFEDCFCE010E9431069C
:100CE000E7CFDF91CF910895CF92DF92FF920F93DC
:100CF0001F93CF93DF931F92CDB7DEB76C0181E0D6
:100D0000D60158968C9358975B969C915B975C960E
:100D10008C915C97981307C05096ED91FC91519778
:100D2000808185FD2EC0F601038D10E00F5F1F4FFF
:100D30000F731127F02EF601848DF81211C00FB633
:100D400007FCF9CFD6015096ED91FC915197808127
:100D500085FFF1CFC60169830E9431066981EBCF1F
:100D6000838DE80FF11DE35AFF4F6083D6015B9638
:100D70000C935B975296ED91FC9153978081806222
:100D80000CC0D6015696ED91FC9157976083509612
:100D9000ED91FC91519780818064808381E090E0A7
:100DA0000F90DF91CF911F910F91FF90DF90CF9027
:100DB0000895BF92CF92DF92EF92FF92CF93DF938D
:100DC000EC016A017B01B22EE889F98982E0808317
:100DD000411581EE580761057105A1F060E079E0E9
:100DE0008DE390E0A70196010E94E30C21503109A8
:100DF000410951095695479537952795211580E169
:100E0000380798F0E889F989108260E874E88EE183
:100E100090E0A70196010E94E30C2150310941099D
:100E200051095695479537952795EC85FD85308373
:100E3000EE85FF852083188EEC89FD89B082EA89D2
:100E4000FB89808180618083EA89FB898081886059
:100E50008083EA89FB89808180688083EA89FB89B5
:100E600080818F7D8083DF91CF91FF90EF90DF9025
:100E7000CF90BF9008951F920F920FB60F9211243A
:100E80002F938F939F93EF93FF93E0913102F09113
:100E900032028081E0913702F091380282FD12C067
:100EA000908180913A028F5F8F7320913B0282176D
:100EB00051F0E0913A02F0E0EF5DFD4F958F8093A5
:100EC0003A0201C08081FF91EF919F918F912F9104
:100ED0000F900FBE0F901F9018951F920F920FB694
:100EE0000F9211242F933F934F935F936F937F93B0
:100EF0008F939F93AF93BF93EF93FF9381E292E021
:100F00000E943106FF91EF91BF91AF919F918F9118
:100F10007F916F915F914F913F912F910F900FBEF5
:100F20000F901F90189581E292E00E94F60521E053
:100F3000892B09F420E0822F089510922402109248
:100F4000230288EE93E0A0E0B0E080932502909326
:100F50002602A0932702B09328028BE791E090939A
:100F600022028093210285EC90E090932E028093E0
:100F70002D0284EC90E09093300280932F0280EC5D
:100F800090E0909332028093310281EC90E0909354
:100F900034028093330282EC90E090933602809387
:100FA000350286EC90E090933802809337021092DD
:100FB0003A0210923B0210923C0210923D020895B8
:100FC00008950E94750A0E94E0070E948E00C3E205
:100FD000D6E00E949E002097E1F30E942306F9CFFD
:100FE000CF92DF92EF92FF920F931F93CF93DF93F5
:100FF0006C017A01EB01E60EF71E00E010E0CE1561
:10100000DF0561F06991D601ED91FC910190F081CD
:10101000E02DC6010995080F191FF1CFC801DF9116
:10102000CF911F910F91FF90EF90DF90CF90089597
:101030006115710581F0DB010D900020E9F7AD012C
:1010400041505109461B570BDC01ED91FC91028088
:10105000F381E02D099480E090E008950C94180845
:10106000DC01ED91FC910190F081E02D099467E89D
:1010700071E00C9418080F931F93CF93DF93EC014A
:101080000E9418088C01CE010E943708800F911F22
:10109000DF91CF911F910F9108950F931F93CF93DD
:1010A000DF93EC010E9430088C01CE010E943708CA
:1010B000800F911FDF91CF911F910F9108958F9213
:1010C0009F92AF92BF92CF92DF92EF92FF920F93D7
:1010D0001F93CF93DF93CDB7DEB7A1970FB6F894E8
:1010E000DEBF0FBECDBF7C01C42EE52FCB01D22EBB
:1010F00019A221E02D1510F02AE0D22E8E010F5DED
:101100001F4F8D2C912CA12CB12C6C2D7E2FA50165
:1011100094010E94E30C8C2DD29E80191124015061
:1011200011098A3014F4805D01C0895CF801808364
:10113000211531054105510521F0C22EE32FCA01C9
:10114000E4CFB801C7010E941808A1960FB6F89421
:10115000DEBF0FBECDBFDF91CF911F910F91FF90EA
:10116000EF90DF90CF90BF90AF909F908F900895B9
:10117000CF92DF92EF92FF920F931F93CF93DF9363
:10118000EC016A017B012115310579F4E881F981CF
:101190000190F081E02D642FDF91CF911F910F918D
:1011A000FF90EF90DF90CF9009942A303105E9F459
:1011B00077FF1AC06DE20E9430088C014427552742
:1011C000BA014C195D096E097F092AE0CE010E941F
:1011D0005F08800F911FDF91CF911F910F91FF90BA
:1011E000EF90DF90CF9008952AE0B701A601CE01DD
:1011F000DF91CF911F910F91FF90EF90DF90CF90F3
:101200000C945F080F931F93CF93DF93EC019A0127
:10121000AB01662757FD6095762F0E94B8088C01B8
:10122000CE010E943708800F911FDF91CF911F914F
:101230000F9108950F931F93CF93DF93EC010E94BA
:10124000B8088C01CE010E943708800F911FDF91F2
:10125000CF911F910F9108954F925F926F927F925D
:101260008F929F92AF92BF92CF92DF92EF92FF92B6
:101270000F931F93CF93DF93EC016A017B01B22E92
:101280009A01AB01C701B6010E94CB0C882319F06B
:101290006AE871E027C026013701E89477F82FEF5C
:1012A0003FEF4FE75FE7C301B2010E94CB0C811112
:1012B0000DC02FEF3FEF4FE75FE7C301B2010E9480
:1012C000150B18161CF46EE871E00CC02FEF3FEF01
:1012D0004FE75FE4C701B6010E94640C1816ACF436
:1012E00062E971E0CE01DF91CF911F910F91FF90E4
:1012F000EF90DF90CF90BF90AF909F908F907F90B6
:101300006F905F904F900C9418082FEF3FEF4FE7CE
:101310005FECC701B6010E94150B87FDE1CF20E00D
:1013200030E0A901C701B6010E94150B87FF0AC072
:101330006DE2CE010E9430088C01F7FAF094F7F8C4
:10134000F09402C000E010E0A12C60E070E080E0CA
:101350009FE3AB1441F020E030E040E251E40E9412
:10136000190BA394F6CF9B01AC01C701B6010E94F3
:10137000B10A6B017C010E94860B2B013C010E948B
:10138000B20B9B01AC01C701B6010E94B00A6B0110
:101390007C012AE0B301A201CE010E945F08080F80
:1013A000191FBB2039F064E471E0CE010E941808D7
:1013B000080F191F7B2C772041F120E030E040E23C
:1013C00051E4C701B6010E94680C6B017C010E94C8
:1013D000810B4B01AA2497FCA094BA2C2AE030E0A0
:1013E000B501A401CE010E94B808080F191FC5015C
:1013F000B4010E94B40B9B01AC01C701B6010E946D
:10140000B00A6B017C017A94D6CFC801DF91CF91ED
:101410001F910F91FF90EF90DF90CF90BF90AF9012
:101420009F908F907F906F905F904F9008950C9455
:101430002C090F931F93CF93DF93EC010E942C098B
:101440008C01CE010E943708800F911FDF91CF9150
:101450001F910F9108951F920F920FB60F921124B2
:101460002F933F938F939F93AF93BF938091BF022E
:101470009091C002A091C102B091C2023091BE020F
:1014800023E0230F2D3720F40196A11DB11D05C0C7
:1014900026E8230F0296A11DB11D2093BE02809362
:1014A000BF029093C002A093C102B093C202809188
:1014B000C3029091C402A091C502B091C6020196E8
:1014C000A11DB11D8093C3029093C402A093C502D5
:1014D000B093C602BF91AF919F918F913F912F9191
:1014E0000F900FBE0F901F901895789484B582606E
:1014F00084BD84B5816084BD85B5826085BD85B5B8
:10150000816085BDEEE6F0E0808181608083E1E866
:10151000F0E010828081826080838081816080839E
:10152000E0E8F0E0808181608083E1EBF0E08081A1
:1015300084608083E0EBF0E0808181608083EAE773
:10154000F0E08081846080838081826080838081FC
:10155000816080838081806880831092C1000895BB
:101560005058BB27AA270ED075C166D130F06BD179
:1015700020F031F49F3F11F41EF45BC10EF4E095AE
:10158000E7FB51C1E92F77D180F3BA1762077307E0
:101590008407950718F071F49EF58FC10EF4E0955D
:1015A0000B2EBA2FA02D0B01B90190010C01CA011D
:1015B000A0011124FF27591B99F0593F50F4503EC8
:1015C00068F11A16F040A22F232F342F4427585FBA
:1015D000F3CF469537952795A795F0405395C9F7D2
:1015E0007EF41F16BA0B620B730B840BBAF091508A
:1015F000A1F0FF0FBB1F661F771F881FC2F70EC029
:10160000BA0F621F731F841F48F4879577956795FB
:10161000B795F7959E3F08F0B3CF9395880F08F0E4
:101620009927EE0F979587950895D9D008F481E012
:1016300008950CD00FC107D140F0FED030F021F456
:101640005F3F19F0F0C0511139C1F3C014D198F3C4
:101650009923C9F35523B1F3951B550BBB27AA2733
:1016600062177307840738F09F5F5F4F220F331FA5
:10167000441FAA1FA9F333D00E2E3AF0E0E830D071
:1016800091505040E695001CCAF729D0FE2F27D074
:10169000660F771F881FBB1F261737074807AB0742
:1016A000B0E809F0BB0B802DBF01FF2793585F4FB7
:1016B0002AF09E3F510568F0B6C000C15F3FECF3D1
:1016C000983EDCF3869577956795B795F7959F5F7C
:1016D000C9F7880F911D9695879597F90895E1E0D0
:1016E000660F771F881FBB1F621773078407BA072F
:1016F00020F0621B730B840BBA0BEE1F88F7E0958A
:10170000089504D06894B111D9C00895BCD088F070
:101710009F5790F0B92F9927B751A0F0D1F0660FDD
:10172000771F881F991F1AF0BA95C9F712C0B130F8
:1017300081F0C3D0B1E00895C0C0672F782F88270B
:10174000B85F39F0B93FCCF3869577956795B39537
:10175000D9F73EF490958095709561957F4F8F4FA6
:101760009F4F0895E89409C097FB3EF490958095AB
:10177000709561957F4F8F4F9F4F9923A9F0F92F57
:1017800096E9BB279395F695879577956795B795D5
:10179000F111F8CFFAF4BB0F11F460FF1BC06F5FBB
:1017A0007F4F8F4F9F4F16C0882311F096E911C0CD
:1017B000772321F09EE8872F762F05C0662371F0EE
:1017C00096E8862F70E060E02AF09A95660F771F02
:1017D000881FDAF7880F9695879597F90895990FDE
:1017E0000008550FAA0BE0E8FEEF16161706E807EB
:1017F000F907C0F012161306E407F50798F0621B0C
:10180000730B840B950B39F40A2661F0232B242BE0
:10181000252B21F408950A2609F4A140A6958FEFFF
:10182000811D811D089597F99F6780E870E060E051
:1018300008959FEF80EC089500240A941616170669
:1018400018060906089500240A94121613061406B1
:1018500005060895092E0394000C11F4882352F014
:10186000BB0F40F4BF2B11F460FF04C06F5F7F4FCC
:101870008F4F9F4F089557FD9058440F551F59F0B3
:101880005F3F71F04795880F97FB991F61F09F3F6D
:1018900079F087950895121613061406551FF2CF96
:1018A0004695F1DF08C0161617061806991FF1CFE6
:1018B00086957105610508940895E894BB2766270D
:1018C0007727CB0197F908958ADF08F48FEF089501
:1018D0000BD0C0CFB1DF28F0B6DF18F0952309F0A8
:1018E000A2CFA7CF1124EACFC6DFA0F3959FD1F3F3
:1018F000950F50E0551F629FF001729FBB27F00DBE
:10190000B11D639FAA27F00DB11DAA1F649F662712
:10191000B00DA11D661F829F2227B00DA11D621F61
:10192000739FB00DA11D621F839FA00D611D221F1B
:10193000749F3327A00D611D231F849F600D211DFF
:10194000822F762F6A2F11249F5750408AF0E1F0A2
:1019500088234AF0EE0FFF1FBB1F661F771F881FEB
:1019600091505040A9F79E3F510570F05CCFA6CF33
:101970005F3FECF3983EDCF3869577956795B795D6
:10198000F795E7959F5FC1F7FE2B880F911D969500
:10199000879597F9089523DF880B990B089597FB96
:1019A000072E16F4009407D077FD09D00E94240D6D
:1019B00007FC05D03EF4909581959F4F0895709552
:1019C00061957F4F0895A1E21A2EAA1BBB1BFD0152
:1019D0000DC0AA1FBB1FEE1FFF1FA217B307E4070E
:1019E000F50720F0A21BB30BE40BF50B661F771F66
:1019F000881F991F1A9469F7609570958095909546
:101A00009B01AC01BD01CF010895052E97FB1EF48B
:101A100000940E941C0D57FD07D00E94E30C07FCA8
:101A200003D04EF40C941C0D5095409530952195A3
:101A30003F4F4F4F5F4F08959095809570956195FA
:101A40007F4F8F4F9F4F0895AA1BBB1B51E107C0CB
:101A5000AA1FBB1FA617B70710F0A61BB70B881F3E
:101A6000991F5A95A9F780959095BC01CD010895CD
:101A7000EE0FFF1F0590F491E02D099410E0C6ECE5
:101A8000D0E004C0FE010E943A0D2296C83CD10766
:061A9000C9F7F894FFCF36
:101A9600496E76616C6964207061636B657420734E
:101AA600657175656E6365206E756D6265722E0073
:101AB600496E76616C6964207061636B657420435E
:101AC60052432E205061636B657420637572727584
:101AD600707465642E00633A2000693A20006C3AFF
:101AE6002000663A2000643A200065727220726116
:101AF60074653A2000250000000000FB02F007672D
:101B060003DA024D037F03000000007406F007F6B7
:101B1600050F06010652060D0A006E616E00696E1B
:061B260066006F76660008
:00000001FF
