:100000000C945D000C9485000C9485000C94850084
:100010000C9485000C9485000C9485000C9485004C
:100020000C9485000C9485000C9485000C9485003C
:100030000C9485000C9485000C9485000C9485002C
:100040000C94BB010C9485000C9468040C949A04E5
:100050000C9485000C9485000C9485000C9485000C
:100060000C9485000C94850000000008000201003B
:100070000003040700000000000000000102040863
:100080001020408001020408102001020408102002
:10009000040404040404040402020202020203032E
:1000A0000303030300000000250028002B000000CC
:1000B0000000240027002A00CA0411241FBECFEF2D
:1000C000D8E0DEBFCDBF11E0A0E0B1E0EAE5FCE0A2
:1000D00002C005900D92A031B107D9F721E0A0E14F
:1000E000B1E001C01D92A63CB207E1F710E0CAEBF7
:1000F000D0E004C02297FE010E942706C83BD1072A
:10010000C9F70E940E050C942B060C940000FC010C
:10011000819120E030E0919189272F5F3F4F22317C
:100120003105C9F7089526E040E452E46FE070E03D
:1001300089E291E00E9406048AE28093110182E044
:1001400090E0909313018093120183E090E0A0E08F
:10015000B0E08093140190931501A0931601B09321
:10016000170180E090E0A0E8B0E48093180190933C
:100170001901A0931A01B0931B0180E090E0A0EA5E
:10018000B0E480931C0190931D01A0931E01B093D5
:100190001F0161E08DE00C94B402BF92CF92DF9218
:1001A000EF92FF920F931F93CF93DF93CDB7DEB7FC
:1001B00063970FB6F894DEBF0FBECDBF68EE73E055
:1001C00080E090E00E94280260E08DE00E94ED0255
:1001D000809111018F5F80931101809112019091A4
:1001E00013010196909313018093120180911401E1
:1001F00090911501A0911601B09117010196A11DD2
:10020000B11D8093140190931501A0931601B09332
:10021000170120E030E040E85FE360911801709141
:10022000190180911A0190911B010E944E05609363
:1002300018017093190180931A0190931B0120E01B
:1002400030E040E85FE360911C0170911D018091F6
:100250001E0190911F010E944E0560931C01709336
:100260001D0180931E0190931F018E010F5F1F4F90
:1002700083E1F80111928A95E9F788E689838091F4
:1002800010018A8383E78B838FE0E1E1F1E0DE01F7
:10029000149601900D928A95E1F785E68B8BC80143
:1002A0000E948700B82E7E01F4E1EF0EF11C680178
:1002B000F8018081883629F0833719F0845682301E
:1002C00058F464E689E291E00E94450564E670E036
:1002D00080E090E00E9428020F5F1F4FF6016081CE
:1002E00089E291E00E94450564E670E080E090E0DC
:1002F0000E9428020E151F05D1F6F8E6BF1639F048
:1003000083E7B81621F08CE98B0D823058F464E64F
:1003100089E291E00E94450564E670E080E090E0AB
:100320000E9428026B2D89E291E00E94450564E657
:1003300070E080E090E00E942802809110018F37E9
:1003400021F08F5F8093100102C01092100161E0D4
:100350008DE00E94ED0263960FB6F894DEBF0FBEEB
:10036000CDBFDF91CF911F910F91FF90EF90DF9064
:10037000CF90BF9008951F920F920FB60F92112445
:100380002F933F938F939F93AF93BF9380912101BE
:1003900090912201A0912301B0912401309120017C
:1003A00023E0230F2D3720F40196A11DB11D05C0B8
:1003B00026E8230F0296A11DB11D209320018093F2
:1003C000210190932201A0932301B09324018091F5
:1003D000250190912601A0912701B0912801019655
:1003E000A11DB11D8093250190932601A0932701A3
:1003F000B0932801BF91AF919F918F913F912F9121
:100400000F900FBE0F901F9018953FB7F8948091F2
:10041000250190912601A0912701B091280126B5D0
:10042000A89B05C02F3F19F00196A11DB11D3FBF2C
:100430006627782F892F9A2F620F711D811D911DBC
:1004400042E0660F771F881F991F4A95D1F70895DC
:10045000CF92DF92EF92FF92CF93DF936B017C01FB
:100460000E940502EB01C114D104E104F10489F0FA
:100470000E944C050E9405026C1B7D0B683E734078
:1004800090F381E0C81AD108E108F108C851DC4FA7
:10049000EACFDF91CF91FF90EF90DF90CF9008955A
:1004A000789484B5826084BD84B5816084BD85B54F
:1004B000826085BD85B5816085BDEEE6F0E0808116
:1004C00081608083E1E8F0E0108280818260808337
:1004D000808181608083E0E8F0E0808181608083BA
:1004E000E1EBF0E0808184608083E0EBF0E08081EC
:1004F00081608083EAE7F0E080818460808380818E
:100500008260808380818160808380818068808335
:100510001092C1000895833081F028F4813099F061
:100520008230A1F008958730A9F08830B9F0843086
:10053000D1F4809180008F7D03C0809180008F77FF
:1005400080938000089584B58F7702C084B58F7D35
:1005500084BD08958091B0008F7703C08091B00072
:100560008F7D8093B0000895CF93DF9390E0FC01DE
:10057000E458FF4F2491FC01E057FF4F84918823FA
:1005800049F190E0880F991FFC01E255FF4FA591BA
:10059000B4918C559F4FFC01C591D4919FB76111C7
:1005A00008C0F8948C91209582238C9388818223B3
:1005B0000AC0623051F4F8948C91322F3095832325
:1005C0008C938881822B888304C0F8948C91822B31
:1005D0008C939FBFDF91CF9108950F931F93CF937B
:1005E000DF931F92CDB7DEB7282F30E0F901E8592D
:1005F000FF4F8491F901E458FF4F1491F901E0573E
:10060000FF4F04910023C9F0882321F069830E94E1
:100610008B026981E02FF0E0EE0FFF1FEC55FF4FDA
:10062000A591B4919FB7F8948C91611103C0109576
:10063000812301C0812B8C939FBF0F90DF91CF91BD
:100640001F910F910895FC01818D228D90E0805CB7
:100650009F4F821B91098F7399270895FC01918DFB
:10066000828D981731F0828DE80FF11D858D90E015
:1006700008958FEF9FEF0895FC01918D828D98175B
:1006800061F0828DDF01A80FB11D5D968C91928D76
:100690009F5F9F73928F90E008958FEF9FEF089573
:1006A00080EC94E0892B49F080E090E0892B29F0E0
:1006B0000E94C00481110C9400000895FC01848DF7
:1006C000DF01A80FB11DA35ABF4F2C91848D90E07C
:1006D00001968F739927848FA689B7892C93A08957
:1006E000B1898C9180648C93938D848D981306C00E
:1006F0000288F389E02D80818F7D80830895CF93D8
:10070000DF93EC01888D8823C9F0EA89FB89808119
:1007100085FD05C0A889B9898C9186FD0FC00FB6EB
:1007200007FCF5CF808185FFF2CFA889B9898C912C
:1007300085FFEDCFCE010E945E03E7CFDF91CF9121
:100740000895CF92DF92FF920F931F93CF93DF9381
:100750001F92CDB7DEB76C0181E0D60158968C931D
:1007600058975B969C915B975C968C915C979813DD
:1007700007C05096ED91FC915197808185FD2EC068
:10078000F601038D10E00F5F1F4F0F731127F02E3E
:10079000F601848DF81211C00FB607FCF9CFD6010F
:1007A0005096ED91FC915197808185FFF1CFC60164
:1007B00069830E945E036981EBCF838DE80FF11D91
:1007C000E35AFF4F6083D6015B960C935B9752967A
:1007D000ED91FC915397808180620CC0D6015696B2
:1007E000ED91FC91579760835096ED91FC91519754
:1007F00080818064808381E090E00F90DF91CF91D1
:100800001F910F91FF90DF90CF900895BF92CF92EC
:10081000DF92EF92FF92CF93DF93EC016A017B01AD
:10082000B22EE889F98982E08083411581EE58076C
:1008300061057105A1F060E079E08DE390E0A7012A
:1008400096010E940306215031094109510956952C
:10085000479537952795211580E1380798F0E88965
:10086000F989108260E874E88EE190E0A7019601B2
:100870000E940306215031094109510956954795B7
:1008800037952795EC85FD853083EE85FF852083A0
:10089000188EEC89FD89B082EA89FB8980818061AC
:1008A0008083EA89FB89808188608083EA89FB896B
:1008B000808180688083EA89FB8980818F7D808345
:1008C000DF91CF91FF90EF90DF90CF90BF90089590
:1008D0001F920F920FB60F9211242F938F939F9315
:1008E000EF93FF93E0913901F0913A018081E0911B
:1008F0003F01F091400182FD12C090818091420140
:100900008F5F8F7320914301821751F0E091420174
:10091000F0E0E75DFE4F958F8093420101C080813A
:10092000FF91EF919F918F912F910F900FBE0F909C
:100930001F9018951F920F920FB60F9211242F93AC
:100940003F934F935F936F937F938F939F93AF9357
:10095000BF93EF93FF9389E291E00E945E03FF91C2
:10096000EF91BF91AF919F918F917F916F915F9127
:100970004F913F912F910F900FBE0F901F901895A0
:1009800089E291E00E94230321E0892B09F420E011
:10099000822F089510922C0110922B0188EE93E083
:1009A000A0E0B0E080932D0190932E01A0932F0141
:1009B000B093300184E091E090932A018093290163
:1009C00085EC90E0909336018093350184EC90E0C3
:1009D000909338018093370180EC90E090933A0136
:1009E0008093390181EC90E090933C0180933B012E
:1009F00082EC90E090933E0180933D0186EC90E084
:100A00009093400180933F01109242011092430164
:100A10001092440110924501089508950E945002D9
:100A20000E940D050E949300C0E5D3E00E94CD0016
:100A30002097E1F30E945003F9CFCF92DF92EF921B
:100A4000FF920F931F93CF93DF936C017A01EB0119
:100A5000E60EF71E00E010E0CE15DF0561F06991AB
:100A6000D601ED91FC910190F081E02DC601099530
:100A7000080F191FF1CFC801DF91CF911F910F917E
:100A8000FF90EF90DF90CF900895DC01ED91FC9105
:100A90000190F081E02D099408955058BB27AA27B2
:100AA0000ED077C068D030F06DD020F031F49F3F89
:100AB00011F41EF45DC00EF4E095E7FB53C0E92F7E
:100AC00079D080F3BA17620773078407950718F087
:100AD00071F49EF591C00EF4E0950B2EBA2FA02D67
:100AE0000B01B90190010C01CA01A0011124FF27DB
:100AF000591B99F0593F50F4503E68F11A16F040D6
:100B0000A22F232F342F4427585FF3CF46953795D4
:100B10002795A795F0405395C9F77EF41F16BA0B99
:100B2000620B730B840BBAF09150A1F0FF0FBB1F47
:100B3000661F771F881FC2F70EC0BA0F621F731F90
:100B4000841F48F4879577956795B795F7959E3FED
:100B500008F0B3CF9395880F08F09927EE0F97957B
:100B60008795089597F99F6780E870E060E00895A1
:100B70009FEF80EC089500240A94161617061806B5
:100B80000906089500240A94121613061406050691
:100B90000895092E0394000C11F4882352F0BB0F22
:100BA00040F4BF2B11F460FF04C06F5F7F4F8F4F85
:100BB0009F4F089557FD9058440F551F59F05F3FC0
:100BC00071F04795880F97FB991F61F09F3F79F06F
:100BD00087950895121613061406551FF2CF4695F1
:100BE000F1DF08C0161617061806991FF1CF869573
:100BF0007105610508940895E894BB276627772757
:100C0000CB0197F90895A1E21A2EAA1BBB1BFD0187
:100C10000DC0AA1FBB1FEE1FFF1FA217B307E407DB
:100C2000F50720F0A21BB30BE40BF50B661F771F33
:100C3000881F991F1A9469F7609570958095909513
:100C40009B01AC01BD01CF010895EE0FFF1F059080
:0A0C5000F491E02D0994F894FFCF11
:100C5A0000000000A1031D0523033C032E037F03AC
:00000001FF
